:020000040000FA
:1000000058660120D9770000F5420300C57700004B
:10001000C5770000C5770000C5770000C5770000F0
:1000200000000000000000000000000095790000C2
:10003000C57700000000000039790000C577000096
:100040008D7B00008D7B00008D7B00008D7B000090
:100050008D7B00008D7B00008D7B00008D7B000080
:100060008D7B00008D7B00008D7B00008D7B000070
:100070008D7B00008D7B00008D7B00008D7B000060
:100080008D7B00008D7B00008D7B00008D7B000050
:100090008D7B00008D7B00008D7B00008D7B000040
:1000A0008D7B00008D7B00008D7B00008D7B000030
:1000B0008D7B00008D7B00008D7B00008D7B000020
:1000C0008D7B00008D7B00008D7B00008D7B000010
:1000D0008D7B00008D7B00008D7B00008D7B000000
:1000E0008D7B00008D7B00008D7B00008D7B0000F0
:1000F0008D7B00008D7B00008D7B00008D7B0000E0
:100100008D7B00008D7B00008D7B00008D7B0000CF
:100110008D7B00008D7B00008D7B00008D7B0000BF
:100120008D7B00008D7B00008D7B00008D7B0000AF
:100130008D7B00008D7B00008D7B00008D7B00009F
:100140008D7B00008D7B00008D7B00008D7B00008F
:100150008D7B0000FFFFFFFF81F0004102E000BF48
:1001600083F0004330B54FEA41044FEA430594EA77
:10017000050F08BF90EA020F1FBF54EA000C55EAB2
:10018000020C7FEA645C7FEA655C00F0E2804FEA83
:100190005454D4EB5555B8BF6D420CDD2C4480EA65
:1001A000020281EA030382EA000083EA010180EA95
:1001B000020281EA0303362D88BF30BD11F0004FE3
:1001C0004FEA01314FF4801C4CEA113102D0404219
:1001D00061EB410113F0004F4FEA03334CEA133354
:1001E00002D0524263EB430394EA050F00F0A7806C
:1001F000A4F10104D5F1200E0DDB02FA0EFC22FA67
:1002000005F2801841F1000103FA0EF2801843FA5A
:1002100005F359410EE0A5F120050EF1200E012A4B
:1002200003FA0EFC28BF4CF0020C43FA05F3C01889
:1002300051EBE37101F0004507D54FF0000EDCF102
:10024000000C7EEB00006EEB0101B1F5801F1BD3AB
:10025000B1F5001F0CD349085FEA30004FEA3C0CAF
:1002600004F101044FEA445212F5800F80F09A80A5
:10027000BCF1004F08BF5FEA500C50F1000041EBA9
:10028000045141EA050130BD5FEA4C0C404141EBAD
:100290000101013C28BFB1F5801FE9D291F0000FA8
:1002A00004BF01460020B1FA81F308BF2033A3F157
:1002B0000B03B3F120020CDA0C3208DD02F1140C4E
:1002C000C2F10C0201FA0CF021FA02F10CE002F189
:1002D0001402D8BFC2F1200C01FA02F120FA0CFC82
:1002E000DCBF41EA0C019040E41AA2BF01EB0451CB
:1002F000294330BD6FEA04041F3C1CDA0C340EDCC9
:1003000004F11404C4F1200220FA04F001FA02F30B
:1003100040EA030021FA04F345EA030130BDC4F1C9
:100320000C04C4F1200220FA02F001FA04F340EABE
:100330000300294630BD21FA04F0294630BD94F06F
:10034000000F83F4801306BF81F480110134013D56
:100350004EE77FEA645C18BF7FEA655C29D094EAC7
:10036000050F08BF90EA020F05D054EA000C04BF45
:100370001946104630BD91EA030F1EBF0021002030
:1003800030BD5FEA545C05D14000494128BF41F0CF
:10039000004130BD14F580043CBF01F5801130BD33
:1003A00001F0004545F0FE4141F470014FF00000BE
:1003B00030BD7FEA645C1ABF194610467FEA655C6F
:1003C0001CBF0B46024650EA013406BF52EA033511
:1003D00091EA030F41F4002130BD00BF90F0000FFF
:1003E00004BF0021704730B54FF4806404F132043B
:1003F0004FF000054FF0000150E700BF90F0000FF4
:1004000004BF0021704730B54FF4806404F132041A
:1004100010F0004548BF40424FF000013EE700BFEA
:1004200042004FEAE2014FEA31014FEA02701FBF7A
:1004300012F07F4393F07F4F81F06051704732F0AC
:100440007F4208BF704793F07F4F04BF41F4002103
:10045000704730B54FF4607401F0004521F0004161
:100460001CE700BF50EA010208BF704730B54FF0EB
:1004700000050AE050EA010208BF704730B511F0EC
:10048000004502D5404261EB41014FF4806404F124
:1004900032045FEA915C3FF4D8AE4FF003025FEAAA
:1004A000DC0C18BF03325FEADC0C18BF033202EB2E
:1004B000DC02C2F1200300FA03FC20FA02F001FA88
:1004C00003FE40EA0E0021FA02F11444BDE600BF2B
:1004D00070B54FF0FF0C4CF4E06C1CEA11541DBFDA
:1004E0001CEA135594EA0C0F95EA0C0F00F0DEF8A5
:1004F0002C4481EA030621EA4C5123EA4C5350EA8A
:10050000013518BF52EA033541F4801143F48013DA
:1005100038D0A0FB02CE4FF00005E1FB02E506F06B
:100520000042E0FB03E54FF00006E1FB03569CF0C0
:10053000000F18BF4EF0010EA4F1FF04B6F5007FC6
:1005400064F5407404D25FEA4E0E6D4146EB060638
:1005500042EAC62141EA55514FEAC52040EA5E50C1
:100560004FEACE2EB4F1FD0C88BFBCF5E06F1ED86B
:10057000BEF1004F08BF5FEA500E50F1000041EBA2
:10058000045170BD06F0004646EA010140EA02004F
:1005900081EA0301B4EB5C04C2BFD4EB0C0541EA71
:1005A000045170BD41F480114FF0000E013C00F386
:1005B000AB8014F1360FDEBF002001F0004170BDAA
:1005C000C4F10004203C35DA0C341BDC04F11404C3
:1005D000C4F1200500FA05F320FA04F001FA05F24F
:1005E00040EA020001F0004221F0004110EBD3701C
:1005F00021FA04F642EB06015EEA430E08BF20EA48
:10060000D37070BDC4F10C04C4F1200500FA04F3EA
:1006100020FA05F001FA04F240EA020001F000417C
:1006200010EBD37041F100015EEA430E08BF20EAEF
:10063000D37070BDC4F1200500FA05F24EEA020E37
:1006400020FA04F301FA05F243EA020321FA04F066
:1006500001F0004121FA04F220EA020000EBD3701D
:100660005EEA430E08BF20EAD37070BD94F0000F1D
:100670000FD101F00046400041EB010111F4801F51
:1006800008BF013CF7D041EA060195F0000F18BF02
:10069000704703F00046520043EB030313F4801F3E
:1006A00008BF013DF7D043EA0603704794EA0C0FF8
:1006B0000CEA135518BF95EA0C0F0CD050EA41060E
:1006C00018BF52EA4306D1D181EA030101F000418B
:1006D0004FF0000070BD50EA410606BF10461946B3
:1006E00052EA430619D094EA0C0F02D150EA0136BF
:1006F00013D195EA0C0F05D152EA03361CBF104600
:1007000019460AD181EA030101F0004141F0FE419E
:1007100041F470014FF0000070BD41F0FE4141F422
:10072000780170BD70B54FF0FF0C4CF4E06C1CEA22
:1007300011541DBF1CEA135594EA0C0F95EA0C0FD7
:1007400000F0A7F8A4EB050481EA030E52EA033592
:100750004FEA013100F088804FEA03334FF08055B3
:1007600045EA131343EA12634FEA022245EA1115E0
:1007700045EA10654FEA00260EF000419D4208BF91
:10078000964244F1FD0404F5407402D25B084FEA3E
:100790003202B61A65EB03055B084FEA32024FF4EA
:1007A00080104FF4002CB6EB020E75EB030E22BF47
:1007B000B61A754640EA0C005B084FEA3202B6EB07
:1007C000020E75EB030E22BFB61A754640EA5C00B6
:1007D0005B084FEA3202B6EB020E75EB030E22BF46
:1007E000B61A754640EA9C005B084FEA3202B6EB47
:1007F000020E75EB030E22BFB61A754640EADC0006
:1008000055EA060E18D04FEA051545EA16754FEA67
:1008100006164FEAC30343EA52734FEAC2025FEA85
:100820001C1CC0D111F4801F0BD141EA00014FF014
:1008300000004FF0004CB6E711F4801F04BF0143E5
:100840000020B4F1FD0C88BFBCF5E06F3FF6AFAE01
:10085000B5EB030C04BFB6EB020C5FEA500C50F191
:10086000000041EB045170BD0EF0004E4EEA113114
:1008700014EB5C04C2BFD4EB0C0541EA045170BD1B
:1008800041F480114FF0000E013C90E645EA060E5F
:100890008DE60CEA135594EA0C0F08BF95EA0C0F8D
:1008A0003FF43BAF94EA0C0F0AD150EA01347FF4D5
:1008B00034AF95EA0C0F7FF425AF104619462CE7AC
:1008C00095EA0C0F06D152EA03353FF4FDAE10460F
:1008D000194622E750EA410618BF52EA43067FF460
:1008E000C5AE50EA41047FF40DAF52EA43057FF4F0
:1008F000EBAE12E74FF0FF3C06E000BF4FF0010CFB
:1009000002E000BF4FF0010C4DF804CD4FEA410C5E
:100910007FEA6C5C4FEA430C18BF7FEA6C5C1BD02B
:1009200001B050EA410C0CBF52EA430C91EA030FAC
:1009300002BF90EA020F0020704710F1000F91EA09
:10094000030F58BF994208BF90422CBFD8176FEAD7
:10095000E37040F0010070474FEA410C7FEA6C5CA5
:1009600002D150EA013C07D14FEA430C7FEA6C5CAC
:10097000D6D152EA033CD3D05DF8040B704700BFD8
:100980008446104662468C461946634600E000BF26
:1009900001B5FFF7B7FF002848BF10F1000F01BDF8
:1009A0004DF808EDFFF7F4FF0CBF012000205DF8C3
:1009B00008FB00BF4DF808EDFFF7EAFF34BF012048
:1009C00000205DF808FB00BF4DF808EDFFF7E0FFE1
:1009D00094BF012000205DF808FB00BF4DF808ED32
:1009E000FFF7CEFF94BF012000205DF808FB00BF99
:1009F0004DF808EDFFF7C4FF34BF012000205DF87B
:100A000008FB00BF4FEA410212F5001215D211D5C2
:100A10006FF47873B3EB625212D94FEAC12343F0FB
:100A2000004343EA505311F0004F23FA02F018BF7D
:100A3000404270474FF00000704750EA013005D146
:100A400011F0004008BF6FF0004070474FF0000009
:100A5000704700BF80F0004002E000BF81F000411D
:100A600042001FBF5FEA410392EA030F7FEA226C54
:100A70007FEA236C6AD04FEA1262D2EB1363C1BFE4
:100A8000D218414048404140B8BF5B42192B88BF53
:100A9000704710F0004F40F4000020F07F4018BF76
:100AA000404211F0004F41F4000121F07F4118BF96
:100AB000494292EA030F3FD0A2F1010241FA03FC3E
:100AC00010EB0C00C3F1200301FA03F100F0004326
:100AD00002D5494260EB4000B0F5000F13D3B0F1EE
:100AE000807F06D340084FEA310102F10102FE2A5D
:100AF00051D2B1F1004F40EBC25008BF20F00100CD
:100B000040EA03007047490040EB0000013A28BF6B
:100B1000B0F5000FEDD2B0FA80FCACF1080CB2EBEE
:100B20000C0200FA0CF0AABF00EBC250524218436C
:100B3000BCBFD0401843704792F0000F81F4000111
:100B400006BF80F400000132013BB5E74FEA4103E4
:100B50007FEA226C18BF7FEA236C21D092EA030F50
:100B600004D092F0000F08BF0846704790EA010FCA
:100B70001CBF0020704712F07F4F04D1400028BFF7
:100B800040F00040704712F100723CBF00F50000D9
:100B9000704700F0004343F0FE4040F4000070470F
:100BA0007FEA226216BF08467FEA236301464202BB
:100BB00006BF5FEA412390EA010F40F480007047CE
:100BC0004FF0000304E000BF10F0004348BF404274
:100BD0005FEA000C08BF704743F0964301464FF0B0
:100BE00000001CE050EA010208BF70474FF000030C
:100BF0000AE000BF50EA010208BF704711F000434D
:100C000002D5404261EB41015FEA010C02BF84461C
:100C10000146002043F0B64308BFA3F18053A3F57B
:100C20000003BCFA8CF2083AA3EBC25310DB01FAC2
:100C300002FC634400FA02FCC2F12002BCF1004F46
:100C400020FA02F243EB020008BF20F001007047D7
:100C500002F1200201FA02FCC2F1200250EA4C002B
:100C600021FA02F243EB020008BF20EADC70704771
:100C70004FF0FF0C1CEAD0521EBF1CEAD15392EA7F
:100C80000C0F93EA0C0F6FD01A4480EA010C40025B
:100C900018BF5FEA41211ED04FF0006343EA5010B5
:100CA00043EA5111A0FB01310CF00040B1F5000FF7
:100CB0003EBF490041EAD3715B0040EA010062F1A6
:100CC0007F02FD2A1DD8B3F1004F40EBC25008BF90
:100CD00020F00100704790F0000F0CF0004C08BFAE
:100CE00049024CEA502040EA51207F3AC2BFD2F17B
:100CF000FF0340EAC250704740F400004FF0000389
:100D0000013A5DDC12F1190FDCBF00F000407047C2
:100D1000C2F10002410021FA02F1C2F1200200FA00
:100D200002FC5FEA310040F1000053EA4C0308BFC7
:100D300020EADC70704792F0000F00F0004C02BF18
:100D4000400010F4000F013AF9D040EA0C0093F093
:100D5000000F01F0004C02BF490011F4000F013BED
:100D6000F9D041EA0C018FE70CEAD15392EA0C0F5B
:100D700018BF93EA0C0F0AD030F0004C18BF31F0C6
:100D8000004CD8D180EA010000F00040704790F09C
:100D9000000F17BF90F0004F084691F0000F91F040
:100DA000004F14D092EA0C0F01D142020FD193EA06
:100DB0000C0F03D14B0218BF084608D180EA01008E
:100DC00000F0004040F0FE4040F40000704740F06A
:100DD000FE4040F4400070474FF0FF0C1CEAD05238
:100DE0001EBF1CEAD15392EA0C0F93EA0C0F69D094
:100DF000A2EB030280EA010C49024FEA402037D0FF
:100E00004FF0805343EA111143EA10130CF00040F5
:100E10008B4238BF5B0042F17D024FF4000C8B42E5
:100E200024BF5B1A40EA0C00B3EB510F24BFA3EBC5
:100E3000510340EA5C00B3EB910F24BFA3EB910395
:100E400040EA9C00B3EBD10F24BFA3EBD10340EAEF
:100E5000DC001B0118BF5FEA1C1CE0D1FD2A3FF635
:100E600050AF8B4240EBC25008BF20F001007047EA
:100E70000CF0004C4CEA50207F32C2BFD2F1FF038D
:100E800040EAC250704740F400004FF00003013ABE
:100E900037E792F0000F00F0004C02BF400010F462
:100EA000000F013AF9D040EA0C0093F0000F01F076
:100EB000004C02BF490011F4000F013BF9D041EA98
:100EC0000C0195E70CEAD15392EA0C0F08D14202CB
:100ED0007FF47DAF93EA0C0F7FF470AF084676E79E
:100EE00093EA0C0F04D14B023FF44CAF08466EE777
:100EF00030F0004C18BF31F0004CCAD130F0004245
:100F00007FF45CAF31F000437FF43CAF5FE700BF9C
:100F10004FF0FF3C06E000BF4FF0010C02E000BFC5
:100F20004FF0010C4DF804CD4FEA40024FEA410367
:100F30007FEA226C18BF7FEA236C11D001B052EA1D
:100F4000530C18BF90EA010F58BFB2EB030088BFE3
:100F5000C81738BF6FEAE17018BF40F00100704752
:100F60007FEA226C02D15FEA402C05D17FEA236C34
:100F7000E4D15FEA412CE1D05DF8040B704700BF7B
:100F8000844608466146FFE70FB5FFF7C9FF002812
:100F900048BF10F1000F0FBD4DF808EDFFF7F4FF4B
:100FA0000CBF012000205DF808FB00BF4DF808EDE4
:100FB000FFF7EAFF34BF012000205DF808FB00BF07
:100FC0004DF808EDFFF7E0FF94BF012000205DF829
:100FD00008FB00BF4DF808EDFFF7D2FF94BF0120DA
:100FE00000205DF808FB00BF4DF808EDFFF7C8FFD3
:100FF00034BF012000205DF808FB00BF4FEA40022B
:10100000B2F1FE4F0FD34FF09E03B3EB12620DD936
:101010004FEA002343F0004310F0004F23FA02F0A0
:1010200018BF404270474FF00000704712F1610F47
:1010300001D1420205D110F0004008BF6FF000401E
:1010400070474FF0000070477BB972B90029BEBFEE
:1010500000204FF0004106E008BF00281CBF6FF0E1
:1010600000414FF0FF3000F057B8ADF1080C6DE9CA
:1010700004CE002909DB002B1ADB00F07BF8DDF839
:1010800004E0DDE9022304B07047404261EB410116
:10109000002B1BDB00F06EF8DDF804E0DDE9022335
:1010A00004B0404261EB4101524263EB430370479D
:1010B000524263EB430300F05DF8DDF804E0DDE944
:1010C000022304B0404261EB41017047524263EB9E
:1010D000430300F04FF8DDF804E0DDE9022304B03B
:1010E000524263EB4303704753B94AB9002908BF22
:1010F00000281CBF4FF0FF314FF0FF3000F00CB85C
:10110000ADF1080C6DE904CE00F034F8DDF804E030
:10111000DDE9022304B07047704700BF4FEA410C7D
:101120007FEA6C5C02D150EA013C0AD14FEA430CE1
:101130007FEA6C5C02D152EA033C02D14FF000001E
:1011400070474FF0010070474FEA40024FEA4103F9
:101150007FEA226C02D15FEA402C08D17FEA236C3F
:1011600002D15FEA412C02D14FF0000070474FF0EE
:10117000010070472DE9F04786468C460846089ED8
:10118000154674461946002B40F0C1808542B2FADC
:1011900082F245D94AB1C2F1200300FA02FC95401F
:1011A00094402EFA03F343EA0C0C4FEA154EA8B212
:1011B000230CBCFBFEF80EFB18CC08FB00F943EA3D
:1011C0000C43994528D9EB1808F1FF3704D299450B
:1011D00002D9A8F102072B44A3EB0903A4B2B3FB85
:1011E000FEFC0EFB1C330CFB00F044EA0344A0425F
:1011F00014D92C190CF1FF3304D2A04202D9ACF15E
:1012000002032C44241A43EA07401EB1D4400023B1
:1012100034607360BDE8F0874746DDE76346F1E779
:1012200092BB431B01214FEA154EAFB2200CB3FB1A
:10123000FEFC0EFB1C330CFB07F840EA0343984509
:1012400061D9EB180CF1FF3004D2984502D9ACF10A
:1012500002002B44A3EB0803A4B2B3FBFEFC0EFB7D
:101260001C330CFB07F744EA0344A7424DD92C1961
:101270000CF1FF3304D2A74202D9ACF102032C4493
:10128000E41B43EA0040C0E7C2F1200395409440CC
:1012900020FA03F12EFA03F34FEA154E9040AFB255
:1012A0000343B1FBFEFC0EFB1C10190C0CFB07F8F2
:1012B00041EA0041884522D969180CF1FF3004D277
:1012C000884502D9ACF102002944A1EB08019BB288
:1012D000B1FBFEFC0EFB1C110CFB07F743EA0143BC
:1012E0009F420ED9EB180CF1FF3104D29F4202D974
:1012F000ACF102012B44DB1B41EA004193E760465D
:10130000E3E76146F7E76046A4E76346B8E7834250
:1013100006D916B9002108467CE7C6E900E0F9E7DE
:10132000B3FA83F78FB9834201D3724508D8BEEB75
:10133000020460EB030301209C461EB9002169E70B
:101340003846FAE7C6E9004CF8E7C7F1200CBB4085
:101350000EFA07F522FA0CF42EFA0CF1BA401C43EF
:1013600020FA0CF3B8404FEA144901431FFA84FEF7
:10137000B3FBF9F809FB18300B0C08FB0EFA43EA33
:1013800000439A4540D9E31808F1FF3004D29A454A
:1013900002D9A8F102002344A3EB0A0389B2B3FBEC
:1013A000F9F809FB183308FB0EFE41EA03418E45AC
:1013B0002CD9611808F1FF3304D28E4502D9A8F167
:1013C0000203214443EA0040A1EB0E01A0FB029876
:1013D0004145CE46434602D306D14D4504D201389D
:1013E000B9EB020E68EB0403002EA7D0B5EB0E029A
:1013F00061EB030101FA0CFC22FA07F3F9404CEA15
:101400000303C6E9003199E74046C5E74346D9E7FB
:1014100010F8012B11F8013B012A28BF9A42F7D09E
:10142000D01A7047034613F8012B002AFBD1181A73
:1014300001387047000000002DE9F04706460F46CE
:1014400090468AB040F07BFF4FF47A73A0FB0345CF
:1014500003FB0155E40B012F44EA45444FEAD5351F
:1014600008D108213046CDE90045294A31F0CDFEAA
:10147000002013E0D8F8047026483946FFF7C8FF6B
:1014800078B139462448FFF7C3FF50B130463B4698
:101490000121224A31F0B9FE6FF004000AB0BDE824
:1014A000F087204618A3D3E900232946FFF7CCFD97
:1014B00005460C4610461946194A0023FFF7C4FD9D
:1014C00080460F46104619464EF660220023FFF76D
:1014D000BBFD82468946104619464FF47A720023B6
:1014E000FFF7B2FDCDE904A9CDE90601CDE9082356
:1014F00008213046CDE90287CDE90054094A31F090
:1015000084FEB5E7AFF30080005C26050000000014
:10151000599105006A9105006D91050076910500CD
:1015200080EE36008D9105002DE9F04F144697B0FE
:101530001D46476A8346239ECDE904457FB91020A6
:101540002FF09CF90246CBF8240020B9A24BEA21E7
:10155000A2482FF063F9C0E901770760C760DBF8A4
:101560002430196859B15A680123584693404A609B
:101570008B6030F05FFADBF8243000221A602B1EFB
:10158000B7BF23F00043002301220593A8BF3360B7
:10159000059F934BB8BF3260BB4319D142F20F7322
:1015A000229A1360C7F31303234300F0E085249BC2
:1015B00053B98C4B21E08C4B08930833249A136069
:1015C000089817B0BDE8F08F864B08930333F5E712
:1015D000DDE90423CDE90C23DDE90C010022002321
:1015E000FFF7DEF9804650B10123229A1360249B55
:1015F00013B17E4B249A13607D4B0893E0E714AB44
:10160000C7F30A565846019315AB0093DDE90C2346
:1016100030F096FC0390002E78D00D9BA6F2FF369A
:10162000CDF84C80C3F3130343F07F53DDE90C0185
:1016300043F44013194600226E4BFEF791FD60A360
:10164000D3E90023FEF744FF5FA3D3E90023FEF7AD
:1016500089FD04460D463046FEF7D0FE5CA3D3E973
:101660000023FEF735FF02460B4620462946FEF7CB
:1016700079FD04460D46FFF7C5F900220746002311
:1016800020462946FFF796F940B13846FEF7B6FEE8
:1016900022462B46FFF784F900B9013F162F54D894
:1016A000554B03EBC703DDE90C01D3E90023FFF73A
:1016B00081F900284BD0013F00231293149B9B1B00
:1016C0005A1E4CBFC3F1010300230A9245BF069383
:1016D000002306930A93002F3BDB0A9B0F973B44A2
:1016E0000A9300230B93209B092B00F28980052B82
:1016F000C5BF043B002401242093209B023B032B05
:1017000000F28980DFE803F02D3A3859DDE91463EF
:101710001E4406F23243202BC9BFC3F14003C3F17C
:1017200020039F4006F21243D8BF04FA03F006F1EB
:10173000FF36C4BF24FA03F347EA0300FEF74EFE68
:101740000122A1F1F873139274E70123B5E7129017
:10175000B4E7069BDB1B06937B420B9300230F939E
:10176000C1E700230E93219B002B57DC01239946F0
:101770001A46099321920CE00123F3E700230E930C
:10178000219BFB1803F1010909934B46012BB8BFBC
:101790000123DBF824000021042202F114059D42FC
:1017A00040D94160584630F005F9089000283CD1F6
:1017B000124B02464FF4D571CAE60123DFE700BFA2
:1017C00061436F63A787D23FB3C8608B288AC63F47
:1017D000FB799F501344D33F3E2D0600552D060044
:1017E0000000F07F3A2D0600312D060047DC050091
:1017F00046DC05000000F83F00360400C92D060055
:10180000012400230E9420934FF0FF3300229946C9
:1018100009931223AEE701230E93F5E7219B994626
:101820000993B6E701315200B7E7DBF82430B9F18C
:101830000E0F089A1A606FD8002C6DD0002F36DD7D
:1018400007F00F02A04BF80503EBC203D3E9003405
:10185000CDE910344FEA271417D59C4B04F00F0440
:101860004FF00308D3E90823DDE90C01FEF75AFF26
:10187000CDE90401954D5CB9DDE91023DDE90401F2
:10188000FEF750FFCDE904012BE04FF00208F1E72D
:10189000E10709D508F10108DDE91001D5E90023C8
:1018A000FEF716FECDE9100164100835E3E700F0FD
:1018B00007817C42844B854D4FF0020804F00F02F3
:1018C000241103EBC203DDE90C01D3E90023FEF789
:1018D000FFFD0023CDE90401002C40F0E580002B42
:1018E000D0D1129BDDE90445002B00F04C81002291
:1018F000774B20462946FFF75DF8002800F043812A
:10190000B9F1000F00F03F81099B002B00F3E48048
:10191000DDE90C34CDE90434159B002B02DB0E2FDE
:1019200040F342820E9A002A40F067820B9C002509
:10193000DDF81880B8F1000F0DD00A9B002B0ADDEE
:101940004345069AA8BF4346D21AA8EB030806925D
:101950000A9AD31A0A930B9B0BB30E9B002B00F031
:10196000A682002C00F0A18229462246584630F07B
:101970008BF9039A01460546584630F0DBF8039987
:101980000646584630F056F80B9B1B1B0B9300F095
:1019900091820B9A3146584630F076F90390012136
:1019A000584630F0B1F80F9B0446002B00F08482BB
:1019B0001A460146584630F067F9209B0446012B31
:1019C00003DC049B002B00F07C820026236904EBDF
:1019D0008303186941F083F9C0F120000F960A9B38
:1019E000184410F01F0000F09182C0F12003042B76
:1019F00040F38182C0F11C00069B0344804406939F
:101A00000A9B03440A93069B002B05DD1A460399A3
:101A1000584630F093F903900A9B002B05DD2146D0
:101A20001A46584630F08AF90446129B002B00F003
:101A300076822146039841F0A1F9002880F26F8256
:101A400000230A220399584630F016F80E9B7E1E9A
:101A50000390002B00F05C82002329460A2258469E
:101A600030F00AF8099B0546002B03DC209B022B73
:101A700000F35E82B8F1000F05DD29464246584664
:101A800030F05CF905460F9B002B00F0D0826968AE
:101A900058462FF08FFF0746002840F07F820D4BFD
:101AA000024640F2EA2153E5E20706D508F10108B3
:101AB000D5E90023FEF70CFD0123641008350BE780
:101AC0004FF002080DE700BF00360400D8350400CF
:101AD0000000F03FC92D060020460022AC4B2946ED
:101AE000FEF7F6FC7E1E08F10108099CCDE9040111
:101AF0004046FEF783FCDDE90423FEF7E9FCA54B35
:101B00000022FEF72FFBA1F15073CDE910011193D4
:101B1000002C3BD10022A04BDDE90401FEF720FBA5
:101B200002460B46CDE90423DDE91023FEF760FFF2
:101B3000002840F05781DDE9102101F10043DDE983
:101B40000401FEF737FF00283FF4E2AE00242546EB
:101B5000219BDDF820A0DE434FF0000821465846C7
:101B60002FF068FF002D00F0A980B8F1000F05D01C
:101B7000A84503D0414658462FF05CFF29465846F9
:101B80002FF058FF9AE03E464C46B1E7834B03EBFB
:101B9000C40353E90201089B1C440E9B002B4AD04E
:101BA00002460B4600207E49FEF7BCFDDDE910230E
:101BB000FEF7D6FADDF820A0CDE91001DDE9040139
:101BC000FEF720FF0546FEF719FC024630350B46AE
:101BD000DDE90401FEF7C4FA0AF8015B02460B4690
:101BE000CDE90401DDE91001FEF702FF002865D10F
:101BF00000206C49DDE90423FEF7B2FA02460B46E9
:101C0000DDE91001FEF7F4FE002840F00D81A24549
:101C100000F0EA8000225E4BDDE91001FEF758FC7F
:101C200000225B4BCDE91001DDE90401FEF750FC19
:101C3000CDE90401C2E7DDE91023FEF749FCA04627
:101C4000DDF820A0CDE91001DDE90401FEF7DAFEA0
:101C50000546FEF7D3FB024630350B46DDE90401AD
:101C6000FEF77EFA0AF8015B02460B46A245CDE973
:101C700004234FF0000223D1494BDDE91001FEF7A8
:101C800071FA02460B46DDE90401FEF7B1FE0028B9
:101C900040F0CA8000204249DDE91023FEF760FAD7
:101CA00002460B46DDE90401FEF784FE70B1C24630
:101CB00008F1FF381AF8013C302BF8D0374655E0D0
:101CC000334BFEF705FCCDE90401BDE7DDE90C343B
:101CD000CDE90434159B002BFFF628AE0E2F3FF7FD
:101CE00025AE2E4B03EBC703D3E90034CDE9063410
:101CF000219B002B02DAB9F1000F64D0DDF820A09F
:101D0000DDE90445DDE9062320462946FEF70AFD04
:101D1000FEF778FE0646FEF771FBDDE90623FEF7C7
:101D2000D7FB0246204606F130040B462946FEF753
:101D300017FA0AF8014B089C02460B46AAEB04046A
:101D4000A14540F08280FEF70DFA04460D46DDE91C
:101D50000623FEF74DFE002865D120462946DDE921
:101D60000623FEF71DFE08B1F3075CD4039958461D
:101D70002FF060FE002301378AF80030229B1F609D
:101D8000249B002B3FF41CACC3F800A018E400BF58
:101D90000000244000001C400000144000360400F5
:101DA0000000E03F0000F03FA24B03EBC703D3E984
:101DB0000034CDE90634219B002B9FDAB9F1000FE6
:101DC0009CDC7FF4C3AE00229B4BDDE90601FEF7ED
:101DD0007FFBDDE90423FEF701FE044600287FF4C3
:101DE000B5AE3E462546B4E0DDE90C34CDE9043419
:101DF000159B002B01DB0E2FD6DD209A012A36DC45
:101E0000139A82B303F233430B9CDDF81880069AD1
:101E1000012158461A4406920A9A1A440A922FF04F
:101E200073FE054686E53E4653469A4613F8012D55
:101E3000392A06D1089A9A42F7D1302208990136F8
:101E40000A701A7801321A7038E700227B4BFEF7CD
:101E50003FFB0022002304460D46FEF7A1FD0028AB
:101E60003FF450AF82E7149BC3F13603CCE709F18E
:101E7000FF340B9BA34208DBB9F1000FA3EB040472
:101E80000EDBDDF818804B46C1E70B9B0F9AE31A77
:101E90000B94DDF8188000241A444B460F92B6E7E5
:101EA000069BA3EB09080023B1E7039E71E50B9A9B
:101EB000039970E5039672E5209B012B17DC049BC8
:101EC000ABB9059BC3F313039BB9059B23F00046F5
:101ED000360D360536B1069B0126013306930A9B63
:101EE00001330A930F9B002B7FF470AD0F960120F6
:101EF00075E50026F6E73FF486AD1C33069A1A44D2
:101F0000984406920A9A1A440A927CE50346F4E73A
:101F1000099B002B2BDC209B022B09DC27E0B9F16D
:101F2000000F1DDC209B022B1ADD3E46CDF82490CD
:101F3000099B002B7FF40CAE2146052258462FF05A
:101F40009BFD01460446039840F018FF00287FF7E8
:101F5000FFADDDF820A0312301360AF8013BFBE597
:101F60000E9B3E46CDF82490002B7FF483AD089F56
:101F70002146039840F03FFD089B00F13009099A83
:101F800007F8019BFB1A9A4240F3CB8000230A22F8
:101F9000039958462FF070FD0390E9E72A6905F18F
:101FA0000C010C300232920040F023FB0122394632
:101FB00058462FF0C3FE089BA846054603F1010AC8
:101FC000DDE9082313440A93049B03F001030B93F8
:101FD0000AF1FF3321460398069340F00CFD414679
:101FE000099000F13009039840F0C8FE2A462146C6
:101FF000074658462FF00EFFC268014602B3584606
:102000002FF018FD002F3ADA0122039958462FF0DD
:1020100095FE2146039040F0B1FE002803DC29D153
:1020200019F0010F26D0B9F1390F1DD132E0284641
:10203000C1E700BF00360400000014400000244047
:102040000E90039840F09AFE0E990C9058462FF08F
:10205000F1FC0C9A5ABB209B53B90B9B43B9B9F1C5
:10206000390F17D0002F05DD099B03F1310901E07D
:10207000002F2ADADDF818A00AF8019B6EE5209BF4
:102080003B4304D1049B03F00103002BBCD0B9F106
:10209000390F36D1069F392307F8013BBA46013F75
:1020A0001AF8013C392B5AD001333B7056E5002F0A
:1020B00006DB209B3B4306D1049B03F0010313B9CD
:1020C000002AA1DCD6E7002AE1DC0A9B57460AF881
:1020D000019C53452ED000230A22039958462FF025
:1020E000CBFCA84503904FF000034FF00A02414695
:1020F00058460BD12FF0C0FC804605460AF1010A74
:1021000066E7DDF818A009F10109B5E72FF0B4FC86
:102110002946804600230A2258462FF0ADFC05468A
:10212000ECE7099B4FF00008002BCCBF1F460127AE
:10213000089B1F440122039958462FF0FFFD2146BA
:10214000039040F01BFE0028A8DC02D119F0010F1B
:10215000A4D1BA4617F8013D302BFAD0FEE4089B13
:10216000BB429BD13123089A01361370F6E4249BBD
:10217000002B7FF420AA014BFFF73FBA312D060058
:1021800010B50A4C0A4830F046FA23785BB10020BB
:1021900022F06CFB014607483DF0CCF9237883F030
:1021A0000103237010BD0320F2E700BFA207002047
:1021B0004E8B0500C45600202DE9F84301780746F0
:1021C000032922D004291BD0002943D10D460C46F7
:1021D0000E46DFF884903B89AB422CDC01221F4B7A
:1021E000002E1A70234604DA40F2FF72A31846F15B
:1021F00000061B4ADB0A43EA46531360BDE8F88336
:102200001848BDE8F84311F015B9174B4FF40061B9
:102210001868421C1A60154B00F0010003EB0030F7
:1022200010F0B0FA124B01469842E7D01148BDE8D1
:10223000F84330F0F0B97B6833F91580013540463A
:10224000FEF7C2FC18EB04031C4649F8040B46EBEE
:10225000E876C0E70848EAE7EC760020584101201C
:10226000CC560020C8360400D0560020142101208E
:102270000000AD0B608B0500828B05002DE9F0415D
:102280000023154A154916480EF082FE0024124D0F
:10229000144F2968D5F804800846FEF7E9FC41464A
:1022A00006464046FEF7E4FC01463046FEF7D8FB02
:1022B0002EF092FAFEF7A2FE21460246013438467D
:1022C00030F0A9F9B4F5806F05F10805E1D10022DD
:1022D000054B1A70BDE8F081EC560020EC7600202A
:1022E000D4560020998B0500584101202DE9F04F6C
:1022F000814BEBB006AC93E8070084E80700214669
:1023000000227E4811F052F87D4B014698422BD0B6
:102310007C4830F080F9002201210E2005F07AFB84
:10232000012010F015F9764B0546984228D0014659
:10233000754830F070F902A833F0C5FD704B0546C2
:10234000984253D00146714830F065F913F0DCFA39
:102350006F483FF0AFFE002866D16E4830F05BF961
:1023600000206BB0BDE8F08F3221644833F0F1FEFD
:102370000021024601236148009111F0ABF8CAE741
:10238000002765480121877010F02CF9A842064605
:1023900002D001466148CCE7224602210120604B71
:1023A0002760A78010F06EF9B042054602D00146C2
:1023B0005C48BEE74FF400615B4810F0E3F9A842C7
:1023C000064602D001465948B3E74FF40061584829
:1023D00010F0D8F9B042054601D00146F3E710F0FD
:1023E00027FAA8420146A6D05248A2E7204633F079
:1023F0006AFDA8420146A6D101259DF808004E4A73
:102400004E4933F055FD4E4A4E49207833F050FD89
:102410009DF8080005FA00F00EF06EFF207805FA2E
:1024200000F00EF069FF91E7474830F0F4F8474DAF
:1024300028463FF03FFE002800F0A180D5F8048038
:10244000AF68D8F800302E691A020AD4404940F229
:10245000E932404830F0F3FB40F2E9313C4830F0DB
:10246000E7FB3368172143F40003336028463B68D9
:10247000394A9847014618B1384830F0CCF86FE730
:10248000374830F0C8F83749374B4B604FF40003FA
:102490008B60FB6933B1012228469847014620B181
:1024A0003248EAE76FF05701FAE7314830F0B3F805
:1024B000BF69F7B1D8F800301B0208D4244940F2B4
:1024C0008732244830F0BBFB40F28731C6E73368DF
:1024D000172113F4000F14BF4FF000734FF0806307
:1024E0004FF0A0722846B8470146002844D0214842
:1024F000C3E76FF05701FAE7F0340400C836040070
:102500000000AD0BA28B0500BE8B05004E8C0500B4
:10251000F8300400728C050098070020DA8B050063
:10252000B9210000018C050014210120608B0500F9
:10253000143101202A8C050004E0005040110150A4
:1025400000E0005004E10050928C0500943004003B
:10255000A58C0500D68C050011000100EE8C05004D
:10256000128D0500B8560020812100001D8D050048
:102570003F8D0500548D0500594830F04CF830F07F
:102580002EF826F08DF95749054626F007FE002360
:1025900001211A46284635F092FA534830F03BF8AC
:1025A00030F01DF826F07CF90646DFF84081504AED
:1025B000D8F80030102102A82EF0ACFE304602A957
:1025C00026F0ECFD002305211A46304635F077FA57
:1025D00048483CF023FFFF2146483CF0B4FF03206D
:1025E00022F044F9014643483CF0A4FFA1460027ED
:1025F000DFF800A12FF0F3FF24F07AF905464FF43D
:102600000032514649F8040B36F076FC962205213B
:10261000284635F026FA40F6B832002128463DF02B
:10262000FEFC0022284611463DF095FC3AB20537E3
:102630001E2311212846BFB235F041FAFA2FD9D115
:1026400022F01EFF2C4800258368DFF8B0A05B68ED
:1026500098474FF400612A480EF0B6FCDFF8A4B0AA
:10266000294B1B780BB1FFF709FEA1460027013764
:102670000022D8F8001059F8040BFFB23DF06BFCB3
:10268000322FF4D1214AD8F800301278A2B11021AB
:10269000174A02A82EF03EFE304602A926F07EFD23
:1026A00022F0EEFE652D16BF01350025EDB20021AA
:1026B00021202DF053FAD3E71846FEF781FA514650
:1026C000FEF7D6FA5946FEF787FBFDF7A9FE104A3A
:1026D000CDE90001102102A82EF01CFEDCE700BFAE
:1026E000798D0500878D05009C8D0500CC56002056
:1026F000B08D0500C4560020F83004003333534039
:10270000D456002000F07F4558410120A207002048
:10271000B38D05002DE9F84380460F46154600F0BD
:10272000A1F8C36804461BB943691A78002A48D146
:102730000023E3606368434557F8232008DB394BE7
:102740006361204600F074F84FF0FF30BDE8F88375
:10275000511C616116782D2EF1D1911C6161517867
:102760002D29A16004D1927862B901336360E6E754
:1027700041B92C4B31462846636140F0B5F800283A
:10278000DFD0A660D4F808902846494640F0ACF85F
:10279000B9F13A0F636900D0C0B91B7813B9636807
:1027A0000133636023683BB12B783A2B04D04A464F
:1027B00045211D4830F041FC204600F039F83F200B
:1027C000C4E75A1C42611B788360DBE742783A2AEF
:1027D0000BD0002222611B7813B963680133636058
:1027E000204600F025F8A068B0E7197866680D4A21
:1027F00029B90136B045666004DD57F82630C4E9D2
:102800000432EAE762612D783A2D04D1204600F0C7
:102810000FF828469AE72368002BCDD04A46452179
:102820000248C7E7BB920500B68D0500D08D0500B4
:102830000268074B1A604268064B1A608268064BB2
:102840001A60C268054B1A600269054B1A6070472E
:102850008401002080010020F4960020F0960020E2
:10286000EC9600200048704768010020014B1B686F
:10287000184700BF88010020014B1860704700BF57
:102880008801002007B50B4600210246009103484D
:1028900000F0D4FD03B05DF804FB00BF6D2800001C
:1028A00030B5002587B0CDE903010446009503A9A2
:1028B0000548059500F0C2FDDDE904309842B8BF37
:1028C000255407B030BD00BFF125030070B589B3B2
:1028D0000668012230462FF0FAFE014604463046D3
:1028E0002FF0BDFEC30708D41349AF22134830F0C0
:1028F000A6F9AF21104830F09BF9214630462FF061
:10290000C4FE25182946002230462FF0A8FE2D1AB5
:10291000AC4206D00849B722084830F090F9B721F8
:10292000E8E7214630462FF0B6FE2146BDE870406C
:102930002FF0F2BF70BD00BF0F8E0500D68C0500D2
:102940002DE9F8430F4606681446B2684B1EB2F5EF
:10295000004F34BF042108213B4010D0C7F10009CB
:1029600009EA0709494503F1FF3028BF49461842E3
:102970000CD11F46BCB900252846BDE8F8838F421C
:102980000FD82146BDE8F84330F008B82C492D484F
:102990004FF4A27230F053F94FF4A271284830F08E
:1029A00047F99946E6E7B2EBD40FE4D9E319591A8F
:1029B00010462FF096FE014630462FF0ECFE804682
:1029C0000028D8D0B36809EBC005B3F5004F34BF79
:1029D000042308231D4435447B1E1D44B5FBF7F535
:1029E0007D43A5EB0905294630462FF070FE2C44A7
:1029F000073424F00704A41B804507464FEAE4048B
:102A000008D20246414630462FF0FFFE414630468E
:102A10002FF040FF394630462FF037FE38448442CD
:102A200008D23946304622462FF0EFFE2146304686
:102A30002FF030FF0122394630462FF02CFE9BE765
:102A40000F8E0500D68C05002DE9F74F91461F46E5
:102A50000E460468009031B93A46494603B0BDE8D5
:102A6000F04FFFF76DBF3FB9FFF730FF4FF00008A1
:102A7000404603B0BDE8F08F02F1FF3A1AEA020FB8
:102A80000AD04B494B4840F2891230F0D8F840F256
:102A90008911474830F0CCF8D4F808B0BBEBD70F19
:102AA000E4D920462FF013FE0146054620462FF0BC
:102AB000ECFDBBF5004F2CBF0822042202EBC5023F
:102AC0002244B31A8046F918584601932FF009FEA4
:102AD0008346B9F1000F02D016EA0A0F44D1C3456C
:102AE0000ED00FD2AB445A46294620462FF08DFE19
:102AF0002946012220462FF0CEFD59462FF00CFF2B
:102B0000B046B5E705EB080A0122514620462FF0F2
:102B1000A6FDC30728D4514620462FF0B6FD4044F9
:102B2000584521D3514620462FF01EFE51462046DF
:102B30002FF0ABFDABEB080840450AD905EB0B07BE
:102B4000514620463A462FF060FE394620462FF087
:102B5000A1FE5246294620462FF07EFE012229463C
:102B600020462FF098FDCBE73A4649460098FFF7FC
:102B7000E7FE804600283FF479AF294620462FF033
:102B800084FDA368019AB3F5004F34BF04230823E2
:102B9000C2EBC002D21ABA42314628BF3A4640467A
:102BA0003FF027FD31460098FFF790FE60E700BF39
:102BB0000F8E0500D68C0500B2F5802F2DE9F0416F
:102BC0000CD2042A20D83D494FF4F9723C4830F029
:102BD00036F84FF4F971394830F02AF80823D21A40
:102BE000CC1D114424F0070421F00701091B17290B
:102BF0004FEAD1060AD8314940F2FB12304830F092
:102C00001EF840F2FB11E6E70423E8E70027046022
:102C100031463046A660E7602FF06CFD0121421D71
:102C2000804630462FF05DFD9200D51DED0828440A
:102C3000B0423AD8B8F1FF3F3946A2F1100204F190
:102C40001000B8BF3A463FF00EFD2A4639462046EE
:102C50002FF039FD3B463A46394620462FF00AFD13
:102C6000A6EB05082046394601222FF014FD424606
:102C700029462FF028FD2B463A46294620462FF0BC
:102C8000F9FC314620462FF01EFD43463A463146B8
:102C900020462FF0EFFC3146204601222FF0FBFCAE
:102CA0002946BDE8F0412FF0F5BD04494FF4037209
:102CB00003482FF0C4FF4FF403718CE70F8E05001B
:102CC000D68C05002DE9F04F89468168044685B011
:102CD00008462FF0B9FE461C0A4633462146654891
:102CE0002FF099FC64482FF096FC00254FF0010B63
:102CF00004F10C0AB54236DBB9F1000F66D05F482B
:102D00002FF089FC0025DFF8789101222946204622
:102D10002FF076FEC30757D4294620462FF087FEB2
:102D200000F12D06294620462FF075FE00220746A9
:102D3000294620462FF064FE2946A5EB00082046D0
:102D40002FF06FFE3B46CDE90080324629464846CB
:102D50002FF061FCA368AB4238D0294620462FF003
:102D600060FE0546D1E75AF8043F5BB300271946D9
:102D7000B8462046039302912FF04DFE804538BFA0
:102D800080460299032220462FF03AFE039B01461B
:102D9000834207F10107ECD1A3680BFA05F2B3F502
:102DA000004F34BF04230823013A03F10801C3EBA9
:102DB000C803CDE9008302EBD1023B4629463148E6
:102DC0002FF029FC013595E72A26ABE700212046A4
:102DD0002FF027FE0026D4F808800546B8F5004FEE
:102DE0002CBF4FF008094FF00409374645451ED364
:102DF000B8F5004F34BF042208224FF47A7102EB79
:102E0000C802BB19D31A500801FB03000A21B0FB0A
:102E1000F2F0B0FBF1F201FB12003946CDE90020DF
:102E2000324619482FF0F7FB05B0BDE8F08F294670
:102E3000012220462FF0E4FD10F0010F2946204624
:102E40000BD02FF0E8FDA6EB090606EBC0062946DD
:102E500020462FF0E6FD0546C8E72FF0E8FD0028E4
:102E6000F5D1294620462FF0D6FDA7EB090707EB41
:102E7000C007ECE7308E05005D8E0500328F05003F
:102E8000408F0500188F05006E8F05002DE9F84F63
:102E90000446A38B08461907164612D4022803F0ED
:102EA000070162D120462FF0E0FD88B101380428E7
:102EB00000F22581DFE810F0590023017E00C800F0
:102EC000F50001280CBF43F0100143F02001A1835D
:102ED00004F114002AF048FC002800F0AB8086F3CF
:102EE0001188BFF36F8FBDE8F88F03F00702501F02
:102EF00001281ED80020062A2768C4E9000014D142
:102F00003A4603E0E08B0130E0831268002AF9D1F1
:102F100023F0070343F002022046A2832FF0A5FD11
:102F200090B342F02002A2832EE023F007039AB26E
:102F3000F2E7042A33D123F007039AB22046A28392
:102F40002FF093FD10B142F02002A283A38B03F077
:102F50000709894540F0DC80A18BCA0640F1228137
:102F600021F01003A38301F00701D4F81880A38B8C
:102F7000B8F1000FB9DA0022276823F00703C4E98B
:102F8000002243F00103A383A38B03F007098945C3
:102F900040F0BF80002FDFD00025AA4640E08649E0
:102FA00040F21B1285482FF04AFE40F21B11824866
:102FB0002FF03EFE41B180494FF4AB727F482FF0B5
:102FC0003EFE4FF4AB71F2E7236843B97A4940F211
:102FD00057127A482FF033FE40F25711E7E7236982
:102FE0001D6845B974494FF4AD7274482FF027FE3F
:102FF0004FF4AD71DBE70F4688464FF00609A38B0F
:1030000023F0070343F006039BB2A383A268002AC0
:1030100040F08180002F40F08180002D9CD0BA4686
:1030200043F0080304F1140B5846A3832AF09CFBD9
:10303000002875D1624940F2311260482FF0FFFD3F
:1030400040F231115E48B3E7022908D05A4940F2F4
:103050005D125A482FF0F3FD40F25D11A7E7E78BB0
:1030600047B155494FF4AF7254482FF0E8FD4FF483
:10307000AF719CE723695D6845B94F4940F2611221
:103080004E482FF0DCFD40F2611190E7A38BB8466B
:1030900023F0070343F004039BB24FF00409A3831A
:1030A000B4E7012908D044494FF4B27243482FF0E5
:1030B000C6FD4FF4B2717AE7236843B93E4940F246
:1030C00065123E482FF0BBFD40F265116FE72369A2
:1030D0009D6845B938494FF4B47238482FF0AFFDB8
:1030E0004FF4B47163E70027A38BB84623F00703BE
:1030F00043F005039BB24FF00509A38386E72E49F1
:1031000040F26B122D482FF09AFD40F26B114EE702
:10311000002700257AE74FF0010A81E792467FE712
:1031200086F31188BFF36F8FBAF1000F17D14FBB31
:1031300015B120462349A8474FF02003EFF311862D
:1031400083F31288BFF36F8F58462AF0FFFA08BB4B
:103150001B49882219482FF072FD882172E7A16867
:103160000029E4D00E680029E1D043464A462046B3
:10317000D1F804A0D0471EB1336831461E46F2E7AD
:103180003346FAE7394643464A4620463F682FF021
:1031900098FCCCE758462AF0F5FAA38B23F00803F5
:1031A000A383D9E68B067FF593AE21F02003A3839A
:1031B00001F0070176E600BFB68F0500D68C05004A
:1031C000D88F0500C9310000F8B504460D4600F15E
:1031D00014064FF02003EFF3118783F31288BFF337
:1031E0006F8F30462AF0B2FA40B90A490A4888225D
:1031F0002FF025FD882107482FF01AFD30462AF0D0
:10320000C1FAA5613A462046BDE8F8400121FFF722
:103210003DBE00BFD88F0500D68C05002DE9F047D4
:1032200004460F462FF03DFC051E5EDB04F1140939
:103230004FF02003EFF3118A83F31288BFF36F8FEF
:1032400048462AF083FA804638B933498822334801
:103250002FF0F5FC882130483CE048462AF092FAED
:103260004FF6FF72E38BA68B934206F007063FD022
:10327000022E10D135460133E38348462AF074FA12
:1032800000283BD1244940F2311224482FF0D7FCCA
:1032900040F23111DFE7062E13D8DFE806F0092CE3
:1032A0001212090409006FF085054FF00008E4E7E9
:1032B00000233B6063687BB9C4E900777EB1354683
:1032C000F3E7174915484FF4E4722FF0B8FC4FF4B8
:1032D000E47113482FF0ACFC1F606760EEE75246C4
:1032E00002212046FFF7D2FD35462846BDE8F0878B
:1032F0006FF00A05D9E76FF00405D6E78AF3118865
:10330000BFF36F8FB8F1000FEFD00023324639467C
:1033100020462FF0D6FBE8E7D88F0500D68C0500B5
:10332000B68F050008B54268034602F00302022A80
:1033300081600AD0032A4FF0000103D0012A0AD18C
:10334000596006E01868596008BD186800225A6084
:1033500050B90020F8E70649064845222FF06FFCD7
:10336000452103482FF064FC2DF07EF9F1E700BF02
:1033700005900500D68C0500F0B5024601680A27C5
:103380000020074E0B461C780131355D6D0701D4D6
:103390001360F0BD07FB0043A3F13000F2E700BF6C
:1033A000EE2B06002DE9F84F15469A46D378224AAF
:1033B0006F2B12F803B080460F460BF0030B29D099
:1033C00024D8582B0CBF10260A26DDF82890324648
:1033D000002340463946FDF787FE092AD4B21ED89D
:1033E0003034B045E4B277F1000709F8014D01D35C
:1033F000D14511D82B789B0605D5082E15D1AB7871
:1034000043F00803AB704846BDE8F88F03F0F703BC
:10341000702BD7E70826D8E780460F46D7E7BBF1E1
:10342000010F0CBF37345734DBE7102EEBD1AB78EC
:1034300043F01003E6E700BFEE2B06002DE9F04F46
:103440008A4616461C46002597B00390307808B986
:1034500028464AE3731C2528049307D05146039B52
:1034600098470028C0F241830135F0E1182200217D
:1034700010A83FF0F8F87378252B00F0A380002304
:1034800098469E469C461846711C0F4611F8012B23
:103490002B2A00F0C68000F2BD80202A00F0C480F4
:1034A000232A00F0C4802BB19DF8483043F040033C
:1034B0008DF84830B8F1000F05D09DF8483043F042
:1034C00020038DF84830BEF1000F05D09DF848303C
:1034D00043F010038DF84830BCF1000F05D09DF883
:1034E000483043F008038DF8483028B19DF8483043
:1034F00043F004038DF848309DF8483003F0440150
:10350000442903D16FF386138DF848309DF8483075
:103510002A2A43F0800309978DF8483040F08C80C8
:103520009DF8493043F001038DF849307B1C1A782F
:103530002E2A0CBF012100219DF8492061F3410290
:103540008DF849200CD15A1C09925A782A2A40F049
:1035500083809DF84920023342F004028DF849200F
:103560001A786C2A00F0A48000F28680682A00F0A5
:103570008C806A2A00F0A5804C2A00F0AA801A46A6
:1035800012F8013B782B04928DF84B309DF84920BE
:1035900000F217816D2B00F2A980692B00F21181D6
:1035A000572B00F2BE80412B03D0453B022B00F28B
:1035B000088104229DF84A3062F302038DF84A30F4
:1035C0000123CAE0B21C04928DF84B309DF84930BB
:1035D000D90740F1FD8054F8048BB8F1000F07DAE9
:1035E0009DF84820C8F1000842F004028DF84820F8
:1035F0005A0740F1F68054F804BBBBF1000F80F28B
:10360000F5809DF849306FF341038DF849304FF054
:10361000FF3BEBE02D2A0DD0302A7FF444AF01238D
:1036200033E74FF0010C30E74FF0010E2DE74FF07C
:1036300001082AE7012028E709A8FFF79DFE099B5A
:10364000BB423FF474AF9DF848201390C00F60F365
:1036500041028DF848206AE709A8FFF78DFE9DF822
:1036600048301490C3F3400242EAD07262F341033F
:103670008DF84830099B73E7742A26D07A2A7FF4A4
:103680007EAF06219DF849200CE05A78682A9DF803
:10369000492006D1012161F3C6028DF84920023389
:1036A0006DE7022161F3C6028DF84920013366E718
:1036B0005A786C2A9DF8492001D10421EBE70321B7
:1036C000F0E705219DF84920ECE707219DF8492006
:1036D000E8E7BDF8482022F4F04222F0020242F46A
:1036E000804242F00202ADF84820DFE76E3BD9B2DB
:1036F00001238B4040F282410B4238D113F0240F5A
:1037000052D1DF075DD503219DF84A3061F30203F2
:103710008DF84A3002F07803A3F140004342434160
:103720001BE00120A3F15801C9B200FA01F111F424
:10373000624F7FF43EAF40F6010739421DD111F4CC
:10374000043F3ED09DF84A3060F3020302F0780255
:10375000402A8DF84A3034D000239DF84820C2F327
:1037600040010B4363F341028DF848202EE702210C
:103770009DF84A3061F30203E8E702209DF84A1001
:1037800002F0780260F30201402A8DF84A1002BF6D
:103790009DF8481041F001018DF84810632BDBD1F2
:1037A000131E18BF0123D8E703219DF84A3012F0F9
:1037B000780F61F302038DF84A3014BF0123002310
:1037C000CBE79DF8483043F001038DF84830C3E75C
:1037D0009DF94820002AACBF4FF0FF38DDF84C803F
:1037E00006E79F077FF513AFDDF850B00023CDE962
:1037F00013339DF84A309DF8491003F00703012B5D
:10380000C1F3C30133D1CB1E042B04D8DFE803F08E
:10381000214646212100236801294FEAE372CDE9C0
:1038200010321CD19DF94030DA17CDE91032043442
:103830009DF8483013F0030750D032465146049BA0
:1038400003982FF07BF90028C0F24F810544049EB5
:10385000FCE554F8043BDA17CDE91032E8E7022919
:10386000E5D11AB243F3C033CDE91023DFE7022BD1
:1038700024D1CB1E042B04D8DFE803F01810101855
:10388000180001294FF0000254F8043B14D002291B
:10389000CDE91032CCD19BB21093C9E7073424F0A4
:1038A0000704F4E80223CDE91023C1E754F8043BF0
:1038B000109300231193BBE7DBB2CDE7042B08D1B3
:1038C000073424F00704D4E900230834CDE9102399
:1038D000AEE7032BACD154F8043BDDE79DF84B0079
:1038E0007828B4D862281DD825283FF4B7AD5828C9
:1038F000ADD1DDE910010DF13E03009312AA0AAB30
:10390000FFF750FDBBF1000F814680F29880B9F1BE
:10391000000F9CD00DF13E06A6EB0903002F50D0FE
:1039200001334EE06338152891D801A252F820F0F7
:10393000B1390000153A00004F3800004F38000040
:103940004F3800004F380000153A00004F38000093
:103950004F3800004F3800004F3800009F3A0000F9
:10396000393A0000613A00004F3800004F3800003B
:10397000893900004F380000393A00004F38000004
:103980004F380000393A0000BBF1000FDDF84090DD
:103990000ADB594648463EF0E1FFB9F1000F3FF41B
:1039A00056AF09EB000676E04846FDF73BFDF8E729
:1039B000109B00278DF8283001230DF129060DF109
:1039C00028099DF84A1011F01002069200F081803B
:1039D0000233139A134405924A0644BF14995B18A4
:1039E000B8F1000F40F38E80A8EB03089DF8483033
:1039F0005807C3F3800B00F18580590678D53FB195
:103A000051463846039B984700286EDB5F460135D8
:103A100030236EE01E075ABFC3F300135F012B274C
:103A2000DDE91023002BBFF664AF524263EB430382
:103A30002D27CDE910235CE700275AE700279DF8E2
:103A400048100DF13E03A3EB09036FF386119B456C
:103A50008DF848107FF65BAFABEB0303139356E78B
:103A6000109880B30DF13E060AAB0021009612AA11
:103A7000FFF798FCBDF84A30BBF1000F03F0EF03ED
:103A800043F4F04343F010038146ADF84A30D5DAF1
:103A900000283FF4DCAE0027A6EB090391E7109B5A
:103AA00007293FF6D4AEDFE801F00C04060C080845
:103AB0000C0C1D70CBE61D80C9E6EA17C3E9005265
:103AC000C5E61D60C3E6314E07460523A6F105098C
:103AD00077E7080748BF01337BE71846079351464D
:103AE000039B98470028079B04DA17B0BDE8F08FC6
:103AF0002023C346594600290BF1FF3BEDDC45442A
:103B0000D8466D1A37B151463846039B984700286E
:103B1000EBDB01359DF84A30DA0601D41B0706D5E8
:103B200051463020039B98470028DEDB0135069B79
:103B30003BB151469DF84B00039B98470028D4DBCE
:103B40000135059F2F4406E051463020039B9847DE
:103B50000028CADB01357B1B002BF5DC33464A46C7
:103B6000514603982EF0EAFF0028BEDB0544A84426
:103B7000A8EB0503002B7FF76AAE51462020039B7C
:103B800098470028B1DB0135F2E700BF2D90050012
:103B90002DE9F34180460E46154600272A4601A925
:103BA00040462EF0E2FF04460246314601983EF0C0
:103BB00020FD2D1B2744264401D0002CEED1394690
:103BC00040462EF0EFFF40B10649074849222FF04A
:103BD00036F8492103482FF02BF8384602B0BDE8EB
:103BE000F08100BF2E900500D68C05002DE9F34131
:103BF00080460D46164600273246404601A92EF063
:103C0000E6FF04462DB10246019928463EF0F1FC3C
:103C10002544361B274401D0002CEDD139464046BF
:103C20002EF0F1FF40B1064906488E222FF007F82A
:103C30008E2103482EF0FCFF384602B0BDE8F0812B
:103C40002E900500D68C0500044608B54FF02002E2
:103C5000EFF3118382F31288BFF36F8F0BF0CAFC6E
:103C6000204603F0EFFD03482EF0D5FC03F04CFF97
:103C7000FCE700BF5690050010B530B90B48452150
:103C80002FF0DBF96FF0150010BD836833B90848D9
:103C900045212FF0D2F96FF00400F5E71B6813B14E
:103CA000BDE8104018471846EEE700BF7F900500BA
:103CB0009590050010B530B90B4845212FF0BDF99E
:103CC0006FF0150010BD836833B9084845212FF007
:103CD000B4F96FF00400F5E75B6813B1BDE810407C
:103CE00018471846EEE700BF7F9005009590050045
:103CF00070B508B101B132B90B4845212FF09DF9DB
:103D00006FF0150070BD84680CB1E56835B90748DF
:103D100045212FF092F96FF00400F3E741F8040B0E
:103D2000E368BDE870401847B8900500959005001D
:103D300010B5044630B9104845212FF07EF96FF0D8
:103D4000150010BD006830B90C4845212FF075F9F9
:103D50006FF00100F5E783680BB11B6933B90848C0
:103D600045212FF06AF96FF00400EAE7616898478F
:103D70000028E6D12060E4E7E9900500FF90050007
:103D80009590050070B51346044630B9104845219A
:103D90002FF053F96FF0150070BD006830B90D4871
:103DA00045212FF04AF96FF00100F5E782680AB16A
:103DB000956835B9084845212FF03FF96FF00400A8
:103DC000EAE70A46AC466168BDE87040604700BF5C
:103DD000E9900500FF90050095900500034A1368DF
:103DE0000BB9526813600020704700BF8C0100209F
:103DF00030B50C460E4985B00291D0F8AC1105469D
:103E0000CDE9003100F1E0014FF0FF33204628F00A
:103E1000F1FD50B9012384F86430D5F8A83123B1FD
:103E2000204605B0BDE83040184705B030BD00BFA2
:103E30004B2D030038B50C46114605462EF087FF82
:103E4000034638B9284604492EF081FF0346002076
:103E5000236038BD0120FBE7BB9205002DE9F04F40
:103E6000012381460569466885B005F56777D7E87F
:103E7000EF2F002A03D1C7E8E13F0029F7D10CBF9B
:103E80001A46002240F0B180B368B16A05F5E478C3
:103E90001C1F10462EF0E0FF84425FD8013A00F06C
:103EA0009E80B2FA82F24FF00044D44072682046FD
:103EB000073222F00302C5F86022B16A2EF0CCFF6F
:103EC000C5F86402B36A40466343033323F0030337
:103ED00002EB4302230103EB4403093323F0030302
:103EE00003EBC403C5F858221A440832C5F854221B
:103EF0007368C5F85C42C5F850323D4BC5E9A9630B
:103F0000316800F0DFF9044630BBD9F804A0D9F8D5
:103F10001090DAE9073409F5307B012B584608BFC9
:103F2000103C2AF045FC0023DAF8240031494FF414
:103F3000806201EB80210093584623462AF04EFC14
:103F400009F52C702C492AF0C1FADAF814008368BC
:103F50005C682CB96FF05704002139E0013298E712
:103F60004B46264ADAF81810A04704460028F3D139
:103F7000DAF8140083681B69002BEBD00122DAF811
:103F80001810984704460028E6D11D4B2846C5F86E
:103F9000A8311C4BC5F8AC311B4B0393D5F810323C
:103FA0000293D5F80832CDE90083D5F86832B26AB9
:103FB000D5F8981300F04EF904460028CCD105F14D
:103FC000E00028F0B1FE0028C5F8A0030ADB0221BA
:103FD00038462EF0F1FE204605B0BDE8F08F6FF0B8
:103FE0000B04B9E76FF01504B6E76FF07704F2E75A
:103FF000A12D030070430120872D03007B2D0300BA
:104000000D4000002F2F0300E92D030013B50446D7
:1040100040B100230122CDE90032074BD0E909125B
:1040200028F09CFCA36E1B6823B1E06E02B0BDE8D3
:104030001040184702B010BDBB92050013B50446EE
:104040000846216901F56771D1E8AF1F022910D137
:1040500093B1A0B10121CDE900311346D0E9091295
:1040600028F07CFC074B984208BF6FF00B0002B0B1
:1040700010BD6FF00F00FAE76FF04C00F7E76FF03C
:104080000100F4E72EF8FFFF2DE9F74388461546B7
:10409000066906F56773D3E8AF3F022B5FD113685B
:1040A00023B96FF0150003B0BDE8F0831B78002B37
:1040B000F7D0D6F89893B9F1000F33D106F5D87739
:1040C0004FF0FF324FF0FF33384629F0C7FD30463E
:1040D0002A6801A9FFF7AEFE019C1CB938462EF0F4
:1040E00069FEDEE705F10803A3666B6984F8649056
:1040F000E366E46360B138462EF05CFE214630464C
:10410000236E2A68FFF774FE0020C8F80040CAE753
:104110002022296804F140003EF00DFC38462EF0C4
:1041200049FEF1E730460F492EF011FE0446002803
:10413000B7D005F1080383666B69C063C3660023CB
:1041400080F864302022296840303EF0F4FB22469B
:104150000121304600F060F80028D5D0A1E76FF0CB
:104160000F00A0E7BB92050010B50C46006900F5F2
:104170006773D3E8AF3F022B0FD189B10A4900F52D
:104180002C702AF0A3FA20463DF001FE7022002197
:1041900020463EF068FA002010BD6FF00F00FBE7EC
:1041A0006FF00100F8E700BFF89600202DE9F04F0E
:1041B00005460E4690460027D0F8B0A085B0AAF577
:1041C000AE7421463046FDF723F9E0B9114BA4F156
:1041D000400B0293DAF810303246CDE900832946CD
:1041E0004FF0FF335846AAF5CE7928F003FC60B9AA
:1041F0007023012203FB079383F86420DAF80C3064
:104200000BB158469847703417B105B0BDE8F08F30
:104210000127D6E75D2F03001FB5144690B18AB180
:10422000012912D10A4B00F1E0010293D0F8AC3120
:10423000403201934FF0FF332046009328F0DAFB21
:1042400004B010BD6FF01500FAE70020F8E700BFDA
:104250005D2F03002DE9F04387B00E46DDE90E81A6
:104260001446DDE910251F4630B329B3DFF850C0EE
:1042700000F1E009002D08BF65469EB9CDE9034471
:1042800000F5CE74204605963DF0FBFE03ABCDE96C
:1042900000432A463B464146484628F06BFD07B09E
:1042A000BDE8F083002241460E9248462A4607B0F8
:1042B000BDE8F04328F08ABE6FF01500EFE700BFBD
:1042C000AD410000F0B50E46044689B000286FD01D
:1042D00001230246C3630023D0F89810364F4030C4
:1042E00040F80C7C42F8301FCDE901334FF0FF332A
:1042F0000093C36D31F05DFF304A06AB92E80300D6
:1043000083E8030018460FF0D9F90546D8B904F13F
:1043100034000FF0B5F90546A8B93946284805AA72
:1043200031F029FF054670B9059B9A6872B10C33CC
:10433000D4F89400C4F8A0302EF041FEC4F8D400A4
:1043400030B96FF00B05284609B0F0BD0346EFE722
:10435000D4F894002EF033FEC4F8D8000028F0D032
:10436000D4F88C30D4F8A010C4F8A8300423C4F8D2
:10437000AC30C4F8C4300223A362124BB4F89420CA
:10438000D4F8D470C4F8B810C4F8D010D4F8901091
:10439000236204F1A403A4F8B020C4F8A470C4F804
:1043A000C010A4F8C820C4F8BC00A661E362CAE744
:1043B0006FF01505C7E700BF2E910500FC3404001F
:1043C00038910500FC360400014B03600020704763
:1043D0002837040013B5044629F0A6FBC0F30723D1
:1043E0000193C0F3074300930821030E034A2046BC
:1043F0002EF00BFF002002B010BD00BF4091050061
:1044000010B504460BF0ECF808210346074A204695
:104410002EF0FBFE2046064A08212EF0F6FE21462D
:10442000044829F0B7F9002010BD00BFDB9105005A
:10443000FA91050039440000F0B58FB004460D46EE
:10444000D0F8A0703DF078FE06462BF0B3FB244B6D
:10445000244A002E08BF1E46234B0821844218BF61
:104460001346CDE900462846204A2EF0CEFED4E978
:104470000A23CDE9022394F90E3028460093237BCA
:1044800008211B4A2EF0C1FE06A92022204629F051
:1044900015F9626E0346009208212846154A2EF04F
:1044A000B4FE204605A93DF057FE034630B1082171
:1044B0002846114A2EF0A9FE0FB0F0BD6423059ADC
:1044C0002846B91A4B43B3FBF7F3CDE90021CDE9F8
:1044D000027308213B46094A2EF097FEECE700BF25
:1044E0000692050090CC0500049205000992050093
:1044F000159205004192050058920500859205002D
:1045000070B5054692B01C2200210BA80AAE3EF001
:10451000AAF81A22202130463EF0A5F8294617486D
:1045200029F038F94FF40061154809AA3DF008FE5A
:10453000044650B11349144840F20B122EF07FFB91
:1045400040F20B110F482EF073FB6423099ACDE95A
:104550000006C2F500614B43DB0A06934FF400638B
:104560002846CDE90413CDE902320821044B074A5D
:104570002EF04BFE204612B070BD00BF0146000079
:1045800018550120BC920500D68C0500F592050057
:1045900010B5044631F07AFC08210346024A204651
:1045A0002EF033FE002010BD3E930500134600227E
:1045B00073B5044601920A21586801AA2EF02FFF14
:1045C000019D95B920EAE0744FF40046294640F277
:1045D000E7304FF47A720023C4FB0601FCF784FD38
:1045E0002BF0BCFA284602B070BD2B4601212046B4
:1045F000024A2EF00AFE019DF4E700BF5493050025
:10460000F0B504460D46D0F8A06089B007A93DF08A
:10461000A3FD034630B1082128460F4A2EF0F5FDD0
:1046200009B0F0BD20463DF087FD6423079A0B4F8B
:10463000B11A4B43002818BF0746B3FBF6F3CDE988
:104640000221CDE90463082123462846CDE90076FE
:10465000034A2EF0DAFDE3E75892050006920500C2
:10466000749305002DE9F04387B00546684628F0AD
:10467000DDFC1423009E082103FB0066164A284631
:104680002EF0C3FD154F009CDFF85480DFF85490E6
:10469000B44203D3002007B0BDE8F08323680BB118
:1046A0001A7832B923463A46142101A82CF032FE7A
:1046B00001AB4246082128462EF0A7FD20463DF0DA
:1046C000F9FC094B0821002808BF4B46074A284639
:1046D0002EF09BFD1434DBE7C9940500D39405004C
:1046E000D8940500C0940500BA9405000F2906006F
:1046F0008B1E022B2DE9F04107468846144637D819
:104700001022002160682CF033FFB8F1020F06463A
:1047100007D1202308213846244A2EF076FD33683D
:1047200016E00A220021A0682CF022FFC5B22B4619
:10473000082138461D4A2EF068FDB8F1040F1AD042
:10474000102D0DD0202DEAD0082D0CD13378DBB2FE
:1047500008213846164A2EF058FD0020BDE8F081A9
:1047600033889BB2F4E708213846124A2EF04DFDFB
:104770006FF01500F2E710220021E0682CF0F8FE3F
:104780000821034604460C4A38462EF03EFD102D03
:1047900006D0202D07D0082DE5D1E4B23470DCE737
:1047A000A4B23480D9E73460D7E700BF1195050083
:1047B0003C950500269505004D9505002DE9F04F27
:1047C0004FF0FF35914601220746884620262C46A9
:1047D000534BDFF850A185B01A6049465246404617
:1047E000FDF798FF411C07D16A1C4FD14E4A0121A9
:1047F00038462EF00AFD1CE073281FD0772831D0F0
:10480000612816D1DFF824B110220021DBF8000066
:104810002CF0AEFE05460028DFD12FF0B9FD03686D
:10482000162BDAD1DBF80030414A012138462EF050
:10483000ECFC6FF0150005B0BDE8F08F0022DFF84A
:10484000ECB01146DBF800002CF092FE0446002884
:10485000C3D12FF09DFD0368162BBED1DBF80030CD
:10486000344AE2E70022DFF8C4B01146DBF800006A
:104870002CF07EFE06460028AFD12FF089FD03689C
:10488000162BAAD1DBF800302B4ACEE7631C01D1EE
:104890002A4AACE75FFA86F8C6F3C406002C3CD07F
:1048A0006B4629461A46A6EB050C0CE0B8F1100F32
:1048B0001DD0B8F1200F20D0B8F1080F2AD1087808
:1048C000187031443344A64203D80CEB0100102881
:1048D000ECD9102CA14628BF4FF0100929464B46B1
:1048E000384601F0FDF91035A4EB0904D6E7088835
:1048F00080B21870000A5870E3E708684FEA102E7B
:10490000187083F801E04FEA104E000E83F802E0C1
:10491000D870D6E708210A4A6AE720468BE700BF2D
:10492000800100209B950500A2950500EC960020D3
:10493000619505007495050087950500BF950500F4
:104940002695050070B5104E04460D46337881B1AA
:104950002BB10121BDE870400C4A2EF056BC01235A
:104960003370082120460A4A2EF04FFC0123337091
:1049700004E083F001033370002BF2D12946204676
:10498000BDE8704001F050BA59410120D9950500A9
:104990001496050070B504463C480378182B02D1E4
:1049A0000B78112B31D00B46013A8D18AB4225D133
:1049B0008B5C0A780370A2F13003092B344C04D9C4
:1049C00022F02003413B052B04D823683149CA5407
:1049D000013323602368022B34D1102200212D489B
:1049E0002CF0C6FD2C4A136803F8010B13602B4A08
:1049F0001368013313600023236023E013F8016B75
:104A0000182ED3D11E78112ED0D1244D08212B6819
:104A10002046234A2EF0F9FB20460021FFF792FFA3
:104A2000204B187870B9204A2B681168042B0ADCD7
:104A300008B111602B6013F003010BD112681368E9
:104A40001BBA136070BD0868043B00BA41F8040B40
:104A50000120EBE75B4203F0030358BF59420229F0
:104A600004D1126813885BBA9BB2EAE70329E9D143
:104A7000106802681104C2F3074301F47F010B437D
:104A800002F47F4213430360DCE700BF5A41012078
:104A9000209700205C4101202C97002024970020C3
:104AA0003E9605005B410120289700202DE9F84F34
:104AB0000023064615460C462949DFF8A8800B60FE
:104AC0002949DFF8A890DFF8A8B088F800300B601B
:104AD000012C2F4655F804AF1ED9022249465046F4
:104AE0003DF017FF80B99AF80220003A18BF012262
:104AF0009244504602221F493DF00BFF30B901237A
:104B000088F80030013CE3E70022F1E749465046CF
:104B1000FCF77EFCA8B904370022786811462CF017
:104B2000ABFC0022144B1146186078682CF0A4FCF2
:104B3000124B134918603046FFF704FF0020BDE810
:104B4000F88F9AF800202D2AE6D19AF80120002A41
:104B5000E2D053465A46082130462EF056FBD1E7A4
:104B6000209700205B4101202497002058960500E3
:104B70005E9605005B9605002C9700202897002084
:104B80009549000007B50A483DF094FA60B1042346
:104B9000084A0093126801230549074800F0A6FE61
:104BA000002003B05DF804FB6FF01200F9E700BFCE
:104BB000A8300400B43804008034040010B5446800
:104BC000A3604023C4E9001242680821D364114B5A
:104BD000D162136300231049C2E90E33C2E91133D5
:104BE000C2E90633C2E909331468536313641161DF
:104BF00053611362C2F88830A36823B11B6C13B1F0
:104C0000204606499847A3681B6A0BB1204698477F
:104C1000002010BDFCA00120F4A00120214C0000C8
:104C20002DE9F74304460D468368DB6B03B19847D3
:104C3000A368DB6AFBB94FF0000905F13008404674
:104C4000EA6C01A92DF091FF074600284BD0A3681C
:104C500001991B695BBB6FF0570140462DF0A2FF25
:104C600000284ED03749A92237482DF0E8FFA92166
:104C700034482DF0DDFF204698470028DBD1A3689B
:104C8000DB69002B40D105F110073846EA6A01A91B
:104C90002DF09DFF064600283DD120462EF0E2F97A
:104CA000C5F888600120D5E90131984730E0024617
:104CB000204698470646014640463EB92DF072FF11
:104CC0000028CFD1B9F1000FD9D007E02DF06AFF4D
:104CD0000028C7D1B7424FF00109B0D00020D5E974
:104CE00001319847CBE7572118482EF0A6F9A36861
:104CF0001B69002BE6D0012220460DF103019847E5
:104D0000E0E76FF05706E5E7204698470028BAD15C
:104D100003B0BDE8F083A3680199DB687BB102466C
:104D200020469847014638462DF06DFF0028B9D03F
:104D30000449F52204482DF082FFF52198E76FF031
:104D40005701F0E7BF970500D68C0500F5970500E1
:104D500010B504468168083101F0AEFDA168204617
:104D6000BDE81040014A083101F034BD2998050022
:104D700001492EF00BBA00BFBA920500F7B5044600
:104D800080680D46D0F864325A0705D500212EF010
:104D900017FAE0682EF067FDE368DB6873B9002D51
:104DA00039D0A66806F1420738462EF0E9F9002806
:104DB00033D0394606F5A1703DF0A3FDA26829461F
:104DC000E0680DF1060342322EF050FD58B9A0689C
:104DD00000F5A17142303DF094FDA06842302EF004
:104DE000CFF9ADF8060020462EF0D2FBA368D3F829
:104DF00060329B0603D50A4960692EF0C7F9204648
:104E000001F052FAA268BDF806302046D387A268A6
:104E100093872EF067FB03B0F0BD86F84201CDE723
:104E2000843504002DE9F04FA7B004465422002138
:104E300011A83DF018FC0023CDE90533A3682046F6
:104E4000423302932EF0AAFB20462EF034FB10B919
:104E50006069FFF78DFF00264FF0FF37B246B3467B
:104E60003546B146A0681422002108303DF0FBFB16
:104E7000204601F067F9A168E0688A8F42312EF080
:104E80002CFD20462EF0ABFD0DF144080396DDE924
:104E90000532012A6DD0132B6ED85FBBBBF1000F1A
:104EA0000AD020462EF0BBFD1423A26811A942327D
:104EB0000DEB030000F0EAFFB9F1000F0CD099F8F8
:104EC0001130FE2B08D1059B26AA02EB830252F873
:104ED000542C0AB101330593A068059D4369002B4A
:104EE00040F0B680CEB1C3689E422DD00D9600F141
:104EF000080524E002234146029A06A800F0C6FFF6
:104F0000D8F8042006990346029231B101290AD14A
:104F100048B16C4A204601F0ABFA6FF0070528460D
:104F200027B0BDE8F08F059B002B34D0D8F80000E7
:104F300001F0E2FC98B166B1A5680D9608350CAE9B
:104F40000FCE0FC533682B602046FFF701FF012508
:104F5000E5E75D4A0121204601F08AFADDE7059B7D
:104F6000CBB129462046D8F8002001F083FE022864
:104F700009D1059B132B91D9069B022B8ED10121C0
:104F8000524B534AC6E7032805D0059B4FF0010B4F
:104F9000013305937BE7039B33B94846D8F80010EB
:104FA00007AA2EF0E3F9054608F10408013F9DB376
:104FB000EB68BBF1000F08D0F3B120462EF0EEFAFB
:104FC00020462EF08FFA434AC4E7ABB1AE46A36841
:104FD000DDF814A003F1080CBEE80F00ACE80F00E8
:104FE000DEF80030CCF80030AB682BB96B7CFE2BC0
:104FF00004BF2F7C07F1FF37D5F804C0BCF1000FC8
:1050000008D0AE460CAEBEE80F000FC6DEF800308A
:1050100033606646A94603E0059B53B10123039321
:10502000069B17B9022B7FF432AF059B0133059322
:105030002DE7A368DB6913B1DB68002BEED1264BAB
:10504000012100932046119B244A01F011FAE5E763
:10505000037EA5EB0A05B3B14FF6FF72417EFF292F
:1050600018BF0A469D4202D313449D420BD9836860
:10507000012120461A4A01F0FBF92046FFF768FE9D
:105080006FF015054BE701212EF08FF8A06800F5B1
:105090003E702EF0AEF8A36811AA294602EB8A02F0
:1050A00020465B6998470546A0684FF0FF324FF0F5
:1050B000FF3300F53E702EF076F80021A0682EF048
:1050C00074F82CE7379805004B980500AC9805005C
:1050D000B5AF05006998050098980500EA9B0500A2
:1050E000D098050038B5044650B91B4940F2E94252
:1050F0001A482DF0A4FD40F2E94117482DF098FD23
:1051000083680BB1406840B9134940F2EA42134842
:105110002DF095FD40F2EA41EFE7D3F86432DB076A
:1051200017D403685B689847054620B9E0682EF0FD
:10513000C8FBA3681D71A3685B6B13B129462046A9
:1051400098470022A368C3F80C232AF033FD02F02D
:10515000C3FB6FF00F05EEE7EB980500D68C05005A
:10516000022210B5836804461A7183689B6BBBB931
:105170002DF0D1FF8368D3F86432DB040BD5032113
:10518000084B094A01F074F9A0686FF4805100F5EA
:1051900019702DF0D4FF2046BDE8104001F08ABA06
:1051A00010BD00BF13990500DA9405002DE9F04FFA
:1051B0000446B1B050B9A54940F2BC52A4482DF004
:1051C0003EFD40F2BC51A1482DF032FD806840B94F
:1051D0009E4940F2BD529E482DF031FD40F2BD5136
:1051E000F1E7012100F519702DF09EFFA3681B79EE
:1051F000022B20D100230993A36860689E6B03688B
:105200001D6909AB0EB310221BA9A847099B93B1D6
:105210000121A0682DF0C9FF2046099A1BA9B047BB
:105220000021A0682DF0C1FFA3689B6B002BE3D188
:105230002046FFF795FF6FF00101A06800F5197097
:1052400031B0BDE8F04F2DF07ABF01220DF12301FE
:10525000A847099B002BEED09DF923109DF8233021
:105260000029A268C8DB5179032900F23C83DFE8FA
:1052700011F00400AB02D3023A030D2B55D00A2BD8
:1052800032D0B2F86412092B6FF3CA01A2F864128B
:10529000A0685FD013D8002BAED0082B00F0FA81A5
:1052A0006C495A1CD2B28A5CA06812F0970F00F0C9
:1052B000FD8101212DF084FF9DF823100DE11B2BB2
:1052C00045D07F2BECD1D0F860329D0794D50121D9
:1052D0002DF076FFA368D3F86032190700F1E28160
:1052E00020462EF0F4F987E7D2F86412C1F3C70123
:1052F00029B1D2F86412C1F3C7010A29D0D1B2F89A
:10530000641263F3CA01A2F86412A568A98FC1B937
:1053100028462DF055FFE0682EF0A5FA6069FFF7EA
:1053200027FD2046FFF71CFF66E7D2F86412C1F3A1
:10533000C7010029E3D0D2F86412C1F3C7010D29D7
:10534000DCE72046FFF76EFDC5F81003E9E701230F
:10535000437151E7D0F860329A077FF54DAF0121D4
:105360002DF02EFFA068838FFF2B3FF445AF002563
:10537000C28F00F1420100F5A1703DF03AF9A36837
:105380001BA9DA8F0BA8134483F84251A268142397
:1053900002F5A17200F07AFD0B9914293FF62CAFAB
:1053A00030AB03EB810343F8545CA368DFF8A8A09B
:1053B000DA8F134493F841301AF8033019B11B0700
:1053C00038D4012935D100250A950A9B30AA02EB71
:1053D000830353F854BC002658462DF0D1FE3746BF
:1053E0008146B04604964146284616AA00F02AFE99
:1053F0000346002832D1012ED4F8088076D10A9BCA
:1054000030AA02EB830353F8540C2DF0B9FE394651
:10541000064608F10802284600F014FE002836D19E
:105420000A4940F26F120A482DF009FC40F26F1150
:10543000C9E6013900200CAB009301900AAB1BAA0E
:105440002DF0BFFF05460028BFD1D5E6EB9805003B
:10545000D68C0500ED2B0600EE2B06001B684A4695
:105460005946184603933DF054FA68B9039B184611
:10547000FBF7D8FF049B834238BF03469BB2002E44
:1054800008BF47460493013608F10108ABE70568F9
:1054900028462DF075FE864205D0821B92B220462A
:1054A000A9192EF012F9A068C38F034493F8423073
:1054B0001AF8031011F0080113D1D0F86032DF0799
:1054C0000AD52DF087FE2021204601F0BDF80121EC
:1054D000A0682DF07FFE8FE62021204601F0B4F871
:1054E0008AE6012120462EF02FF885E605907FF60A
:1054F00083AE0A9A30AB03EB820252F8543CBA46B0
:10550000184603932DF03CFE059B0690A8F830301A
:105510000596A26851462846083200F093FD40B92E
:10552000B5494FF4DC72B5482DF089FB4FF4DC71BE
:1055300049E6039BD0F800B0D4F808900AF1010ABC
:10554000002B39D0BBF1000F39D019465846069AC6
:105550003DF0DFF90028DCD1A9482DF011FE049BB5
:10556000B9F82A2000EB03081FFA88F8121A92FBF8
:10557000F8F2584692B207922DF002FEB9F83010B8
:10558000079AA8EB0008481CA9F83000B1FBF2F01C
:1055900002FB101189B21FFA88F8002937D10621C1
:1055A0002046974B974ACDF800B000F061FF414686
:1055B000204600F027FE05E0BBF1000FCCD1002310
:1055C000A9F83030059B013B0593A2D16069FFF734
:1055D000CFFB204601F06EF80A9B30AA02EB830352
:1055E00053F8540C2DF0CCFD3946804611AA2846BC
:1055F00000F028FD07F10109074678B97E494FF40C
:10560000EA727E482DF01BFB4FF4EA71DBE55B4646
:10561000062120467C4A00F02BFFC8E7A0683968C5
:10562000FF2200F5A1703DF086F93B684FF6FF7749
:10563000BA4603934946284616AA09F1010B00F021
:1056400001FDD8B10022A168036801F2411111F8EF
:1056500001EF985C704503D110B101325245F6D18B
:10566000B8F1000F01D0424506DBBA42A8BF3A4666
:10567000013E012E97B201D0D946DBE7002F3FF45F
:10568000BBAD0399A7EB0802204692B241442EF02D
:105690001CF8B1E5D0F860329E077FF5ADAD012171
:1056A0002DF08EFD20462EF02DF8A5E5D0F86022D5
:1056B00092077FF5A1AD013B162B3FF69DAD01A2F0
:1056C00052F823F0B9580000215700002957000074
:1056D000E1520000AD58000047570000F9510000AA
:1056E000F9510000F9510000F95100004F57000036
:1056F00057570000F951000081570000F951000090
:105700008B570000F9510000F9510000F9510000D9
:10571000F95100008F570000F9510000B9570000FF
:1057200020462DF042FF67E520462DF037FF20464A
:105730002DF0C1FE10B96069FFF71AFB0121A068C6
:105740002DF03EFDEDE520462DF037FF54E52046D7
:105750002DF03CFF50E5D0F860329F0603D52B4971
:1057600060692DF013FDA368D3F860329E0603D55F
:10577000274960692DF00AFD204600F09BFF3BE5BC
:1057800000212046FFF7FAFA36E50121F9E7204625
:105790002DF0FEFE20462DF0BEFC0121A0682DF06C
:1057A0000FFDA368D3F860329D067FF525AD19493A
:1057B00060692DF0EBFC1FE5204600F0ABFE0121F7
:1057C000A0682DF0FDFC17E55B2B02D1022353717D
:1057D00012E5D2F86022900706D5622B08D14FF06F
:1057E000FF31204600F024FD0022A3685A7103E532
:1057F000662BF9D10121F4E7EB980500D68C050062
:105800008FCC050057990500DA940500893504000E
:105810008E3504008435040000215171A268D2F84D
:10582000601289077FF5E8AC313B1B2B3FF6E4ACF7
:1058300001A151F823F000BFB5580000C158000085
:10584000D5580000A9580000F9510000F951000096
:10585000F9510000F9510000F9510000F951000020
:10586000F9510000F9510000F9510000F951000010
:10587000F9510000F95100008B57000081570000DA
:105880004757000021570000F9510000AD580000B3
:10589000F9510000B9580000F9510000F951000019
:1058A000F9510000C55800000323537120462DF024
:1058B00075FEA1E40323537120462DF069FE9BE49D
:1058C00003235371A068D0F8601201F0010181F048
:1058D0000101FEE503235371A368D3F860329B07EF
:1058E0007FF58AACFCE4002371E700BF2DE9F043AB
:1058F000884615461F46044689B050B94A4940F2C9
:105900005F524A482DF09BF940F25F5146482DF016
:105910008FF9806818B163680BB1236843B94249B5
:105920004FF4AC6241482DF08AF94FF4AC61EDE7D9
:10593000D0F80C13002974D1237C013B012B08D92A
:10594000394940F2B24239482DF079F940F2B2417A
:10595000DCE74FF445723CF086FEA36822681A60CB
:10596000E0682EF022F8A06800F53E703CF001FCE3
:105970004FF42A794FF41A76A06830443CF0BAFD0F
:10598000A068002283190121484410362AF04EFDF8
:10599000B6F52A7F09F11409EED10026A369022188
:1059A0001E60A06866F3820500F519702DF0BCFB3F
:1059B0005022A3685A851822A3681A85D4F8089043
:1059C000D9F800002DF0DCFB89F82C00A3684146D3
:1059D000C3F860526068164A03681D682346A847EA
:1059E0000546D0B90122A3681A71D4E90A01002240
:1059F0000023CDE906230E230393109B4FF400628E
:105A0000CDE9017304950B4B009427F0E9FFA368DF
:105A1000C3F80C03616A27F041FE284609B0BDE8CF
:105A2000F0836FF07705F8E7EB980500D68C05005A
:105A3000F7310300C95A000010B5044650B91F4998
:105A400040F292521E482DF0FAF840F292511B4853
:105A50002DF0EEF8806818B163680BB1236843B984
:105A6000164940F2935216482DF0E9F840F293514E
:105A7000EDE70379012B1DD14FF0FF324FF0FF33DB
:105A800000F53E702DF08FFB2046082100F0B2FC9F
:105A900020682DF075FB18B10A4960692DF076FB7E
:105AA0002046FFF75DFBA06800F53E702DF0A1FBDE
:105AB000002010BD6FF08500FBE700BFEB980500EC
:105AC000D68C0500B9920500F8B50446406800215F
:105AD00003689B68984700283FD12046FFF7ACFF3A
