:10000000F0F40020D14A0000495B0200BD4A000024
:10001000BD4A0000BD4A0000BD4A0000BD4A0000C4
:100020000000000000000000000000009D4C0000E7
:10003000BD4A000000000000314C0000BD4A000035
:10004000814E0000814E0000814E0000814E000074
:10005000814E0000814E0000814E0000814E000064
:10006000814E0000814E0000814E0000814E000054
:10007000814E0000814E0000814E0000814E000044
:10008000814E0000814E0000814E0000814E000034
:10009000814E0000814E0000814E0000814E000024
:1000A000814E0000814E0000814E0000814E000014
:1000B000814E0000814E0000814E0000814E000004
:1000C000814E0000814E0000814E0000814E0000F4
:1000D000814E0000814E0000814E0000814E0000E4
:1000E000814E0000814E0000814E0000814E0000D4
:1000F000814E0000814E0000814E0000814E0000C4
:10010000814E0000814E0000814E0000814E0000B3
:10011000814E0000814E0000814E0000814E0000A3
:10012000814E0000814E0000814E0000814E000093
:10013000814E0000814E0000814E0000814E000083
:10014000814E0000814E0000814E0000814E000073
:04015000814E0000DC
:04015400FFFFFFFFAB
:100158007BB972B90029BEBF00204FF0004106E00C
:1001680008BF00281CBF6FF000414FF0FF3000F0BF
:1001780057B8ADF1080C6DE904CE002909DB002B56
:100188001ADB00F04FF8DDF804E0DDE9022304B0E3
:100198007047404261EB4101002B1BDB00F042F845
:1001A800DDF804E0DDE9022304B0404261EB4101DF
:1001B800524263EB43037047524263EB430300F040
:1001C80031F8DDF804E0DDE9022304B0404261EBD8
:1001D80041017047524263EB430300F023F8DDF816
:1001E80004E0DDE9022304B0524263EB43037047A5
:1001F80053B94AB9002908BF00281CBF4FF0FF3186
:100208004FF0FF3000F00CB8ADF1080C6DE904CEEA
:1002180000F008F8DDF804E0DDE9022304B07047D7
:10022800704700BF2DE9F04786468C460846089E71
:10023800154674461946002B40F0C1808542B2FA33
:1002480082F245D94AB1C2F1200300FA02FC954076
:1002580094402EFA03F343EA0C0C4FEA154EA8B269
:10026800230CBCFBFEF80EFB18CC08FB00F943EA94
:100278000C43994528D9EB1808F1FF3704D2994562
:1002880002D9A8F102072B44A3EB0903A4B2B3FBDC
:10029800FEFC0EFB1C330CFB00F044EA0344A042B6
:1002A80014D92C190CF1FF3304D2A04202D9ACF1B5
:1002B80002032C44241A43EA07401EB1D440002309
:1002C80034607360BDE8F0874746DDE76346F1E7D1
:1002D80092BB431B01214FEA154EAFB2200CB3FB72
:1002E800FEFC0EFB1C330CFB07F840EA0343984561
:1002F80061D9EB180CF1FF3004D2984502D9ACF162
:1003080002002B44A3EB0803A4B2B3FBFEFC0EFBD4
:100318001C330CFB07F744EA0344A7424DD92C19B8
:100328000CF1FF3304D2A74202D9ACF102032C44EA
:10033800E41B43EA0040C0E7C2F120039540944023
:1003480020FA03F12EFA03F34FEA154E9040AFB2AC
:100358000343B1FBFEFC0EFB1C10190C0CFB07F849
:1003680041EA0041884522D969180CF1FF3004D2CE
:10037800884502D9ACF102002944A1EB08019BB2DF
:10038800B1FBFEFC0EFB1C110CFB07F743EA014313
:100398009F420ED9EB180CF1FF3104D29F4202D9CB
:1003A800ACF102012B44DB1B41EA004193E76046B4
:1003B800E3E76146F7E76046A4E76346B8E78342A8
:1003C80006D916B9002108467CE7C6E900E0F9E736
:1003D800B3FA83F78FB9834201D3724508D8BEEBCD
:1003E800020460EB030301209C461EB9002169E763
:1003F8003846FAE7C6E9004CF8E7C7F1200CBB40DD
:100408000EFA07F522FA0CF42EFA0CF1BA401C4346
:1004180020FA0CF3B8404FEA144901431FFA84FE4E
:10042800B3FBF9F809FB18300B0C08FB0EFA43EA8A
:1004380000439A4540D9E31808F1FF3004D29A45A1
:1004480002D9A8F102002344A3EB0A0389B2B3FB43
:10045800F9F809FB183308FB0EFE41EA03418E4503
:100468002CD9611808F1FF3304D28E4502D9A8F1BE
:100478000203214443EA0040A1EB0E01A0FB0298CD
:100488004145CE46434602D306D14D4504D20138F4
:10049800B9EB020E68EB0403002EA7D0B5EB0E02F1
:1004A80061EB030101FA0CFC22FA07F3F9404CEA6C
:1004B8000303C6E9003199E74046C5E74346D9E753
:1004C80010F8012B11F8013B012A28BF9A42F7D0F6
:1004D800D01A7047034611F8012B03F8012B002AA4
:1004E800F9D17047034613F8012B002AFBD1181ADB
:1004F80001387047000000002DE9F04706460F4616
:1005080090468AB031F0F1FF4FF47A73A0FB0345AF
:1005180003FB0155E40B012F44EA45444FEAD53566
:1005280008D108213046CDE90045294A24F06DFB61
:10053800002013E0D8F8047026483946FFF7C0FFBA
:1005480078B139462448FFF7BBFF50B130463B46E7
:100558000121224A24F059FB6FF004000AB0BDE8DB
:10056800F087204618A3D3E900232946FFF7F0FDBA
:1005780005460C4610461946194A0023FFF7E8FDC0
:1005880080460F46104619464EF660220023FFF7B4
:10059800DFFD82468946104619464FF47A720023D9
:1005A800FFF7D6FDCDE904A9CDE90601CDE9082379
:1005B80008213046CDE90287CDE90054094A24F0E4
:1005C80024FBB5E7AFF30080005C260500000000BF
:1005D800864E0300974E03009A4E0300A34E030075
:1005E80080EE3600BA4E03000022014B1A607047B5
:1005F800C44E0020002370B586B0CDE90333CDF892
:1006080013304C4831F06BFD28B94B4823F043F9BF
:10061800002006B070BD494823F03DF9484C2046FB
:1006280031F05DFD002841D02569A6682B681721A7
:1006380043F400032B6020463368424A984701463A
:1006480018B1414823F027F9E2E7404823F023F99D
:100658003F49404B4B604FF400038B60F36933B163
:10066800012220469847014620B13B48EAE76FF04F
:100678005701FAE7394823F00EF9B66986B12B68B5
:10068800172113F4000F14BF4FF000734FF080636D
:100698004FF0A0722046B047014620B13048D1E75C
:1006A8006FF05701FAE72F4823F0F5F818F046FDE8
:1006B80007F0D6FF1DF062F82B4904461DF0DCFC5C
:1006C800002309211A46204627F00FFE274823F069
:1006D800E2F818F033FD07F0C3FF1DF04FF80023D0
:1006E80005211A46054627F000FE19F043FE114879
:1006F8001F4C83681F4E5B68984764222168B1FBD2
:10070800F2F302FB131149B900930B22334603A8F5
:1007180032F0ABF8284603A91DF0AEFC19F02AFE0A
:1007280023680133236000214FF4A47021F000FFF7
:10073800E3E700BFC02B0300024A0300224A03007C
:10074800702B030011000100354A0300594A0300C9
:10075800B84E0020F1050000644A0300864A0300F1
:100768009B4A0300C04A0300CE4A0300DB4A030049
:10077800C44E002068BC03002DE9F84380460F46AC
:10078800154600F0ABF8C36804461BB943691A78EC
:10079800002A4CD10023E3606368434557F82320BF
:1007A80008DB3D4B6361204600F07EF84FF0FF30D8
:1007B800BDE8F883511C616116782D2EF1D1911C8A
:1007C800616151782D29A16004D1927862B9013311
:1007D8006360E6E741B9304B31462846636132F041
:1007E80072F80028DFD0A660D4F808902846494659
:1007F80032F069F8B9F13A0F626900D0E0B91378BC
:1008080013B963680133636023685BB12B783A2BB3
:1008180008D0224803685A0704D04B46204A0121D1
:1008280024F056F8204600F03FF83F20C0E75A1C55
:1008380042611B788360D7E743783A2B0BD00023BB
:100848002361137813B9636801336360204600F0AD
:100858002BF8A068ACE7117866680F4B29B9013608
:10086800B045666004DD57F82620C4E90423EAE7AA
:1008780063612D783A2D04D1204600F015F82846FA
:1008880096E72368002BCDD0044803685B07C9D0DE
:10089800044A4B46C3E700BFE64F03004403002069
:1008A800EF4A0300044B03000268074B1A604268D2
:1008B800064B1A608268064B1A60C268054B1A60BC
:1008C8000269054B1A6070471C00002018000020C0
:1008D800D04E0020CC4E0020C84E00200048704763
:1008E800000000202DE9F04F91B0009302F00403BE
:1008F8000293C2F3C2030133840705460E46DDF8AE
:1009080068900392059340F0BB81041D30B107291C
:1009180009D86FF01B0011B0BDE8F08F01F0070691
:10092800341DC6F10806009B4FF000084FF0040A7A
:10093800591E4FF0FF3347460193C3465346CDF83F
:1009480010800DB1009A22600598002800F3E88015
:100958009848009A824203D397488242C0F0E080C8
:10096800039AA4EB050E92074FEA9E0000F103815B
:100978000F2F00F2B180002D00F0058107F1400231
:100988000DEB020C019A0CF8200C0CF8102C0498B2
:1009980001300490E7E07A285DD84B280ED8472824
:1009A80059D829282DD8252852D054D820287AD08B
:1009B8002338D0F1000B4BEB000B74E04C382E2899
:1009C80049D8DFE800F0704848484848484848484F
:1009D80048484B484848484848484859484B4B5964
:1009E8005959704B6D487048184B184848827F4BCE
:1009F80048484B487F0000204FF0000B4FF0040A96
:100A080038E001222A38C0B202FA00F010EA0E0FCC
:100A180049D110F0625C2FD110EA020B43D0604636
:100A2800013C5444B4FBFAF40AFB04F4002D61D0F1
:100A3800A3EB050CA4446645FFF46BAF002868D10E
:100A4800042B47D159F8043B2360042304342AE0DB
:100A5800019A013A01924FF0000B24E011F8010CC1
:100A68006C2834D1002011F8023C83466C2BC5D188
:100A78004FF0080A5346D3E709F1070929F0070997
:100A8800073424F00704F9E802AB35B1069820448E
:100A9800B0423FF63EAFC4E900AB4FF0000B08345C
:100AA8004FF0080A534611F8010F002878D0BBF11F
:100AB800000F7FF470AF2528F5D14FF0010B019B93
:100AC800013301934FF0040AECE7584694E70020FD
:100AD8008346A5E7082B02D06FF015001BE709F144
:100AE800070929F00709F9E80223C4E900230823C4
:100AF8000834D8E768B9042B02D109F10409A4E73E
:100B0800082BE9D109F1070929F0070909F10809B2
:100B1800EDE7059A013A059259F8042B009210E77F
:100B2800039A900720D54FF0010CA4EB050E4FEA6D
:100B38009E00BEF5007FCFD20F2FCDD8F5B107F1BB
:100B480040020DEB020E019AC0B20EF8200C0EF80E
:100B5800102CBCF1000F3FF41AAF60F07F000EF8C4
:100B6800200C08F101080137C5F108024FF6DA7EBA
:100B78000434069297E74FF0000CDAE7BCF1000F57
:100B880001D00136EFE7029802360028EBD1009831
:100B9800CDE90631FFF7A6FCDDE906310644E2E7B8
:100BA800631BB3F5806F97D245B9A6F10804E01826
:100BB800B1E600BFA02A0300C8C50300029A9B083B
:100BC80028602B709DF81030C2B1EB7085F8028058
:100BD800B8F1000F05D0002208A8C5F1010C974212
:100BE8000ED14FF0000AC5F101030DF12009019360
:100BF8000DF1300B574512D1601B8CE66B70E5E7A1
:100C080010F8013B190608D504EB0C0E764503F0E5
:100C18007F03FFF47EAE04F8013B0132DFE7B8F151
:100C2800000F03D099F90020002A17DB029BD3B1EB
:100C38001AF80B2004F8012B0022019B9818204475
:100C48008642FFF466AE99F80000009904F8010B9B
:100C58002046039231F0DEFE039A14440AF1010A99
:100C680009F10109C6E799F8002055F822300093E8
:100C7800029B009845F82230FFF734FC421CDCE761
:100C88006FF00D0047E600BF2DE9F04F95B000AFBB
:100C9800BB61BB6F0446C3F3C0038A4690F802B039
:100CA8007A623B6141B9457800780BEB80002044BB
:100CB800554517D8A0EB040AE3787B61BBF1000F18
:100CC80002D0BB6FD80716D47B6953BB7B6A1BB1B4
:100CD80051462046BA699847554628465437BD4676
:100CE800BDE8F08F461C3046FFF7FCFB013030446E
:100CF8000AF1010ADCE7237862683B629B00FB602B
:100D08003B6AFA6104EB83097B6A002B40F003819C
:100D1800C8460026554609EB0B0AD04555D1D9449B
:100D280013E0BB6F9907D1D5237899463B629B00A6
:100D3800FB60636804EB8909FB617B6A002B7ED149
:100D48005546BBF1000F53D15E46BB6F13F0050F3C
:100D58000CBF4FF0020B4FF0010B7B6909EB430A04
:100D6800BB6F03F002037B62D145B6D019F8021BB2
:100D780019F8013C54F82380AB4B984502D3AB4B90
:100D880098453CD33B69002B46D0F86922F05CFDBE
:100D9800002841D0A648036813F0060F13D0E84690
:100DA8008AB06A46A34B5361FB69C2E906314FF426
:100DB80000731384A04B42F8103F00234FF41251E4
:100DC80000F0E0FEC546023DCEE718F8013B54F8B6
:100DD8002300FFF787FBFB6F01303BB1D7F880306A
:100DE8009E423EBFFB6F23F816000136054494E788
:100DF800BB6F13F004061CBF7E6AD944A5E73B69A4
:100E080023B1F86922F020FD0028C3D1BB6FDA07AF
:100E180005D4A5EB0B05A7E77B6A002BA4D04046B9
:100E2800FFF760FBFB6F43B1D7F880309E423FBFAE
:100E3800FA6F431C22F816300136054494E7BBF1DB
:100E4800000F6ED0BB6F13F004066DD0D846002695
:100E580007F140005A46494631F0DCFD7B69D94428
:100E68005B007B607B6909EB4303BB60BB6F03F0EE
:100E780002033B60BB684B4558D1B96F6378B86FC4
:100E8800890748BF002106EB030258BF4FEA580103
:100E9800C507D2B200F19A8010F0040F14BF404683
:100EA8000020FB616270A070E1702046BA69F968A1
:100EB8007B6A9847051EFFF610AF3B6A41462370D0
:100EC800FB69BA6963707B6984F802B0E37007F163
:100ED80040007B6A9847B0F10008C0F2AF80FB6819
:100EE800AAEB0B01C91A7B684846C91ABA697B6A1A
:100EF80098470028C0F2A4804FF0000BA84408EBE4
:100F0800000507F1300AB34562D30021BA690846E3
:100F18007B6A9847E1E65E464FF0000807F130002B
:100F280098E75E46D84699E7B04697E719F8021B56
:100F38003D4B19F8015C54F82500984202D33B4B0D
:100F480098421DD33B6923B1F86922F07DFC002843
:100F580090D13B68FBB908F1280307F1280208F192
:100F6800010003EB020C07F1500308F1020853FAE1
:100F780080F00CF8101C5FFA88F800F8105C79E72C
:100F88003B692BB1F86922F05FFC00287FF472AF4F
:100F9800BB6FDB0709D506F1280307F12802711C8E
:100FA8009E1806F8205CCEB264E7BB6F58077FF541
:100FB80061AF08F1280307F1280208F1010103EBEA
:100FC800020808F8105C5FFA81F853E7002068E728
:100FD8001BF80A3054F8239087F82F30FB6FFBB1C9
:100FE80033F81B800121BA697B6A07F12F00984703
:100FF800002825DB0544B8F1000F06D14846FFF765
:1010080071FA00F101081FFA88F841464846BA69A2
:101018007B6A9847002813DB05440BF1010B72E744
:10102800D7F87C80DEE700BFA02A0300C8C503000C
:10103800300300202D4B03000400000145464CE618
:1010480005464AE6014B1860704700BF20000020A3
:1010580080B505460E461746984621F083FA0346A2
:1010680031F010FD0446DFF81890424649F8003088
:1010780039463046A84754F8090003F0A5FD00BFDB
:10108800080000002DE9F04F89468168044685B0C4
:10109800084622F080FF461C0A463346214665482A
:1010A80022F0F9FB644822F0F6FB00254FF0010B13
:1010B80004F10C0AB54236DBB9F1000F66D05F487F
:1010C80022F0E9FB0025DFF8789101222946204625
:1010D80022F03DFFC30757D42946204622F04EFF91
:1010E80000F12D062946204622F03CFF0022074643
:1010F8002946204622F02BFF2946A5EB000820466A
:1011080022F036FF3B46CDE9008032462946484664
:1011180022F0C1FBA368AB4238D02946204622F012
:1011280027FF0546D1E75AF8043F5BB30027194665
:10113800B84620460393029122F014FF804538BF39
:10114800804602990322204622F001FF039B0146B4
:10115800834207F10107ECD1A3680BFA05F2B3F556
:10116800004F34BF04230823013A03F10801C3EBFD
:10117800C803CDE9008302EBD1023B46294631483A
:1011880022F089FB013595E72A26ABE700212046A6
:1011980022F0EEFE0026D4F808800546B8F5004F88
:1011A8002CBF4FF008094FF00409374645451ED3B8
:1011B800B8F5004F34BF042208224FF47A7102EBCD
:1011C800C802BB19D31A500801FB03000A21B0FB5F
:1011D800F2F0B0FBF1F201FB12003946CDE9002034
:1011E8003246194822F057FB05B0BDE8F08F294672
:1011F8000122204622F0ABFE10F0010F29462046BE
:101208000BD022F0AFFEA6EB090606EBC006294676
:10121800204622F0ADFE0546C8E722F0AFFE0028C2
:10122800F5D12946204622F09DFEA7EB090707EBDA
:10123800C007ECE7E14B03000E4C0300E34C03004E
:10124800F14C0300C94C03001F4D03002DE9F04782
:10125800058B04462807904611D4022905F0070596
:1012680040F0CD80204622F0A7FE78B10138218BCE
:10127800042811D8DFE800F0C3106D859500012916
:101288000CBF45F0100545F02005258388F311882B
:10129800BFF36F8FBDE8F08701F0070AAA4500F099
:1012A800A6800027B9463E46A368002B00F0BD8003
:1012B80041F00801218388F31188BFF36F8FA1687B
:1012C800002900F0BB800D68002900F0B780334684
:1012D80052462046D1F80480C047002D76D02B68AE
:1012E80029461D46F0E701F007035A1F012A1BD8BB
:1012F800002221F00701062B276889B2C4E90022E1
:1013080009D13B4603E0628B013262831B68002BE4
:10131800F9D141F002012046218322F04DFE002838
:101328007BD041F0200177E0042B0AD121F007019E
:1013380089B22046218322F03FFE10B141F02001FE
:101348002183218B01F0070AAA4550D00027B9460E
:10135800AAE7236921F0070141F00601062DD3F819
:10136800009021832DD1B9F1000F40D041F0080140
:10137800218388F31188BFF36F8F20463949C84706
:1013880029E021F00701236941F0040189B2042D05
:10139800D3F804902183E6D000274FF0040A3E4694
:1013A80082E721F00701236941F0050189B2052D83
:1013B800D3F808902183D6D000274FF0050A3E467F
:1013C80072E700274FF0060A3E466DE72B4687E78F
:1013D800B9F1000FD1D14FF02003EFF3118883F357
:1013E8001288BFF36F8F238B23F008032383258B89
:1013F800EA062ED525F01003238305F00705666954
:10140800218B002EBFF66FAF00232768C4E9003395
:1014180021F0070141F001012183218B4FF00009E0
:1014280001F0070AAA457FF43FAF002F9BD041F097
:101438000801218388F31188BFF36F8F002FC7D06D
:101448003D68394633465246204622F0E1FD2F4694
:10145800F4E7AB067FF51AAF25F02003238305F0E8
:101468000705FFE645400200044608B54FF0200294
:10147800EFF3118382F31288BFF36F8F05F0FCFE40
:10148800204603F057FB034822F005FA03F0B2FCAC
:10149800FCE700BF674D03002DE9F0470446074607
:1014A8004FF00109DFF8508014B93846BDE8F087DD
:1014B80094FAA4F5B5FA85F509FA05F32E0108EBB7
:1014C80005156FEA030A24EA03042B7B002BEBD0F3
:1014D80058F806301B694BB94644736804222846FD
:1014E800196807EA0A0700F011FBDDE72846984764
:1014F8000028D9D1F0E700BF942E030030B50022B0
:1015080089B00F490F4830F0F2FF00220023002471
:10151800CDE906230E230C4DCDE903344FF4407278
:101528002846CDE90144094B0949009420F074FB91
:101538000849284620F0ACFA204609B030BD00BF63
:1015480061150000A0080020E003002069180000D1
:10155800B0D80020904D0300014820F091BC00BF96
:10156800C80300202DE9F04780461F480F4623F0A6
:1015780018F90646002830D000252846BDE8F0872F
:10158800237B73B12368DB680BB120469847236837
:101598001B69D3B9636804222046196800F0B6FABB
:1015A800013610344C45EBD3B8F1000FE5D0002DCF
:1015B800E2D02846FFF770FF0546002FF7D000213C
:1015C8004FF4A47020F0B4FFF1E7204698470028B4
:1015D800E0D00AFA06F31D43E2E705464FF0010A98
:1015E800024CDFF80C90DDE7E44E0020942E030057
:1015F800A42E030008B5034608462BB1044A13601D
:1016080000F064FD002008BD6FF01500FBE700BF87
:101618002400002010B5044C237813B9034820F0A7
:101628002FFC0123237010BD38D70020C8030020E9
:1016380010B50446064823F0B4F83CB1054BD3E88E
:10164800EF1F0139C3E8E21F002AF8D110BD00BF1F
:10165800DC4E0020E04E002000200146034BD3E87A
:10166800EF0FC3E8E21F002AF9D17047DC4E0020D3
:1016780070B5FFF7F1FF0546074C084EB44200D39A
:1016880070BD63685B792BB123685B6813B1294629
:10169800204698471034F1E7942E0300A42E030047
:1016A80010B5044C0449204622F00CFF034B1C6083
:1016B80010BD00BFE8020020882F0300D44E002090
:1016C80008B50023084A4FF400411370074A084838
:1016D8001360084A1360FFF78DFFFFF7E1FFBDE8CD
:1016E800084000F06BB900BF39D70020DC4E00205D
:1016F800A7470200E04E00200146002200230148CF
:1017080022F001BFE8020020014822F09ABF00BF82
:10171800E8020020024B0146186822F0E4BF00BF2F
:10172800D44E0020014823F01AB800BFE802002078
:10173800F8B5334B1878002860D0FFF7E5FF04466A
:1017480070B1304BD3E8EF1F0139C3E8E21F002A1C
:10175800F8D12D4D2D4EB5422DD32046FFF7DAFF97
:101768002B4B2C4C1B68002B19DD30F0BEFE4FF4C0
:101778007A72A0FB020302FB0131C30B43EA414327
:10178800D4E900209B1A40F2E9324FEAD13161EBEB
:101798000001934271F1000101D3FFF769FFD4E919
:1017A800003213F57A7342F10002C4E90032BDE851
:1017B800F840FFF7B7BF6B685B793BB121784B07FF
:1017C80006D52B68214628461B6898471035C2E77E
:1017D8002388626813F4E07FC3F38217C1F3C20160
:1017E800EFD0002AEDD00C4B2846D21A42F38F02D4
:1017F800012300F0A5F9B842E8D3E2E7F8BD00BF3D
:1018080038D70020E04E0020942E0300A42E0300B9
:10181800DC4E0020980800202C03002070B50D4DE8
:10182800297861B90120FFF79DFE0B4C0B4EB4429D
:1018380006D3FFF77DFF0028FBD101232B7070BD75
:1018480063685B791BB1236820469B68984710340E
:10185800EDE700BF39D70020942E0300A42E030023
:1018680000212DE9F0470846FFF77CFE044658B3EF
:1018780040F267684FF0000931F004F91B4B1C4A2D
:101888001B58136033B11B4B1B68092B02DD1A4828
:1018980020F0F6FA0025194FDFF85CA044B1204685
:1018A800FFF7FAFD044618B94FF0FF384FF0FF393B
:1018B800FFF73EFF064628B9B5B942464B465046A3
:1018C80020F004FB3546E9E74FF0FF384FF0FF39C9
:1018D800D2E72B689B691BB100222846114698471E
:1018E8001035BD42F5D3E8E7054DFAE708000000DA
:1018F800D84E0020E04E0020C8030020A42E03008C
:10190800942E030013B5184822F04BFF174B1B7891
:101918007BB14FF02003EFF3118483F31288BFF3F8
:101928006F8FFFF705FF84F31188BFF36F8F02B045
:1019380010BD0F4B1B68002BF9D050B900220023B3
:101948000C48CDE900234FF40042002320F0EEFFBD
:10195800EDE70928EBD1074830F0D5FD064802B07D
:10196800BDE8104020F08CBAE04E002039D70020A6
:10197800D84E0020A0080020C803002010B5064B50
:1019880004461B6898472146A060044822F039FEA7
:10199800BDE81040FFF7B6BF24000020E802002091
:1019A800044A054B9B1AB1EBD30F34BF52F83100F0
:1019B80000207047FC2D0300942E030000210B48E3
:1019C8000B4B30B51B1A0B4CDB080430994200D185
:1019D80030BD10F83120256802F0070225F0070510
:1019E8002A4344F8042B0131F0E700BFFC2D030023
:1019F800942E03002C030020F8B5064600240A4F55
:101A08000A4DED1BED08AC4203D14FF0FF342046E0
:101A1800F8BD57F8340020B13146FEF751FD0028D3
:101A2800F5D00134EFE700BFFC2D0300942E03002E
:101A38002DE9F843884615461E4698B90446224FB4
:101A4800DFF8889009E0384633462A464146FFF7D2
:101A5800EFFF844238BF044610374F45F3D3204682
:101A6800BDE8F8831A4B1B4AD21AB5EBD20F28D21D
:101A780003EBC5031C79B44228BF344607214368E9
:101A8800154E1A7956F8253002EB4202914023EAA6
:101A9800010304F0070101FA02F2134300210322B3
:101AA80023FA02F000F00700814202F1030238BF76
:101AB80001461E2AF4D123F007030B4346F82530CC
:101AC800CDE70024DAE700BF942E0300A42E03001C
:101AD800FC2D0300942E03002C030020F8B50646C5
:101AE8000F460024074D084BED1AED08AC4200D311
:101AF800F8BD002122B23B4630460134FFF798FF7B
:101B0800A4B2F3E7942E0300FC2D030038B50D466C
:101B180011460A4B4268C31A1B110446013313715C
:101B280043689971FFF7DAFF012263681D606368F3
:101B38005A71BDE83840FFF76DBD00BF942E030011
:101B48000146184663B1002A14DB4B680A491B7921
:101B580051F8220003EB4303D84000F00700704718
:101B6800064B0749C91AB2EBD10F04D203EBC203E3
:101B780018797047042070472C030020FC2D0300BF
:101B8800942E03002DE9F04F8FB0C1F34A2804AF1B
:101B98000D469146B8607B600C0DB8F1000F67D018
:101BA80000264FF0040B4FF00A0A07F11403C7F898
:101BB8000C80C7E907667E620193CDF808B0CDF8BE
:101BC80000A007F11C0332464846F968FFF75CF8A5
:101BD800B0F5006F034620D32A48036813F0060FB8
:101BE80017D06C468AB0D9F8041004AB264D1A46B3
:101BF800C3E9055140F2FF71D9614FF400711984AE
:101C0800224B42F8103F4FF412513346FFF7BAFF08
:101C1800A5462C37BD46BDE8F08FC0F30A0804F18D
:101C28001700184420F0070080083B60FFF764FDA8
:101C380068F35325044690B13B6800F11001C7E9E9
:101C4800083607F11403F961CDE900A3CDF808B00F
:101C580048460F4AF96807F11C03FFF715F868F3BF
:101C680053252A4620467B68B96822F0D8FDD0E77C
:101C780004F1170020F007008008FFF73DFD044637
:101C8800EDE700BF48030020A54D03000400000154
:101C9800FB4702002DE9F04F87B00446DDE9105AF2
:101CA800DDE912690F4693469846A6B310213346DC
:101CB80052460020CDF80090CDF81490FEF712FEA1
:101CC800014605F117000844144B04F007040BF013
:101CD800070BE40020F0070003EA412344EA8B14D1
:101CE80080081C430391FFF707FD44EA05540546A5
:101CF80040B13EB1334652460399CDF800901030BA
:101D0800FEF7F0FD434622463946284607B0BDE8AF
:101D1800F04F22F084BD3146D3E700BF00FE0F002C
:101D28000EB403B503AB53F8042B014604480193E2
:101D380003F0D4FA02B05DF804EB03B0704700BFBB
:101D480021490200CA0605D48B064CBF0249034943
:101D5800FFF7E6BF704700BFE54F0300E44D0300FF
:101D68002DE9F04F89B09B46DDE916769DF84C3099
:101D780004460493DDE914930593049B0D460692EB
:101D8800002B00F0878006F00803079322F023FD5C
:101D980006F0020A024600284BD020468549FFF784
:101DA800BFFF8046BAF1000F08D016F0440F42D1A9
:101DB8002A4620468049FFF7B3FF804406F0010316
:101DC8005BB17E4B049A204653F822207C4B7D4918
:101DD800002A08BF1A46FFF7A3FF06F00803002BE6
:101DE80055D0794B049A204653F822207749FFF7BB
:101DF80097FF0546069B2BB11A4620467449FFF704
:101E08008FFF0544BBF1000F05D05A4620467149A3
:101E1800FFF786FF05444544B9F1000F49D1002F6B
:101E28004FD1F30700F1C08031462046FFF78AFF03
:101E3800B4E08046B6E7684B18680028BDD0674B09
:101E48004FF47A7E1B684FF46162B5FBF3F5B5FB7E
:101E5800F0F300FB13550EFB05F5B3FBF2FAB5FBE7
:101E6800F0FC3C2102FB1A3200FB1C55B2FBF1F3DB
:101E78000EFB05F5B5FBF0F501FB13222046009299
:101E8800CDE901C552465649FFF74AFF95E706F0E6
:101E98000805AFE7BBF1010F06D1B9F1000F64D116
:101EA800002F7BD000250CE0B9F1000FF8D04D4889
:101EB8005CE04D484B4622464C4921F094FC002FEB
:101EC80068D0DFF82C91DFF82CA1102F314620467E
:101ED800B8464FF0000B28BF4FF01008FFF732FF4D
:101EE8005D4545DC059B514620461A78FFF718FFEB
:101EF8004FF0010B1BF0070F03D149462046FFF7AF
:101F08000FFFD8453BD9059B5146204613F80B20B7
:101F1800FFF706FF0BF1010BBBF1100FEAD14FF0F1
:101F2800000B20463449FFF7FBFE5A46059B204626
:101F38009A5CA2F120015F2928BF2E222F49FFF7C2
:101F4800EFFE0BF1010BBBF1100F1DD01BF0070FBB
:101F580003D149462046FFF7E3FED8455A46E5D85F
:101F680049462046FFF7DCFEEBE71F48049DA1E742
:101F780049462046FFF7D4FE0BF1010BB0E7204697
:101F88001F49FFF7CDFEC5E7059BB7EB080743449C
:101F980005939AD1049B002B7FF443AF204609B0E8
:101FA800BDE8F04F22F0ABBC2046054A0549FFF7D3
:101FB800B7FE39E7EC4D0300F04D03009C2F0300FA
:101FC800E74D030052520300B02F0300154E0300E3
:101FD8001B4E03001F4E0300EC4E0020E84E00206D
:101FE800F94D03004F49020021490200E552000063
:101FF8002C4E0300244E03002E4E0300014B030019
:102008002A4E03002DE9F0410F884B6805460C461F
:1020180090468E6886B0C7F382175BB1144A9B1A44
:1020280043F38F01002920DB2078C0F3C200FFF7BB
:10203800B7FC0346214651F8102B6088C2F34A22A8
:10204800002A01EB020408BF00210022C0F30B1094
:10205800CDE90408CDE902142846314601970092DB
:10206800FFF77EFE06B0BDE8F0810023E2E700BF7F
:102078002C03002042F20F7373B58B4228BF0B4626
:1020880005680446052168460D4A20F0FFFF06460C
:102098006368284604225B680A4922F023FC6368C7
:1020A8003246694628465B6822F01CFC63681722A2
:1020B80028465B68044922F015FC02B070BD00BFD9
:1020C80068BC0300484E0300304E03000021012382
:1020D800064A904206D8064A01B901231360054B07
:1020E80018607047012140085B00F2E740420F008A
:1020F800E84E0020EC4E0020014B036000207047A2
:10210800C42F030013B504461FF0FEFDC0F30723D8
:102118000193C0F3074300930821030E034A2046A6
:1021280022F073FD002002B010BD00BF6D4E030009
:1021380010B5044605F096F808210346074A2046DC
:1021480022F063FD2046064A082122F05EFD214662
:1021580004481FF065FC002010BD00BF084F0300B5
:10216800274F03007121000070B58EB004460D465C
:10217800D0F89C6030F013F8024630F083FC254B11
:102188001958254B2846002A18BF1346234ACDE97B
:102198000043234B8C4218BF13460821214A22F0E2
:1021A80034FDD4E90A23CDE9022394F90E302846F8
:1021B8000093237B08211C4A22F027FD06A9202230
:1021C80020461FF075FC626E0346009208212846DF
:1021D800164A22F01AFD204605A92FF0F0FF034603
:1021E80030B108212846124A22F00FFD0EB070BD0A
:1021F8006423059A2846B11A4B43B3FBF6F3CDE99D
:102208000021CDE90263082133460A4A22F0FDFC89
:10221800ECE700BF08000000314F03002C4E03001C
:10222800AF620300344F0300404F03006C4F0300BC
:10223800834F0300B04F0300F0B50025044693B068
:1022480029460AAF1C220BA830F00BFC134E1A22A9
:102258002021384630F005FC214611481FF0E0FBEC
:1022680009AA4FF4006130462FF09DFF64224FF415
:1022780000630999CDE90057C1F500604243D20ACD
:10228800CDE90403CDE90231204606923346082100
:10229800044A22F0BAFC284613B0F0BDB0E300208F
:1022A800A1230000E74F030010B5044624F074FA98
:1022B80008210346024A204622F0A7FC002010BD50
:1022C800305003002DE9F3411746002304460A2144
:1022D800B86801AA019301F04FFB019DC6B255B140
:1022E8002B4601212046144A22F08FFC019D2846E6
:1022F80002B0BDE8F081042E0AD9334601212046F8
:102308000E4A22F082FC204622F09CFC0125EEE7D2
:102318007868FFF771FBB0F1000805DA0121204663
:102328007B68074A22F071FC0021334608460FFA01
:1023380088F2FFF77DFBDAE7465003006D50030093
:10234800845003001346002273B5044601920A2103
:10235800586801AA01F010FB019D95B920EAE074C4
:102368004FF40046294640F2E7304FF47A720023D2
:10237800C4FB0601FDF73CFF20F0DAF8284602B05E
:1023880070BD2B4601212046024A22F03EFC019DE9
:10239800F4E700BFA3500300F0B504460D46D0F89B
:1023A8009C6089B007A92FF00AFF034630B10821C5
:1023B80028460F4A22F029FC09B0F0BD20462FF02C
:1023C800EEFE6423079A0B4FB11A4B43002818BF3F
:1023D8000746B3FBF6F3CDE90221CDE904630821F2
:1023E80023462846CDE90076034A22F00EFCE3E7AF
:1023F800834F0300314F0300C35003002DE9F0431E
:1024080087B0054668461FF039F91423009E082155
:1024180003FB0066164A284622F0F7FB154F009C7E
:10242800DFF85480DFF85490B44203D3002007B09B
:10243800BDE8F08323680BB11A7832B923463A46CF
:10244800142101A820F022FE01AB424608212846AB
:1024580022F0DBFB20462FF042FE094B0821002822
:1024680008BF4B46074A284622F0CFFB1434DBE767
:10247800415203004B5203005052030038520300EC
:1024880032520300C35803008B1E022B2DE9F04182
:1024980007468846144637D810220021606820F085
:1024A80097FEB8F1020F064607D1202308213846C7
:1024B800244A22F0AAFB336816E00A220021A06809
:1024C80020F086FEC5B22B46082138461D4A22F068
:1024D8009CFBB8F1040F1AD0102D0DD0202DEAD096
:1024E800082D0CD13378DBB208213846164A22F081
:1024F8008CFB0020BDE8F08133889BB2F4E708210B
:102508003846124A22F081FB6FF01500F2E71022DC
:102518000021E06820F05CFE0821034604460C4ACE
:10252800384622F072FB102D06D0202D07D0082D3A
:10253800E5D1E4B23470DCE7A4B23480D9E7346082
:10254800D7E700BF89520300B45203009E5203002C
:10255800C55203002DE9F04F4FF0FF359146012297
:102568000746884620262C46544BDFF854A185B0F0
:102578001A60494652464046FEF7FEF8411C07D10C
:102588006A1C52D14F4A0121384622F03EFB1DE019
:10259800732820D0772833D0612817D1DFF828B1E5
:1025A80010220021DBF8000020F012FE054600286A
:1025B800DFD130F067FA454B1B58162BD9D1DBF821
:1025C8000030434A0121384622F01FFB6FF0150006
:1025D80005B0BDE8F08F0022DFF8ECB01146DBF85B
:1025E800000020F0F5FD04460028C2D130F04AFA78
:1025F800364B1B58162BBCD1DBF80030354AE1E7C7
:102608000022DFF8C4B01146DBF8000020F0E0FD3E
:1026180006460028ADD130F035FA2C4B1B58162B46
:10262800A7D1DBF800302C4ACCE7631C01D12B4A38
:10263800A9E75FFA86F8C6F3C406002C3CD06B46BF
:1026480029461A46A6EB050C0CE0B8F1100F1DD070
:10265800B8F1200F20D0B8F1080F2AD108781870E7
:1026680031443344A64203D80CEB01001028ECD9BE
:10267800102CA14628BF4FF0100929464B46384672
:1026880001F0BAF81035A4EB0904D6E7088880B23F
:102698001870000A5870E3E708684FEA102E18709F
:1026A80083F801E04FEA104E000E83F802E0D8707C
:1026B800D6E708210A4A67E7204689E7180000207C
:1026C800135303001A530300C84E00200C000000E7
:1026D800D9520300EC520300FF52030037530300A2
:1026E8009E52030070B5104E04460D46337881B1F2
:1026F8002BB10121BDE870400C4A22F086BA0123B3
:102708003370082120460A4A22F07FFA01233370E9
:1027180004E083F001033370002BF2D129462046F0
:10272800BDE8704022F0ABBA3AD7002051530300FD
:102738008C53030070B504463C480378182B02D12B
:102748000B78112B31D00B46013A8D18AB4225D1AD
:102758008B5C0A780370A2F13003092B344C04D93E
:1027680022F02003413B052B04D823683149CA5481
:10277800013323602368022B34D1102200212D4815
:1027880020F026FD2C4A136803F8010B13602B4A2E
:102798001368013313600023236023E013F8016BEF
:1027A800182ED3D11E78112ED0D1244D08212B6894
:1027B8002046234A22F029FA20460021FFF792FFFB
:1027C800204B187870B9204A2B681168042B0ADC52
:1027D80008B111602B6013F003010BD11268136864
:1027E8001BBA136070BD0868043B00BA41F8040BBB
:1027F8000120EBE75B4203F0030358BF594202296B
:1028080004D1126813885BBA9BB2EAE70329E9D1BD
:10281800106802681104C2F3074301F47F010B43F7
:1028280002F47F4213430360DCE700BF3BD700207C
:10283800F04E00203DD70020FC4E0020F44E002032
:10284800B65303003CD70020F84E00202DE9F84F7E
:102858000023064615460C462949DFF8A8800B6078
:102868002949DFF8A890DFF8A8B088F800300B6095
:10287800012C2F4655F804AF1ED90222494650466E
:1028880030F02EF880B99AF80220003A18BF0122D9
:102898009244504602221F4930F022F830B90123F1
:1028A80088F80030013CE3E70022F1E7494650464A
:1028B800FDF706FEA8B9043700227868114620F013
:1028C80011FC0022144B11461860786820F00AFCAD
:1028D800124B134918603046FFF704FF0020BDE88B
:1028E800F88F9AF800202D2AE6D19AF80120002ABC
:1028F800E2D053465A460821304622F086F9D1E7FD
:10290800F04E00203CD70020F44E0020D0530300A6
:10291800D6530300D3530300FC4E0020F84E00208A
:102928003D27000007B50A482FF0D9FB60B1042302
:10293800084A0093126801230549074800F02CFE55
:10294800002003B05DF804FB6FF01200F9E700BF48
:10295800842B030064310300A42E030010B54468DF
:10296800A3604023C4E9001242680821D364114BD4
:10297800D162136300231049C2E90E33C2E911334F
:10298800C2E90633C2E90933146853631364116159
:1029980053611362C2F88830A36823B11B6C13B16A
:1029A800204606499847A3681B6A0BB120469847FA
:1029B800002010BDF8FA0020F0FA0020C929000014
:1029C8002DE9F74304460D468368DB6B03B198474E
:1029D800A368DB6A0BBB4FF0000905F130084046DD
:1029E800EA6C01A921F0D0FB0746002836D0A3687D
:1029F80001991B693BB3024620469847064628B30F
:102A08003146404621F0DDFBB7424FF00109E6D0E0
:102A18000020D5E90131984703E02046984700286F
:102A2800D9D1A368DB6963BB05F110073846EA6AA8
:102A380001A921F0FAFB064650BB204621F0A9FF68
:102A4800C5F888602FE06FF05706D9E70146404681
:102A580021F0B7FBB9F1000FE3D0D9E716480368B6
:102A680013F0060F03D00221144A21F028FFA368AF
:102A78001B69002BEED0012220460DF10301984777
:102A8800E8E7204698470028CED103B0BDE8F08398
:102A9800A3680199DB685BB1024620469847014666
:102AA800384621F0DEFBD5E9013101209847ECE7F3
:102AB8006FF05701F4E700BF6403002037550300A7
:102AC80010B504468168083101F080F9A1682046F4
:102AD800BDE81040014A083101F01EB979550300DC
:102AE80038B583680446D3F86432DB071DD4C0695F
:102AF80022F0B6FD606803685B689847054620B910
:102B0800E06822F058FFA3681D71A3685B6B13B1DE
:102B180029462046984700222FF0B4FFA368C3F83F
:102B28000C23034B185802F04FF86FF00F05ECE731
:102B380008000000014921F0C0BF00BFE54F0300B5
:102B4800F7B5044680680D46D0F864325A0705D5B3
:102B5800002121F0D6FFE06822F0FFFEE368DB6881
:102B680073B9002D39D0A66806F14207384621F01E
:102B78009EFF002833D0394606F5A170FDF7AAFC60
:102B8800A2682946E0680DF10603423222F0E8FE09
:102B980058B9A06800F5A1714230FDF79BFCA06808
:102BA800423021F084FFADF80600204622F04CFBAD
:102BB800A368D3F860329B0603D50A49606921F0FF
:102BC8007CFF204600F040FFA268BDF80630204692
:102BD800D387A268938722F0A3FA03B0F0BD86F8E2
:102BE8004201CDE7282F03002DE9F04FA7B0044696
:102BF8005422002111A82FF034FF0023CDE905331A
:102C0800A36820464233029322F024FB204622F098
:102C180070FA10B96069FFF78DFF00264FF0FF3793
:102C2800B246B3463546B146A068142200210830A2
:102C38002FF017FF204622F008FAA168E0688A8F73
:102C4800423122F0C4FE204622F043FF0DF1440831
:102C58000396DDE90532012A6DD0132B6ED85FBBD0
:102C6800BBF1000F0AD0204622F053FF1423A268BC
:102C780011A942320DEB030022F067F8B9F1000FF9
:102C88000CD099F81130FE2B08D1059B26AA02EB2F
:102C9800830252F8542C0AB101330593A068059DAC
:102CA8004369002B40F0B680CEB1C3689E422DD058
:102CB8000D9600F1080524E002234146029A06A871
:102CC80022F043F8D8F8042006990346029231B15D
:102CD80001290AD148B16C4A204622F05FFB6FF007
:102CE8000705284627B0BDE8F08F059B002B34D098
:102CF800D8F8000001F08AF898B166B1A5680D9679
:102D080008350CAE0FCE0FC533682B602046FFF791
:102D1800D7FE0125E5E75D4A0121204622F03EFB6A
:102D2800DDE7059BCBB129462046D8F8002001F005
:102D38001DFA022809D1059B132B91D9069B022B5A
:102D48008ED10121524B534AC6E7032805D0059B73
:102D58004FF0010B013305937BE7039B33B94846DA
:102D6800D8F8001007AA22F0E7F8054608F1040889
:102D7800013F9DB3EB68BBF1000F08D0F3B12046CB
:102D880022F068FA204622F0CBF9434AC4E7ABB1F7
:102D9800AE46A368DDF814A003F1080CBEE80F00E6
:102DA800ACE80F00DEF80030CCF80030AB682BB987
:102DB8006B7CFE2B04BF2F7C07F1FF37D5F804C0CE
:102DC800BCF1000F08D0AE460CAEBEE80F000FC62F
:102DD800DEF8003033606646A94603E0059B53B130
:102DE80001230393069B17B9022B7FF432AF059B8F
:102DF800013305932DE7A368DB6913B1DB68002B6A
:102E0800EED1264B012100932046119B244A22F043
:102E1800C5FAE5E7037EA5EB0A05B3B14FF6FF72E5
:102E2800417EFF2918BF0A469D4202D313449D42A2
:102E38000BD98368012120461A4A22F0AFFA2046AE
:102E4800FFF73EFE6FF015054BE7012121F04EFE1E
:102E5800A06800F53E7021F06DFEA36811AA29460E
:102E680002EB8A0220465B6998470546A0684FF046
:102E7800FF324FF0FF3300F53E7021F02BFE0021AA
:102E8800A06821F033FE2CE7875503009B5503000B
:102E9800FC5503009F500300B9550300E855030093
:102EA800DB58030020560300022210B5836804464D
:102EB8001A7183689B6BBBB921F0C4FD8368D3F892
:102EC8006432DB040BD50321084B094A22F066FA69
:102ED800A0686FF4805100F5197021F0C7FD2046F5
:102EE800BDE8104000F0FABE10BD00BF3B5603001D
:102EF800525203002DE9F04F044680680121B1B019
:102F080000F5197021F0A7FDA3681B79022B20D1C9
:102F180000230993A36860689E6B03681D6909AB69
:102F28000EB310221BA9A847099B93B10121A068E1
:102F380021F0DCFD2046099A1BA9B0470021A068B2
:102F480021F0D4FDA3689B6B002BE3D12046FFF74B
:102F5800ABFF6FF00101A06800F5197031B0BDE852
:102F6800F04F21F083BD01220DF12301A847099BF1
:102F7800002BEED09DF923209DF82310002AA3688A
:102F8800C8DB5A79032A00F28D82DFE812F00400C8
:102F98007A0291028B020D297BD00A2958D0B3F806
:102FA800642209296FF3CA02A3F86422A06800F01A
:102FB80085803DD80029ADD0082900F0F18103466D
:102FC800D3F860229207A5D501391629A2D801A203
:102FD80052F821F059350000E3330000EB330000CC
:102FE800DB3300004D350000093400001D2F0000C0
:102FF8001D2F00001D2F00001D2F000011340000A0
:10300800193400001D2F0000433400001D2F00005C
:103018004D3400001D2F00001D2F00001D2F000043
:103028001D2F0000513400001D2F00007B340000CC
:103038001B2940D07F2900F0BF81A1F120025E2A20
:103048000346BDD8012121F05CFD9DF82310B1E0B5
:10305800D3F86422C2F3C7022AB1D3F86422C2F3B8
:10306800C7020A2AACD1B3F8642261F3CA02A3F8F2
:103078006422A568A98FC1B9284621F042FDE068FD
:1030880022F06BFC6069FFF755FD2046FFF70CFF47
:1030980040E7D3F86422C2F3C702002AE3D0D3F88A
:1030A8006422C2F3C7020D2ADCE72046FFF79CFD25
:1030B800C5F81003E9E7012343712BE7D0F8603224
:1030C8009B077FF527AF012121F01BFDA068838FA7
:1030D800FF2B3FF41FAF0025C28F00F1420100F51E
:1030E800A1702FF097FCA3681BA9DA8F0BA81344D3
:1030F80083F84251A268142302F5A17221F025FE3B
:103108000B9914293FF606AF30AB03EB810343F864
:10311800545CA368DA8F134493F84130202B02D013
:10312800093B042B4AD800294BD100250A950A9B54
:1031380030AA02EB830353F854AC0026504621F022
:10314800B6FCB3468146B04637463946284616AAE5
:1031580000F0D8FB034600283FD1012EA76864D1B0
:103168000A9B30AA02EB830353F8540C21F09FFC0E
:103178004146064607F10802284600F0C3FB0568E9
:10318800284621F094FC864205D0821B92B2204644
:10319800A91922F043F9A068C38F034493F8423079
:1031A800202B31D0093B042B2ED9D0F86032DF0711
:1031B8002FD42021204600F05BFDABE60129B4D9CD
:1031C800013900200CAB009301900AAB1BAA21F037
:1031D800DEFE05460028AAD19CE61B684A465146F1
:1031E800184603932FF07CFB60B9039B1846FDF744
:1031F80079F9584538BF5846002E08BFB8461FFA17
:1032080080FB01360137A0E70121204621F0BAFFF3
:1032180080E6002121F07FFC2021204600F028FDD7
:103228000121A06821F077FC74E604907FF672AE65
:103238000A9A30AB03EB820252F8543CC146184656
:10324800039321F034FC049B05903B860496A26806
:1032580049462846083200F055FB039BD0F800A0E9
:1032680009F101094BB1BAF1000F06D019465046D1
:10327800059A2FF035FB0028E9D1A168BAF1000FB3
:103288004DD1A1F830A0049B013B0493DFD16069C4
:10329800FFF750FC204600F021FD0A9B30AA02EB04
:1032A800830353F8540C21F002FC414611AA8146CD
:1032B800284600F027FB0746A0683968FF2200F57A
:1032C800A1702FF01FFB3B684FF6FF7708F1010A4A
:1032D800B84603935146284616AA0AF1010B00F096
:1032E80011FB002850D00022A168036801F24111A7
:1032F80011F801EF985C704503D110B101324245D5
:10330800F6D1B9F1000F01D04A4506DBBA42A8BF91
:103318003A46013E012E97B236D0DA46DAE79848A7
:10332800069121F0C4FB069900EB0B074A8DBFB24A
:10333800121A92FBF7F2504692B20791069221F0C8
:10334800B6FB07993F1A088E069A00F1010CA1F8FE
:1033580030C0B0FBF2F102FB110080B2BFB260B91D
:1033680006212046864B874ACDF800A022F016F8A1
:103378003946204600F052FB85E753460621204691
:10338800814A22F00BF8F3E7002F3FF4C3AD03990D
:10339800A7EB0902204692B2494422F03FF8B9E56A
:1033A800D0F860329E077FF5B5AD012121F0A9FB69
:1033B800204622F050F8ADE5D0F860329D077FF541
:1033C800A9AD012121F09DFBA368D3F8603219074C
:1033D800EED4204622F024F89CE5204621F041FF57
:1033E80098E5204621F036FF204621F082FE10B9EC
:1033F8006069FFF79FFB0121A06821F082FB44E68A
:10340800204621F036FF85E5204621F03BFF81E587
:10341800D3F860329B0603D55C49606921F04DFB07
:10342800A368D3F860329F0603D55949606921F033
:1034380044FB204600F052FC6CE500212046FFF7D3
:103448007FFB67E50121F9E7204621F0FDFE2046D4
:1034580021F0F8FA0121A06821F053FBA368D3F802
:1034680060329E067FF556AD4A49606921F025FB1A
:1034780050E5204600F062FB0121A06821F041FBE5
:1034880048E55B2902D102225A7143E5D3F860323C
:103498009D0706D5622907D14FF0FF31204621F05C
:1034A80095FEA3680022EFE76629FAD10121F5E726
:1034B80000225A71A268D2F8603298077FF52AADC7
:1034C800A1F131031B2B3FF625AD01A151F823F0E3
:1034D800553500006135000075350000493500009C
:1034E8001D2F00001D2F00001D2F00001D2F0000A4
:1034F8001D2F00001D2F00001D2F00001D2F000094
:103508001D2F00001D2F00001D2F00001D2F000083
:103518004D3400004334000009340000E333000058
:103528001D2F00004D3500001D2F000059350000EB
:103538001D2F00001D2F00001D2F00006535000005
:1035480003235371204621F085FEE3E403235371DE
:10355800204621F079FEDDE403235371A068D0F8FA
:10356800601201F0010181F001015BE60323537150
:10357800A368D3F860329B077FF5CCAC29E700BF7E
:103588002B4E03007F560300525203002D2F0300D9
:10359800322F0300282F03002DE9F04304468068EA
:1035A8008846D0F80C1315461F4689B0002967D104
:1035B8004FF445722FF055FAA36822681A60E06844
:1035C80022F06DFAA06800F53E702EF011FE4FF45F
:1035D8002A794FF41A76A06830442FF0F8F8A068DA
:1035E800002283190121484410362FF0C6F8B6F599
:1035F8002A7F09F11409EED10026A36902211E6071
:10360800A06866F3820500F5197021F024FA5022AB
:10361800A3685A851822A3681A85D4F80890D9F89F
:10362800000021F044FA89F82C00A3684146C3F849
:1036380060526068144A03681D682346A847054617
:10364800D0B90122A3681A71D4E90A010022002323
:10365800CDE906230E230393109B4FF40062CDE9B6
:1036680001730495094B00941EF0D6FAA368C3F8B9
:103678000C03616A1EF00CFA284609B0BDE8F08315
:103688006FF07705F8E700BFE14A0200ED36000069
:1036980010B5044680680379012B1DD14FF0FF3225
:1036A8004FF0FF3300F53E7021F014FA2046082150
:1036B80000F006FA206821F0FAF918B108496069A3
:1036C80021F0FBF92046FFF7EFFBA06800F53E70FC
:1036D80021F030FA002010BD6FF08500FBE700BF35
:1036E800E44F03002DE9F041044640680E460368A4
:1036F80000219B681546984700284CD126B12A46D8
:103708002146E06921F095FF2046FFF7C1FF002818
:1037180041D1224E224FDFF88C80A06800F52A7034
:103728004FF0FF324FF0FF3303211FF039F9054600
:10373800A0684FF0FF324FF0FF3300F53E7075B1CF
:1037480021F0C8F920462B460121174A21F026FE10
:10375800A068BDE8F04100F53E7021F0EBB921F01A
:10376800B9F932460221204621F08BF93A4629461A
:10377800204621F086F920464246012121F081F9B0
:10378800606803685B6903B19847A06800F53E70FC
:1037980021F0D0F9C1E7BDE8F08100BFE92A0000B7
:1037A800FD2E0000414B02008556030010B504466B
:1037B80008210C4A21F029FA204608210A4A21F05A
:1037C80024FA20460821094A21F01FFA2046082138
:1037D800074A21F01AFA20460021064A00F09CFA0E
:1037E800002010BD9C560300DA5603003957030029
:1037F8008D57030027580300F8B51E4617460B4699
:103808002F4A0821044621F000FA6EB30821204609
:103818003B782C4A21F0F9F901256A0704D10821DF
:103828002046294A21F0F1F9AE4223D90821204641
:103838007B5D244A21F0E9F90135102DEDD10821ED
:103848002046224A21F0E1F9D6B9082120461E4A2D
:1038580021F0DBF90125AE422B4613D8082120467A
:10386800194A21F0D2F918E008212046184A21F017
:10387800CCF9012508212046154A21F0C6F9DBE7D5
:1038880000252B46FB5C0821A3F120025F2A28BFF4
:103898002E2320460F4A21F0B8F90135102D07D004
:1038A8006B07D8D108212046074A21F0AEF9D2E7A4
:1038B8002046BDE8F8400821074A21F0A6B900BF14
:1038C8003D580300244E03002C4E03002E4E0300E7
:1038D8002A4E0300014B03004458030010B5044668
:1038E80013460A460146064801F0F8FC23691B798D
:1038F80023B12046BDE8104021F0C7B910BD00BF74
:10390800AB4C020038B50B46154648B91449154A60
:10391800521AB3EB920F05D251F82350284638BDFE
:1039280084680CB90025F9E70F4A94420AD30F4A74
:10393800944207D218462946226890472B68002BE4
:10394800ECD1EFE70A4A944202D30A4A944205D3DB
:10395800246814225343E518E358F0E70133F8E7E5
:10396800D42E0300002F0300142F0300142F03008C
:10397800002F0300142F03000023F7B51646027822
:1039880004462D2A019305D16FF0150300203360FA
:1039980003B0F0BD2FF076F805460B4F0A46C35129
:1039A80001A920461FF014FCEB59222B02D16FF01D
:1039B8002103EBE7002BE7D1019BA342E4D01B785E
:1039C800002BE5D0E0E700BF0C0000008368D3F8C7
:1039D80060329B0603D50249406921F06BBB7047F2
:1039E800382F0300014921F065BB00BFE54F0300F4
:1039F8000A1E0DDC0ED042238168D1F860128906B8
:103A080008D5002A04494069B8BF524221F052BB88
:103A18004123F1E7704700BF605803000A1E0DDC20
:103A28000ED044238168D1F86012890608D5002A8F
:103A380004494069B8BF524221F03CBB4323F1E737
:103A4800704700BF605803002DE9F04785680446B9
:103A580005F14200FCF746FD0023984695F82C70C6
:103A6800DFF8549086B2A268558DED1BB54209DB8C
:103A7800002E1FDD4233606910491A44BDE8F04743
:103A880021F018BB1D442A4492F842A082F84280D3
:103A9800A26842331A444946606921F00BFBA368C7
:103AA8002B4483F842A0A3685B8DDB1BF61A002722
:103AB8002B46D8E7BDE8F0879F5003005252030019
:103AC80008290A4617D8836893F82E10914212D015
:103AD80083F82E208368082AD3F8603205D0990627
:103AE80009D50549406921F0E5BA9B0603D5034984
:103AF800406921F0DFBA7047675803003D2F030083
:103B080038B50D4609780446FFF7DAFF6A78072AC0
:103B180011D8A36893F82F1091420CD083F82F2066
:103B2800A368D3F860329B0605D560690249BDE8F1
:103B3800384021F0BFBA38BD70580300F8B5836823
:103B480004469A8F002A51D0D98F00294ED041318E
:103B580003F142050B441846A84206D3014611F862
:103B68000169202E39D0A84239D286B29DB2AB1B4A
:103B78009BB2591C471CD21A014438462EF057FFF5
:103B8800A268711B938F204613FA81F39387A36869
:103B980009B29A8F1344002283F8422021F0F2FAE6
:103BA800A368D3F860329A0603D51149606921F0F9
:103BB80081FA3B46082120460E4A21F0EFFB2046B9
:103BC800FFF704FFA368D3F860329B060ED560693F
:103BD8000949BDE8F84021F06DBA0846BCE701463E
:103BE80011F80169202EC0D00846BCE7F8BD00BF17
:103BF800422F030052520300462F03002DE9F041E3
:103C080004460D4617460AB1FFF7E0FEA368DA8FAF
:103C1800D3F86012423213444A071FD51846FCF7FE
:103C280061FC0646DFF8408096B9A3689A8FDA8768
:103C3800A06821F04CFA20B107B115B16069FFF70F
:103C4800D1FE69422046BDE8F04109B221F09ABA96
:103C58004146606921F02EFA013EE5E70821204639
:103C6800024A21F09BFBE0E7AF62030052520300D7
:103C780013B583688DF80710D3F860220446D0077F
:103C880022D5D98F9A8F8A421ED0481C9DF80720CA
:103C9800D8870B4483F84220A368D3F860128907B9
:103CA80010D5D3F86032606913F0040F18BF2A22C8
:103CB800094921F0FFF9204621F01BFA10B160698B
:103CC800FFF790FE02B010BD012220460DF107015A
:103CD80021F071FBF6E700BF014B030010B5044665
:103CE800836802211B68084A21F058FBA368D3F8AF
:103CF80060329B0707D52046FFF7A6FE2046BDE8A1
:103D0800104021F01CBA10BD52520300014921F0A5
:103D180013BD00BFE54F03002DE9F04F0E4600210B
:103D2800044617460D4689B0304603AA01F101083A
:103D3800FFF7E8FDB0B995B127B13A46082120460A
:103D480021F02CFB00211E4FDFF87890DFF878A0D7
:103D5800304603AA01F10108FFF7D4FD60B909B0A4
:103D6800BDE8F08F006810B1FCF7BCFB80B285425B
:103D780038BF05464146D7E703688BB11A787AB150
:103D8800D0F804B04A46CDE9005308213B46204606
:103D980021F004FBBBF1000F04D16069FFF7B6FF07
:103DA8004146D5E7524620463B46082121F0F6FA1F
:103DB8006A1D5946204692B221F0CBFCF0E700BFBD
:103DC8008E580300795803001F4E0300F7B50F689B
:103DD80005460E46A7B13846FCF784FB84B2094B6A
:103DE8002846009308213B46074A21F0D7FA28467F
:103DF800E21C716892B203B0BDE8F04021F0A9BCA2
:103E08003C46ECE78A5803008056030010B5074982
:103E18000446FCF755FB38B120460549FCF750FB32
:103E2800B0FA80F0400910BD0120FCE7805803007B
:103E38008358030010B583680446D3F860329B06A4
:103E480003D50649406921F0FBFC5022A3680020F5
:103E58005A851822A3681A8510BD00BF4A2F03008F
:103E680008B5836908211B68024A20F0CEFE0020AD
:103E780008BD00BF915803002DE9F3410F4A0821FE
:103E8800054620F0C2FE00230D4C0E4EDFF83880A8
:103E9800B44203F1010703D3002002B0BDE8F0816A
:103EA8006A6A9BB20192A2680821126828460092A9
:103EB800424620F0AAFE30343B46E9E7A158030009
:103EC800A42E0300D42E0300B958030008B50249F4
:103ED80020F0A8FE002008BDE64F03007FB5044689
:103EE80000250E4EA2680DF10E030121E06802F5CF
:103EF800A17221F035FDBDF80E00A36850B103F59D
:103F0800A173009332462B460821204620F07DFEFF
:103F18000135E7E783F8420104B070BDCA580300D1
:103F280010B5044620F0A3FE08210346024A2046A5
:103F380020F06BFE002010BDCC530300022907B50A
:103F48000DD15368012101930C4B009313680C4A5F
:103F580020F05BFE6FF0150003B05DF804FB83688A
:103F6800084AD3F86032082113F0020F064B08BF45
:103F78001346064A20F049FE0020EDE7E158030009
:103F8800D8580300D4580300C9510300F658030059
:103F980010B583680446D3F860329A0603D50749FA
:103FA800406921F04DFCA368D3F860329B0603D525
:103FB8000349606921F044FC002010BD512F030023
:103FC800562F0300F0B50129044685B00CD053687C
:103FD800012101935F4B009313685F4A20F015FE9F
:103FE8006FF0150005B0F0BD8368D3F8603299060C
:103FF80003D55A49406921F023FC00256FF0F901E7
:104008002046FFF7F5FCFA212046FFF707FDA068D8
:104018004FF48072294600F5A1708DF80B502EF0F0
:1040280020FD4F49606921F00BFC606920F02DFEEE
:104038004FF47A766068012203680DF10B011F695D
:1040480003ABB847039BF3B9013E4FF47A70B6B29D
:104058002EF040F8002EEDD1A368D3F860329B060D
:1040680003D54049606921F0EBFB5022A368204644
:104078005A851822A36803211A853B4A20F0C5FDFA
:104088006FF00700AEE79DF80B20A3681B2A53D0FA
:1040980093F842111B29CDD1522A4DD15A19002328
:1040A80082F84231A66896F843215B2A2BD1022573
:1040B80006F2431010F8011F2A463B2905F10105B5
:1040C800ADB223D1FF2AC7D002F5A17216FA82F148
:1040D800002211F8010F18BBFA2A28BFFA22FA2B7E
:1040E80028BFFA2386F84201A1684A85A268138589
:1040F800A368D3F860329A0603D51A49606921F09B
:104108009FFB00206EE786F84231A5E703EB8303A7
:10411800303901EB4301B5F5807F8BB2CAD19BE7FB
:10412800013502EB8202ADB2303800EB4200B5F542
:10413800807F82B2CDD18FE72B440135ADB2092DF6
:1041480083F842217FF676AF0022A36883F84221E4
:1041580082E700BFE1580300D85803005C2F030032
:1041680041590300602F0300075903002DE9F04F60
:1041780007461546894689B021B1104621F095FCBD
:1041880000285BD1032455E05C463CE029460AF54B
:10419800A1702EF0D3FB0646002854D0FCF7A2F9F4
:1041A80082B2601C3146013230442EF040FC224677
:1041B800594630462EF02EFC4FF020033355BAF8FE
:1041C800403008F1010801331C44AAF8404000249B
:1041D80001994B1C484603AA0193FFF793FB064637
:1041E800E8B100222846316821F011FE0028EFD1FD
:1041F800D6F800B0D7F808A0BBF1000FC4D05846D5
:10420800FCF770F984B2BAF840302344FF2BBDDDC7
:104218002B46032138460D4A21F0C0F80124B8F195
:10422800000F07D0B8682A4600F1400100F5A170D8
:1042380020F05BFE204609B0BDE8F08F4FF0000883
:1042480002244146C5E70224E9E700BF095E0300EE
:1042580001481EF0D9BD00BFC834030038B5044674
:1042680018B90F4B0F485B6898476168B1F5683F0C
:1042780010D0B1F5680F0DD00B4DA9420AD011F43A
:104288006861206807D0014608482DF05BFF0023CD
:104298002360656038BD14222EF0E3FBF9E700BF08
:1042A800740200205B5E03002C5F5CA97457002039
:1042B80008B560B34368B3F5683F0ED0B3F5680F2F
:1042C80018D0144A934220D000684FF0FF324FF0C4
:1042D800FF331DF05BFD58B115E001220368D3E8F8
:1042E800EF1F002903D1C3E8E02F0028F7D10AD136
:1042F800002008BD0368084A1B7803F5807352F84C
:104308002330002BF4D00548F3E70548F1E76FF4B4
:10431800E040EEE72C5F5CA900000350E98FFFFF47
:10432800EA8FFFFF08B520B34368B3F5683F09D0AB
:10433800B3F5680F13D0114A93421DD000681DF0E1
:10434800E7FC14E000220368D3E8EF1F012903D13A
:10435800C3E8E02F0028F7D109D0094808BD00219B
:104368000368084A1B7803F5807342F8231000207D
:10437800F4E76FF4E040F1E70348EFE72C5F5CA94E
:10438800E98FFFFF00000350EA8FFFFF10B50446D6
:1043980018B91D4B1D485B6898476368B3F5683FBB
:1043A8002FD0B3F5680F2CD0194A934219D123683E
:1043B80003BB4FF0FF324FF0FF33214615481DF085
:1043C80001FB08B923681BB90F4B13485B68984772
:1043D8001422002120682EF044FB4FF468636360C8
:1043E80008E0B3F5683F0DD83A2B03D040F6BA621F
:1043F8009342DED120682DF0FBFE636843F03A0358
:10440800636010BD054AF3E7740200205B5E030099
:104418002C5F5CA974570020815E03003A00003AC3
:1044280008B506494023142205482DF07DFEBDE855
:104438000840044904481EF059BD00BF74520020CA
:1044480074570020D0340300E43403002DE9F84306
:1044580005460C4600AF002948D0DFF8A090D9F8EF
:104468000030580742D0D1E900016E468AB06A464A
:10447800A3684FF00508DFF888C0C2E90713C2E94E
:1044880005C042F8108F00234FF421514846FDF72C
:1044980079FBD9F80030B546590727D0D4E903018C
:1044A8008AB06A466369DFF85CC0C2E90713C2E9EB
:1044B80005C042F8108F00234FF421514846FDF7FC
:1044C80061FBD9F80030B5465A070FD0E3690121DE
:1044D80048460D4A20F0FCF9D9F800305B0705D0B2
:1044E800A36901214846094A20F0F2F921462846E5
:1044F8001DF0D0F8BD46BDE8F88300BF5C0300207E
:10450800AE5E0300DD5E03000C5F03001B5F03006B
:1045180030BFFFF7FDBF00BF124B134A2DE9F04132
:10452800D518013DB5FBF3F5DFF840805D43104B2E
:10453800074608EB0304013CB4FBF3F403FB045403
:104548000E1B30460B492EF065FA701942460021C1
:10455800083E2EF086FAC7F8A86004F10800BDE806
:10456800F08100BF0100000000000000080000000A
:1045780004000000142F0300044B9968586988420E
:1045880003D003494FF080520A607047F4D40020EA
:1045980004ED00E0F8B5364C064623680D465B0787
:1045A80003D02046334921F0D2FA334B9B6ADF0609
:1045B8005CD52368580703D030492D4821F0C7FA45
:1045C80011202D4B9B6A190707D523685A0703D07A
:1045D8002B49274821F0BBFA1220274FBB6A9B07BB
:1045E80019D52368580703D02649214821F0AFFA86
:1045F8007B6BBA6A11060DD52268520704D00121D7
:10460800214A1B4820F064F926B11B4A936A23F01B
:10461800800393621320184B9B6ADB0707D5236836
:104628005F0703D01949124821F091FA1420124B60
:104638009B6A9E0607D52368580703D014490C487F
:1046480021F085FA15200C4B9A6AD10658BF9A6A50
:104658009A6A920642BF5A6A22F400525A629A6AC9
:1046680042F0FF029A6200232B70F8BD1020A8E7E1
:104678005C030020495F030000ED00E05F5F03007A
:10468800925F0300A55F0300BD5F0300D35F0300D3
:10469800F25F030010B5334C2368580703D0204657
:1046A800314921F054FA314B9B6A990157D5236857
:1046B8005A0703D02E492B4821F049FA1E202B4BCC
:1046C8009B6ADB0107D52368580703D02949254889
:1046D80021F03DFA1F20254B9B6AD90207D5236894
:1046E8005A0703D024491F4821F031FA02201F4BF2
:1046F8009B6A1B0307D52368580703D01F4919482D
:1047080021F025FA2120194B9B6A590307D5236804
:104718005A0703D01A49134821F019FA2220134BDB
:104728009B6A9B0307D52368590703D015490D4891
:1047380021F00DFA23200D4B9B6ADA0307D5236875
:104748005B0703D01049074821F001FA2420074AE3
:10475800936A6FEA03436FEA1343936210BD1D2007
:10476800ADE700BF5C0300202160030000ED00E01E
:10477800396003004C60030066600300906003002A
:10478800AE600300D3600300ED600300F8B5374C5A
:10479800064623680D465B0703D02046344921F0BE
:1047A800D6F9344B9B6ADF0451D52368580703D0E8
:1047B80031492E4821F0CBF917202E4B9B6A190559
:1047C80007D523685A0703D02C49284821F0BFF998
:1047D8001820284FBB6A9B0519D52368580703D0B2
:1047E8002749224821F0B3F9BB6BBA6A11040DD5E9
:1047F8002268520704D00121224A1C4820F068F898
:1048080026B11C4A936A23F4004393621920194B7A
:104818009B6A5B0507D523685F0703D01A491348CD
:1048280021F095F91A20134B9A6AD60511D52368F9
:10483800590703D015490D4821F089F91B200D4A65
:10484800936A43F47F43936200232B70F8BD1620CC
:10485800B3E79B6A9A04F2D523685B0703D00C4937
:10486800024821F074F91C20E9E700BF5C0300202E
:104878001861030000ED00E02E610300925F030061
:104888003F610300586103006D6103008861030004
:10489800F25F03002DE9F0418AB0734B0446D3F868
:1048A8000480002500AFC8F3080685F31188BFF31C
:1048B8006F8F02F07F43B3F17F4F0AD102F00C03F0
:1048C800082B15D169480368590702D0684921F0B7
:1048D8003EF900252C460023FB71F31E092B00F23C
:1048E8009E80DFE803F00A90938C9C9C9C9C9C968D
:1048F80012074CBF0C460125EDE75C4E33685B0799
:1049080003D030465B4921F022F90023FB71564B56
:10491800DA6A900708D53368590703D056495348CF
:1049280021F015F900233BE0DA6A002A04DA33683B
:104938005A07F7D05149F2E7DB6A5B00F2D53368D2
:10494800580703D04E49494821F001F9464BA1695F
:104958005A6942F480725A61BFF34F8FBFF36F8F69
:104968005A6931F8021C22F480725A61BFF34F8FE2
:10497800BFF36F8F4DF60272914207D09A6AD2B296
:1049880082B30120F91DFFF705FE3AE033685907A5
:1049980005D0236801213B4A34481FF099FF23685A
:1049A800FA79DAB907F1080604F1200C32462068D2
:1049B8006168083403C264451646F7D17A6A002D47
:1049C8004DD0C2F3080121B96FEA52226FEA4222A0
:1049D8007A62184607F10801FFF738FD2837BD4607
:1049E800BDE8F0819A6A12F47F4F04D00120F91DC6
:1049F800FFF7CCFE05E09B6AB3F5803F92D3FFF743
:104A080049FE0346CCE70020F91DBCE70020F91D4C
:104A1800EEE7164803685A0784D01B4980E7134815
:104A280003685B073FF47EAF184A18F4F87FE8463E
:104A38008AB0174B18BF13466A461649103EC2E99A
:104A480005134FF400731384134BD66142F8103FDB
:104A580000234FF41151FDF795F8C54662E722F49B
:104A6800FF7222F00102B3E700ED00E05C030020D2
:104A7800CE610300F9610300106203003162030094
:104A88003F6203005E6203007A620300B5610300BF
:104A9800A06103009E62030004000001044B5A69F0
:104AA80042F010025A615A6942F480625A617047B2
:104AB80000ED00E0EFF30880EFF3098101B57246DD
:104AC800FFF7E8FE01BD00BF002080F31488BFF3A4
:104AD8006F8F002080F30A8880F30B8800F098FD20
:104AE800002011490860BFF34F8F104880F30888F1
:104AF80000F044F8202080F311880D484FF0AA01F7
:104B08004FF400622DF0F6FA09484FF4006140189E
:104B180080F30988EFF314800221084380F3148896
:104B2800BFF36F8F00F00CF994ED00E0F0F4002073
:104B3800B0E30020BFF34F8F0549064BCA6802F463
:104B4800E0621343CB60BFF34F8F00BFFDE700BFA8
:104B580000ED00E00400FA05002318460649D1F8E4
:104B68009020C2F30722934200DB7047C1F89830C7
:104B7800C1F8A0000133F6E700ED00E010B572B609
:104B8800002484F31388FFF7E7FF23464FF0FF3034
:104B98000C4A03F120010133102B42F82100F8D10F
:104BA80000234FF0FF30074A03F160010133102B57
:104BB80042F82100F8D162B6BFF34F8FBFF36F8F71
:104BC80010BD00BF00E100E0084B9B6883420BD199
:104BD800EFF3058343B1064B5A6842F080525A609E
:104BE8005A6A22F400425A622DF020BCF4D4002004
:104BF80000ED00E06FF00A01094A9368C3F8B010AD
:104C08000849C3F8AC004B6843F080534B6000235D
:104C180083F31188BFF36F8F9368D3F8B0007047A0
:104C2800F4D4002000ED00E017498A684FF0300006
:104C38001044EFF3098C80E8F01F202080F31288DD
:104C4800BFF36F8F114F4FF000664A698A603E606C
:104C58004FF0A804141920680D4C2060D2F8AC005D
:104C68000023C2F8AC3080F3118802F1300090E8DC
:104C7800F01F8CF3098802F1000004B520F06FFFE3
:104C8800BDE8044070470000F4D4002004ED00E0C3
:104C9800905700201EF0040F0CBFEFF30880EFF3CD
:104CA8000980816911F8021C0229FFD001B520F0A2
:104CB80043FF01BD40B2002807DB01234109034A35
:104CC80000F01F00834042F82130704700E100E007
:104CD80040B200280CDB01220649430900F01F00FE
:104CE8008240203341F82320BFF34F8FBFF36F8FEB
:104CF800704700BF00E100E0054B420953F822204D
:104D0800012300F01F0003FA00F01040704700BFB5
:104D180000E100E040B2002801F10101ACBF00F160
:104D28006040064B4FEA4111C9B2ABBF00F5614084
:104D380000F00F0080F800131954704714ED00E0DC
:104D48000B4A08B50B4B22F07F029A60BFF34F8FD6
:104D5800BFF36F8FD3F8882022F47002C3F888203D
:104D68001CF060FD1DF016FC00F07AF81CF0A8FDA0
:104D78000000000000ED00E042F8203C009B0B49D9
:104D880042F81C3C019B21F0010142F8183C029BAF
:104D980042F8081C42F8143C4FF0807342F8043C77
:104DA8000023203A0265C0F8AC3070475910000063
:104DB8000B4BD0F8A84098600A4B1C60D0F898308C
:104DC80083F30B88104681F30988002163B681F3C9
:104DD8001188BFF36F8F00220023FCF739F900BF59
:104DE800F4D4002090570020014910220A6070472F
:104DF80010ED00E072B6404080F31188BFF36F8F6A
:104E080001B500F0FFFA00280AD0BFF34F8F30BF7A
:104E180000BF00BF00BF00BF00BF00BF00BF00BF92
:104E2800BDE8014062B6BFF36F8F704772B6494064
:104E380081F3118801B500F0E5FA00280AD0BFF324
:104E48004F8F20BF00BF00BF00BF00BF00BF00BF23
:104E580000BF00BFBDE8014080F3118862B670470B
:104E6800002320210348C2180133452B82F8001380
:104E7800F9D1704700E100E001B5EFF30580A0F13A
:104E880010004FEAC0000449014409C99847BDE829
:104E98000140024908470000D42B03008145000067
:104EA8001FB5094C094A23460121094800F014F9A5
:104EB80000230393074B0121E41A01A801930294EC
:104EC80000F014F904B010BD000007200000002015
:104ED800F4340300E003002010B50C7A0B6804F0EA
:104EE8001F0223F01F031A43CB68640923F01F0332
:104EF800054943EA440343F00103C1F89800C1F8A7
:104F08009C20C1F8A03010BD00ED00E0072810B5C6
:104F180004460BD9074803685B0704D001212346E0
:104F2800054A1FF0D5FC6FF0150010BDFFF7D4FF40
:104F3800FBE700BF58030020B56203002DE9F04FDE
:104F48008946144606464FF00008544D85B0C845BA
:104F58002EDAD6F804A0BAF1000F4BD0BAF11F0F21
:104F68001BD91AF01F0F18D1D6F800B01BF01F0F6D
:104F780013D1584620F0F8FD07460AEB0B0001381C
:104F880020F0F2FD874217D06FF0150744480368F8
:104F98005B070BD0434A3B4605E0414803685A0784
:104FA80004D04346404A01211FF092FC6FF01504DB
:104FB800204605B0BDE8F08F17F1160FE6D0BC42C9
:104FC800E4DDC5F89870D5F89C10C5F89870D5F848
:104FD800A03021F01F0143F01F0BD6E900321A441C
:104FE800994202F1FF3A1DD1D34507D13146F8B2B3
:104FF80020F0C3FD08F101080C36A8E73146C5F8D2
:105008009870D5F89C3022F01F0203F01F03134359
:10501800C5F89C30E0B220F0B0FD10F1160FC5D0F5
:10502800441CE7E7C5F89870D5F8A020013B23F0A9
:105038001F0302F01F021343D3453146E0B2C5F8FF
:10504800A030E8D020F099FD10F1160FAED0C5F8C9
:105058009870D5F89C209DF808300BF1FF3B62F35F
:1050680004038DF80830D5F8A0309DF808205B08B7
:1050780063F347128DF80820D6E9003213440093F1
:1050880023F01F035B44A3EB0A03013023F01F0343
:105098006946C0B20393FFF739FFBEE700ED00E0B1
:1050A80058030020FE620300DB6203000522044B64
:1050B800C3F89420BFF34F8FBFF36F8F704700BFC3
:1050C80000ED00E0BFF35F8F0022024BC3F894208D
:1050D800704700BF00ED00E010B5034C2278FFF7E1
:1050E8002DFF207010BD00BF5DD700202DE9F74FC0
:1050F800294D8A4606464FF00008AB46274FD04553
:105108001BDAD6F80490B9F1000F3FD03168084691
:10511800019120F029FD0199044609EB01000138AD
:1051280020F022FD84424FF014021D4B08D002FBF0
:1051380008F36FF015024BF8032003B0BDE8F08FB9
:1051480014F1160F2C60F8D01978A142F5DD02FB96
:1051580008B0C7F89840C7F89840D7F89C4000F1C5
:105168000801007B64F304000871D7F8A0000C79EB
:10517800400860F347140C71D7F89C1021F01F0108
:105188006960D7F8A01021F01F01296108F1010812
:1051980014350C36B3E700BF9457002000ED00E04B
:1051A8005DD70020F0B53C4D87B02C68082C6FD82F
:1051B8000020FFF787FF394B394AC3F8C0208442E3
:1051C8000DD1384D01A82C70FCF796FF0024064637
:1051D800354FA6420AD1FFF769FF002056E06968FB
:1051E80001EB0011FFF778FE0130E8E70199200193
:1051F80001EB0413DA683A40B2F5001F22D0B2F589
:10520800800F2CD0B2F5801F36D15A689B68095898
:10521800013B22F01F0003440120844623F01F03B2
:1052280040EA4C10CDE902218DF8100002A9287837
:105238000593FFF76BFE002826DB2B78013401333A
:105248002B70C6E75A689B680958013B22F01F007B
:1052580003444FF0020C012023F01F03E0E75A68D3
:105268009B680958013B22F01F0003444FF0000CD3
:10527800062023F01F03D3E70C4803685B0703D01D
:1052880001210B4A1FF01BFB6FF0150007B0F0BDA2
:105298004FF0FF30FAE700BF0035030000ED00E0F3
:1052A800AAFF44005DD700200000F0FF580300204B
:1052B8002163030008B5024B1B689847002008BD0E
:1052C800A8570020034B044A1860937843F0020360
:1052D80093707047A857002088000020F0B587B069
:1052E80007460E4614460021102268461D462DF03A
:1052F800B8FB02238DF80230054B2A462146684642
:10530800CDE9047601931DF0C9FF07B0F0BD00BFD9
:10531800B55B020008B504481EF0BDFA404080F3B2
:1053280011884FF0020002DF5263030008B50649F6
:10533800064821F00701C1F1005202F5E0221EF0F3
:10534800AEFD002008BD00BF3FFB0020AC57002089
:1053580007B50DF1070021F04AFA114B98421CD10C
:105368004FF480620F4B1049C3F8B8254FF4006220
:10537800C3F83C259DF8070021F025FA0B499DF854
:10538800070021F01BFA01209DF80730984002F031
:10539800CDF8002003B05DF804FB6FF00B00F9E7CF
:1053A8000000AD0B00A002502CA0025028A1025012
:1053B800054B03EB8000D0F8003223F0E04343F0C4
:1053C8004053C0F80032704700258450012208B5C8
:1053D8000A4B0B49C3F8002502230020C1F8D03638
:1053E800FFF7E6FF1046FFF7E3FFC1F80427C1F80F
:1053F8000429C1F8002B002008BD00BF0010005090
:1054080000400050052370B5144D154E2C7801341A
:10541800B4FBF3F303EB8303E41A21F0BDF9114A5B
:10542800137823B156F82430C01A072814D94FF03E
:105438005023D3F8141141B10021C3F81411D3F843
:1054480014312C700CB9012313702C7821F0A4F9B5
:1054580046F82400012070BD0020FCE75FD700203B
:10546800B85700205ED7002048B1054B054A1B6895
:10547800B3FBF2F35843044B43F00103184770475A
:105488004C01002040420F00802F030070B5049C9F
:10549800C4F30726304601F0F5FCE5B2014628467C
:1054A80021F09DF900220120074BA40B04F0FC0415
:1054B8001A51A84002F040F8304601F097FE2846FD
:1054C800BDE8704002F02CB980A0025073B501A865
:1054D80002F020F9284B98424AD101F069FE041ED7
:1054E8000DDA9DF8040002F01BF9244803685B07F5
:1054F8003BD001212346224A1FF0EAF935E040F665
:105508000703204D8DF80540AE68ADF80630746885
:10551800019B14B96FF05704E7E7082128461A4A97
:10552800A047041EE1DB3369002BF3D001220821D8
:1055380028469847041ED8DB01209DF8043098407F
:1055480001F0F4FF9DF805009DF804509DF80760F0
:1055580021F00DF90146284621F035F90B4BB6002C
:1055680045F000459D51002CBFD1204602B070BDCA
:105578006FF01204B9E700BF0000AD0B7003002004
:1055880074630300982B03009955000080A1025012
:105598002DE9F341144683681B690BB10022984733
:1055A800C4F30726304601F075FC0546304621F065
:1055B800DEF84FF00008E7B20146384621F013F94B
:1055C800104B220E920043F80280304601F05AFC3C
:1055D8000D4A4FEA943C0CF0FC0C47F0004342F8AB
:1055E8000C300146384621F0E9F8084B05F1320243
:1055F8000093304643460194520021F0C1F802B0AE
:10560800BDE8F08180A1025080A0025095540000AE
:1056180001F06EBE084B70B5C31A0D4607499B10C2
:10562800044659434022064820F010FC2B46014608
:105638002046BDE870401847E0570020B76DDBB63C
:10564800482B0300402373B50B4C0093041B0B46F7
:105658000D460A49A41061430646094A094820F044
:1056680021FC011E05DA30462B4602B0BDE8704029
:10567800184702B070BD00BFE0570020B76DDBB619
:10568800175F0200482B03002DE9F843002201218F
:1056980006460520FFF73EFB114801F053FF114B6A
:1056A800984219D101F05EFF00244FF01C090C2725
:1056B800DFF834803569414609FB04501EF0CCFC04
:1056C800002807DB012307FB04551C44042CAB67A7
:1056D800F0D10020BDE8F8836FF00400FAE700BFBE
:1056E800295700000000AD0B2835030001460C23A4
:1056F80000224B4370B50848C41878331844D4E9DD
:105708001C56226720F08FFB2DB132462B46BDE890
:1057180070400248184770BDE0570020482B03002E
:10572800062812D8DFE800F0040F1111110D0B0044
:10573800064B986F10F0070007D1FFF7D7BF02207C
:10574800FBE70320F9E70120F7E77047E05700205F
:1057580008B54FF02003EFF3118183F31288BFF3EC
:105768006F8F124A136843F002001060DA0708D4FA
:1057780081F31188BFF36F8FBDE80840012001F065
:1057880009BF4FF05023D3F80C24D3F80C34DB07AF
:10579800EED5074820F047FB81F31188BFF36F8FE0
:1057A800BDE808400020FFF7A1BF00BF80580020D7
:1057B800585800207FB500220123CDE9022304AB0D
:1057C800CDE90433094A6B46CDF800D0CDF804D0B2
:1057D80020F096FB002805DB4FF480420023684642
:1057E8001CF074FB07B05DF804FB00BF4D5F0200BE
:1057F80010B54FF02003EFF3118483F31288BFF341
:105808006F8F074A136823F00201DB07116002D487
:10581800012021F09FF884F31188BFF36F8F10BD2A
:10582800805800202DE9F041012207463749D1E888
:10583800EF3FC1E8E02F0028F9D133B934493548A2
:105848004B60CB608A601EF01AFC7B1E012B2BD8A4
:10585800012F07D14FF05023D3F81C3403F0030372
:10586800022B21D02CF095FC0546F8B92A4B1B7861
:10587800E3B14FF0502302220646C3F808234FF045
:105888005024DFF89880D4F81824D4F81834D203B8
:1058980016D503F00303022B01D0012F10D175B3E5
:1058A80086F31188BFF36F8FBDE8F0814FF02003B6
:1058B800EFF3118683F31288BFF36F8F0125DEE7BC
:1058C800C5B13046FFF7B2FAD4F81835DBB2012B70
:1058D800D9D1D4F80421002AD5D00022C4F8042153
:1058E800D4F804210222C4F818252022C8F88021FF
:1058F800A360C8E7002121201CF01AFEE4E74FF05E
:1059080050230222C3F80423CEE700BFDC5700204F
:10591800CC570020FC570020A7D8002000E100E069
:1059280008B507482CF0DBFB38B10648FFF7CAFC7E
:105938000448FBF787FB002008BD6FF01200FBE767
:10594800842B0300515900000A2838B50446074D36
:1059580004D1AB680D2128465B689847AB680348BB
:105968005B68E1B29847204638BD00BF842B03002E
:1059780008B5054803685B0703D00121034A1EF0F8
:105988009EFF6FF0850008BD3C030020DF63030025
:1059980008B5054803685B0703D00121034A1EF0D8
:1059A8008EFF6FF0850008BD3C030020FA630300FA
:1059B80008B5054803685B0703D00121034A1EF0B8
:1059C8007EFF002008BD00BF3C03002019640300CF
:1059D80008B5054803685B0703D00121034A1EF098
:1059E8006EFF6FF0850008BD3C0300204164030092
:1059F80008B5054803685B0703D00121034A1EF078
:105A08005EFF6FF0850008BD3C030020576403006B
:105A180070B54668054670682CF061FB58B95F4858
:105A28000368590703D05E4A01211EF048FF6FF052
:105A38001204204670BD306918B12CF050FB0028C4
:105A4800EDD0F06906F11C042CF049FB28B9534845
:105A580003685A07EBD0534AE6E720464FF4003173
:105A680020F073FA041E09DA4C4803685B07E0D09B
:105A780023464D4A01211EF02BFFDAE7706AB8B1C0
:105A880024362CF02CFB28B9444803685E07CED096
:105A9800464AC9E74FF4B011304620F056FA041EC2
:105AA80006DA3E4803685D07C3D0414A2346E1E76A
:105AB8006C68636A83B124340121204620F08BFA94
:105AC800002121201CF034FD0021204620F083FA1B
