:10000000F0F40020E54A0000335B0200D14A000012
:10001000D14A0000D14A0000D14A0000D14A000074
:10002000000000000000000000000000B14C0000D3
:10003000D14A000000000000454C0000D14A0000F9
:10004000954E0000954E0000954E0000954E000024
:10005000954E0000954E0000954E0000954E000014
:10006000954E0000954E0000954E0000954E000004
:10007000954E0000954E0000954E0000954E0000F4
:10008000954E0000954E0000954E0000954E0000E4
:10009000954E0000954E0000954E0000954E0000D4
:1000A000954E0000954E0000954E0000954E0000C4
:1000B000954E0000954E0000954E0000954E0000B4
:1000C000954E0000954E0000954E0000954E0000A4
:1000D000954E0000954E0000954E0000954E000094
:1000E000954E0000954E0000954E0000954E000084
:1000F000954E0000954E0000954E0000954E000074
:10010000954E0000954E0000954E0000954E000063
:10011000954E0000954E0000954E0000954E000053
:10012000954E0000954E0000954E0000954E000043
:10013000954E0000954E0000954E0000954E000033
:10014000954E0000954E0000954E0000954E000023
:04015000954E0000C8
:04015400FFFFFFFFAB
:100158007BB972B90029BEBF00204FF0004106E00C
:1001680008BF00281CBF6FF000414FF0FF3000F0BF
:1001780057B8ADF1080C6DE904CE002909DB002B56
:100188001ADB00F04FF8DDF804E0DDE9022304B0E3
:100198007047404261EB4101002B1BDB00F042F845
:1001A800DDF804E0DDE9022304B0404261EB4101DF
:1001B800524263EB43037047524263EB430300F040
:1001C80031F8DDF804E0DDE9022304B0404261EBD8
:1001D80041017047524263EB430300F023F8DDF816
:1001E80004E0DDE9022304B0524263EB43037047A5
:1001F80053B94AB9002908BF00281CBF4FF0FF3186
:100208004FF0FF3000F00CB8ADF1080C6DE904CEEA
:1002180000F008F8DDF804E0DDE9022304B07047D7
:10022800704700BF2DE9F04786468C460846089E71
:10023800154674461946002B40F0C1808542B2FA33
:1002480082F245D94AB1C2F1200300FA02FC954076
:1002580094402EFA03F343EA0C0C4FEA154EA8B269
:10026800230CBCFBFEF80EFB18CC08FB00F943EA94
:100278000C43994528D9EB1808F1FF3704D2994562
:1002880002D9A8F102072B44A3EB0903A4B2B3FBDC
:10029800FEFC0EFB1C330CFB00F044EA0344A042B6
:1002A80014D92C190CF1FF3304D2A04202D9ACF1B5
:1002B80002032C44241A43EA07401EB1D440002309
:1002C80034607360BDE8F0874746DDE76346F1E7D1
:1002D80092BB431B01214FEA154EAFB2200CB3FB72
:1002E800FEFC0EFB1C330CFB07F840EA0343984561
:1002F80061D9EB180CF1FF3004D2984502D9ACF162
:1003080002002B44A3EB0803A4B2B3FBFEFC0EFBD4
:100318001C330CFB07F744EA0344A7424DD92C19B8
:100328000CF1FF3304D2A74202D9ACF102032C44EA
:10033800E41B43EA0040C0E7C2F120039540944023
:1003480020FA03F12EFA03F34FEA154E9040AFB2AC
:100358000343B1FBFEFC0EFB1C10190C0CFB07F849
:1003680041EA0041884522D969180CF1FF3004D2CE
:10037800884502D9ACF102002944A1EB08019BB2DF
:10038800B1FBFEFC0EFB1C110CFB07F743EA014313
:100398009F420ED9EB180CF1FF3104D29F4202D9CB
:1003A800ACF102012B44DB1B41EA004193E76046B4
:1003B800E3E76146F7E76046A4E76346B8E78342A8
:1003C80006D916B9002108467CE7C6E900E0F9E736
:1003D800B3FA83F78FB9834201D3724508D8BEEBCD
:1003E800020460EB030301209C461EB9002169E763
:1003F8003846FAE7C6E9004CF8E7C7F1200CBB40DD
:100408000EFA07F522FA0CF42EFA0CF1BA401C4346
:1004180020FA0CF3B8404FEA144901431FFA84FE4E
:10042800B3FBF9F809FB18300B0C08FB0EFA43EA8A
:1004380000439A4540D9E31808F1FF3004D29A45A1
:1004480002D9A8F102002344A3EB0A0389B2B3FB43
:10045800F9F809FB183308FB0EFE41EA03418E4503
:100468002CD9611808F1FF3304D28E4502D9A8F1BE
:100478000203214443EA0040A1EB0E01A0FB0298CD
:100488004145CE46434602D306D14D4504D20138F4
:10049800B9EB020E68EB0403002EA7D0B5EB0E02F1
:1004A80061EB030101FA0CFC22FA07F3F9404CEA6C
:1004B8000303C6E9003199E74046C5E74346D9E753
:1004C80010F8012B11F8013B012A28BF9A42F7D0F6
:1004D800D01A7047034611F8012B03F8012B002AA4
:1004E800F9D17047034613F8012B002AFBD1181ADB
:1004F80001387047000000002DE9F04706460F4616
:1005080090468AB032F010F84FF47A73A0FB034596
:1005180003FB0155E40B012F44EA45444FEAD53566
:1005280008D108213046CDE90045294A24F062FB6C
:10053800002013E0D8F8047026483946FFF7C0FFBA
:1005480078B139462448FFF7BBFF50B130463B46E7
:100558000121224A24F04EFB6FF004000AB0BDE8E6
:10056800F087204618A3D3E900232946FFF7F0FDBA
:1005780005460C4610461946194A0023FFF7E8FDC0
:1005880080460F46104619464EF660220023FFF7B4
:10059800DFFD82468946104619464FF47A720023D9
:1005A800FFF7D6FDCDE904A9CDE90601CDE9082379
:1005B80008213046CDE90287CDE90054094A24F0E4
:1005C80019FBB5E7AFF30080005C260500000000CA
:1005D800894E03009A4E03009D4E0300A64E030069
:1005E80080EE3600BD4E030070B50AF011F9574889
:1005F80031F094FD20B9564823F042F9002070BD2F
:10060800544823F03DF9544C204631F087FD00282A
:1006180041D02569A6682B68172143F400032B6095
:10062800204633684D4A9847014618B14C4823F094
:1006380027F9E3E74B4823F023F94B494B4B4B6031
:100648004FF400038B60F36933B1012220469847C9
:10065800014620B14648EAE76FF05701FAE74548F6
:1006680023F00EF9B66986B12B68172113F4000F31
:1006780014BF4FF000734FF080634FF0A072204614
:10068800B047014620B13C48D1E76FF05701FAE77F
:100698003A4823F0F5F818F05BFD07F0EBFF1DF082
:1006A80083F8374904461DF0FDFC002301211A4652
:1006B800204627F00FFE334823F0E2F832482FF0A7
:1006C800B8FAFF2130482FF049FB032019F052F8FF
:1006D80001462D482FF039FB18F03AFD07F0CAFF04
:1006E8001BF08AF805464FF40032274929F00FF825
:1006F80096220A21284627F0BFFD642200212846B9
:1007080030F098F800222846114630F02FF81E23C2
:1007180000220921284627F0DDFD19F035FE0B4897
:10072800002483685B68984721460022284630F0F9
:100738001DF819F029FE652C16BF01340024E4B217
:10074800002140F6CD4021F009FFEDE7C82B03005A
:10075800024A0300224A0300782B0300110001001B
:10076800354A0300594A0300C04E0020D73702001B
:10077800644A0300864A03009B4A0300C04A0300F8
:10078800CE4A0300DD4A0300B84E00202DE9F843A5
:1007980080460F46154600F0ABF8C36804461BB9FF
:1007A80043691A78002A4CD10023E3606368434503
:1007B80057F8232008DB3D4B6361204600F07EF8A4
:1007C8004FF0FF30BDE8F883511C616116782D2E7B
:1007D800F1D1911C616151782D29A16004D19278E1
:1007E80062B901336360E6E741B9304B31462846C8
:1007F800636132F06DF80028DFD0A660D4F8089065
:100808002846494632F064F8B9F13A0F626900D0D7
:10081800E0B9137813B963680133636023685BB187
:100828002B783A2B08D0224803685A0704D04B4645
:10083800204A012124F041F8204600F03FF83F20EB
:10084800C0E75A1C42611B788360D7E743783A2B8C
:100858000BD000232361137813B9636801336360F5
:10086800204600F02BF8A068ACE7117866680F4BBB
:1008780029B90136B045666004DD57F82620C4E979
:100888000423EAE763612D783A2D04D1204600F06D
:1008980015F8284696E72368002BCDD0044803684E
:1008A8005B07C9D0044A4B46C3E700BFE94F0300C2
:1008B80044030020F54A03000A4B03000268074B73
:1008C8001A604268064B1A608268064B1A60C26852
:1008D800054B1A600269054B1A6070471C0000201E
:1008E80018000020D44E0020D04E0020CC4E00200E
:1008F80000487047000000202DE9F04F91B00093A8
:1009080002F004030293C2F3C203013384070546CD
:100918000E46DDF868900392059340F0BB81041DF4
:1009280030B1072909D86FF01B0011B0BDE8F08F6E
:1009380001F00706341DC6F10806009B4FF00008B9
:100948004FF0040A591E4FF0FF3347460193C34640
:100958005346CDF810800DB1009A22600598002802
:1009680000F3E8809848009A824203D3974882426D
:10097800C0F0E080039AA4EB050E92074FEA9E00B0
:1009880000F103810F2F00F2B180002D00F00581E6
:1009980007F140020DEB020C019A0CF8200C0CF840
:1009A800102C049801300490E7E07A285DD84B2891
:1009B8000ED8472859D829282DD8252852D054D8B8
:1009C80020287AD02338D0F1000B4BEB000B74E0D1
:1009D8004C382E2849D8DFE800F070484848484885
:1009E8004848484848484B4848484848484848596B
:1009F800484B4B595959704B6D487048184B18481B
:100A080048827F4B48484B487F0000204FF0000B3E
:100A18004FF0040A38E001222A38C0B202FA00F086
:100A280010EA0E0F49D110F0625C2FD110EA020BC8
:100A380043D06046013C5444B4FBFAF40AFB04F486
:100A4800002D61D0A3EB050CA4446645FFF46BAF01
:100A5800002868D1042B47D159F8043B23600423AC
:100A680004342AE0019A013A01924FF0000B24E085
:100A780011F8010C6C2834D1002011F8023C83468F
:100A88006C2BC5D14FF0080A5346D3E709F1070983
:100A980029F00709073424F00704F9E802AB35B157
:100AA80006982044B0423FF63EAFC4E900AB4FF091
:100AB800000B08344FF0080A534611F8010F0028BC
:100AC80078D0BBF1000F7FF470AF2528F5D14FF037
:100AD800010B019B013301934FF0040AECE75846E0
:100AE80094E700208346A5E7082B02D06FF0150095
:100AF8001BE709F1070929F00709F9E80223C4E906
:100B0800002308230834D8E768B9042B02D109F177
:100B18000409A4E7082BE9D109F1070929F0070915
:100B280009F10809EDE7059A013A059259F8042BED
:100B3800009210E7039A900720D54FF0010CA4EB20
:100B4800050E4FEA9E00BEF5007FCFD20F2FCDD8FD
:100B5800F5B107F140020DEB020E019AC0B20EF892
:100B6800200C0EF8102CBCF1000F3FF41AAF60F007
:100B78007F000EF8200C08F101080137C5F10802C2
:100B88004FF6DA7E0434069297E74FF0000CDAE766
:100B9800BCF1000F01D00136EFE7029802360028B9
:100BA800EBD10098CDE90631FFF79CFCDDE9063171
:100BB8000644E2E7631BB3F5806F97D245B9A6F107
:100BC8000804E018B1E600BFA82A0300CCC503005A
:100BD800029A9B0828602B709DF81030C2B1EB7008
:100BE80085F80280B8F1000F05D0002208A8C5F1E9
:100BF800010C97420ED14FF0000AC5F101030DF127
:100C0800200901930DF1300B574512D1601B8CE67A
:100C18006B70E5E710F8013B190608D504EB0C0EDC
:100C2800764503F07F03FFF47EAE04F8013B013202
:100C3800DFE7B8F1000F03D099F90020002A17DB8D
:100C4800029BD3B11AF80B2004F8012B0022019B58
:100C5800981820448642FFF466AE99F8000000997F
:100C680004F8010B2046039231F0D9FE039A14448C
:100C78000AF1010A09F10109C6E799F8002055F8B7
:100C880022300093029B009845F82230FFF72AFC97
:100C9800421CDCE76FF00D0047E600BF2DE9F04F7E
:100CA80095B000AFBB61BB6F0446C3F3C0038A466F
:100CB80090F802B07A623B6141B9457800780BEB55
:100CC80080002044554517D8A0EB040AE3787B61DF
:100CD800BBF1000F02D0BB6FD80716D47B6953BB9A
:100CE8007B6A1BB151462046BA6998475546284643
:100CF8005437BD46BDE8F08F461C3046FFF7F2FB7F
:100D0800013030440AF1010ADCE7237862683B626B
:100D18009B00FB603B6AFA6104EB83097B6A002B4A
:100D280040F00381C8460026554609EB0B0AD0451A
:100D380055D1D94413E0BB6F9907D1D5237899468B
:100D48003B629B00FB60636804EB8909FB617B6A7B
:100D5800002B7ED15546BBF1000F53D15E46BB6FC9
:100D680013F0050F0CBF4FF0020B4FF0010B7B691E
:100D780009EB430ABB6F03F002037B62D145B6D08F
:100D880019F8021B19F8013C54F82380AB4B98451D
:100D980002D3AB4B98453CD33B69002B46D0F8694E
:100DA80022F047FD002841D0A648036813F0060F3B
:100DB80013D0E8468AB06A46A34B5361FB69C2E97F
:100DC80006314FF400731384A04B42F8103F002300
:100DD8004FF4125100F0E0FEC546023DCEE718F888
:100DE800013B54F82300FFF77DFBFB6F01303BB15B
:100DF800D7F880309E423EBFFB6F23F816000136BD
:100E0800054494E7BB6F13F004061CBF7E6AD944FF
:100E1800A5E73B6923B1F86922F00BFD0028C3D18F
:100E2800BB6FDA0705D4A5EB0B05A7E77B6A002B98
:100E3800A4D04046FFF756FBFB6F43B1D7F880308C
:100E48009E423FBFFA6F431C22F816300136054414
:100E580094E7BBF1000F6ED0BB6F13F004066DD0A2
:100E6800D846002607F140005A46494631F0D7FDDA
:100E78007B69D9445B007B607B6909EB4303BB60FA
:100E8800BB6F03F002033B60BB684B4558D1B96F99
:100E98006378B86F890748BF002106EB030258BF83
:100EA8004FEA5801C507D2B200F19A8010F0040F3A
:100EB80014BF40460020FB616270A070E1702046BC
:100EC800BA69F9687B6A9847051EFFF610AF3B6A56
:100ED80041462370FB69BA6963707B6984F802B084
:100EE800E37007F140007B6A9847B0F10008C0F250
:100EF800AF80FB68AAEB0B01C91A7B684846C91A80
:100F0800BA697B6A98470028C0F2A4804FF0000BAA
:100F1800A84408EB000507F1300AB34562D3002165
:100F2800BA6908467B6A9847E1E65E464FF00008D2
:100F380007F1300098E75E46D84699E7B04697E74C
:100F480019F8021B3D4B19F8015C54F8250098422A
:100F580002D33B4B98421DD33B6923B1F86922F079
:100F680068FC002890D13B68FBB908F1280307F119
:100F7800280208F1010003EB020C07F1500308F105
:100F8800020853FA80F00CF8101C5FFA88F800F891
:100F9800105C79E73B692BB1F86922F04AFC00281C
:100FA8007FF472AFBB6FDB0709D506F1280307F1A1
:100FB8002802711C9E1806F8205CCEB264E7BB6F4D
:100FC80058077FF561AF08F1280307F1280208F1F7
:100FD800010103EB020808F8105C5FFA81F853E797
:100FE800002068E71BF80A3054F8239087F82F3060
:100FF800FB6FFBB133F81B800121BA697B6A07F1EB
:101008002F009847002825DB0544B8F1000F06D1CA
:101018004846FFF767FA00F101081FFA88F84146C9
:101028004846BA697B6A9847002813DB05440BF1E8
:10103800010B72E7D7F87C80DEE700BFA82A03001F
:10104800CCC5030030030020334B0300040000012B
:1010580045464CE605464AE6014B1860704700BF16
:101068002000002080B505460E461746984621F018
:101078008FFA034631F00AFD0446DFF8189042461D
:1010880049F8003039463046A84754F8090003F0BB
:10109800A5FD00BF080000002DE9F04F89468168D2
:1010A800044685B0084622F06BFF461C0A463346C4
:1010B8002146654822F0E4FB644822F0E1FB002564
:1010C8004FF0010B04F10C0AB54236DBB9F1000F01
:1010D80066D05F4822F0D4FB0025DFF87891012222
:1010E8002946204622F028FFC30757D42946204620
:1010F80022F039FF00F12D062946204622F027FF6D
:10110800002207462946204622F016FF2946A5EB6D
:101118000008204622F021FF3B46CDE900803246F8
:101128002946484622F0ACFBA368AB4238D0294692
:10113800204622F012FF0546D1E75AF8043F5BB378
:1011480000271946B84620460393029122F0FFFE75
:10115800804538BF804602990322204622F0ECFEE3
:10116800039B0146834207F10107ECD1A3680BFA00
:1011780005F2B3F5004F34BF04230823013A03F105
:101188000801C3EBC803CDE9008302EBD1023B465B
:101198002946314822F074FB013595E72A26ABE74A
:1011A8000021204622F0D9FE0026D4F80880054602
:1011B800B8F5004F2CBF4FF008094FF00409374627
:1011C80045451ED3B8F5004F34BF042208224FF41A
:1011D8007A7102EBC802BB19D31A500801FB03004D
:1011E8000A21B0FBF2F0B0FBF1F201FB1200394624
:1011F800CDE900203246194822F042FB05B0BDE88F
:10120800F08F29460122204622F096FE10F0010FA9
:10121800294620460BD022F09AFEA6EB090606EBDB
:10122800C0062946204622F098FE0546C8E722F067
:101238009AFE0028F5D12946204622F088FEA7EB21
:10124800090707EBC007ECE7E74B0300144C030062
:10125800E94C0300F74C0300CF4C0300254D030075
:101268002DE9F047058B04462807904611D402293A
:1012780005F0070540F0CD80204622F092FE78B1B7
:101288000138218B042811D8DFE800F0C3106D85E0
:10129800950001290CBF45F0100545F02005258370
:1012A80088F31188BFF36F8FBDE8F08701F0070A54
:1012B800AA4500F0A6800027B9463E46A368002B41
:1012C80000F0BD8041F00801218388F31188BFF345
:1012D8006F8FA168002900F0BB800D68002900F01D
:1012E800B780334652462046D1F80480C047002DC7
:1012F80076D02B6829461D46F0E701F007035A1FF0
:10130800012A1BD8002221F00701062B276889B281
:10131800C4E9002209D13B4603E0628B01326283B3
:101328001B68002BF9D141F002012046218322F0ED
:1013380038FE00287BD041F0200177E0042B0AD149
:1013480021F0070189B22046218322F02AFE10B13C
:1013580041F020012183218B01F0070AAA4550D0D2
:101368000027B946AAE7236921F0070141F00601E1
:10137800062DD3F8009021832DD1B9F1000F40D06C
:1013880041F00801218388F31188BFF36F8F20464D
:101398003949C84729E021F00701236941F00401D0
:1013A80089B2042DD3F804902183E6D000274FF0AA
:1013B800040A3E4682E721F00701236941F005014E
:1013C80089B2052DD3F808902183D6D000274FF095
:1013D800050A3E4672E700274FF0060A3E466DE7CB
:1013E8002B4687E7B9F1000FD1D14FF02003EFF377
:1013F800118883F31288BFF36F8F238B23F00803C0
:101408002383258BEA062ED525F01003238305F0C8
:1014180007056669218B002EBFF66FAF002327688A
:10142800C4E9003321F0070141F001012183218B38
:101438004FF0000901F0070AAA457FF43FAF002FDB
:101448009BD041F00801218388F31188BFF36F8F87
:10145800002FC7D03D68394633465246204622F011
:10146800CCFD2F46F4E7AB067FF51AAF25F0200335
:10147800238305F00705FFE62F400200044608B560
:101488004FF02002EFF3118382F31288BFF36F8FBE
:1014980005F0FCFE204603F057FB034822F0F0F964
:1014A80003F0B2FCFCE700BF6D4D03002DE9F047E7
:1014B800044607464FF00109DFF8508014B9384652
:1014C800BDE8F08794FAA4F5B5FA85F509FA05F3AD
:1014D8002E0108EB05156FEA030A24EA03042B7BA7
:1014E800002BEBD058F806301B694BB9464473689B
:1014F80004222846196807EA0A0700F011FBDDE70D
:10150800284698470028D9D1F0E700BF9C2E030051
:1015180030B5002289B00F490F4831F007F8002292
:1015280000230024CDE906230E230C4DCDE9033416
:101538004FF440722846CDE90144094B094900940B
:1015480020F080FB0849284620F0B8FA204609B068
:1015580030BD00BF75150000A0080020E003002082
:101568007D180000B0D80020964D0300014820F0F7
:101578009DBC00BFC80300202DE9F04780461F48E6
:101588000F4623F003F90646002830D000252846E8
:10159800BDE8F087237B73B12368DB680BB1204675
:1015A800984723681B69D3B96368042220461968E1
:1015B80000F0B6FA013610344C45EBD3B8F1000F01
:1015C800E5D0002DE2D02846FFF770FF0546002F32
:1015D800F7D000214FF4A47020F0C0FFF1E72046B7
:1015E80098470028E0D00AFA06F31D43E2E70546CB
:1015F8004FF0010A024CDFF80C90DDE7E84E0020BE
:101608009C2E0300AC2E030008B5034608462BB1F8
:10161800044A136000F064FD002008BD6FF0150057
:10162800FBE700BF2400002010B5044C237813B951
:10163800034820F03BFC0123237010BD3CD7002059
:10164800C803002010B50446064823F09FF83CB1B3
:10165800054BD3E8EF1F0139C3E8E21F002AF8D190
:1016680010BD00BFE04E0020E44E002000200146DF
:10167800034BD3E8EF0FC3E8E21F002AF9D1704704
:10168800E04E002070B5FFF7F1FF0546074C084E05
:10169800B44200D370BD63685B792BB123685B6883
:1016A80013B12946204698471034F1E79C2E0300D1
:1016B800AC2E030010B5044C0449204622F0F7FE76
:1016C800034B1C6010BD00BFE8020020882F0300F8
:1016D800D84E002008B50023084A4FF40041137083
:1016E800074A08481360084A1360FFF78DFFFFF7A1
:1016F800E1FFBDE8084000F06BB900BF3DD700200E
:10170800E04E002091470200E44E002001460022EE
:101718000023014822F0ECBEE8020020014822F034
:1017280085BF00BFE8020020024B0146186822F07E
:10173800CFBF00BFD84E0020014823F005B800BF36
:10174800E8020020F8B5334B1878002860D0FFF77E
:10175800E5FF044670B1304BD3E8EF1F0139C3E809
:10176800E21F002AF8D12D4D2D4EB5422DD320462B
:10177800FFF7DAFF2B4B2C4C1B68002B19DD30F0E0
:10178800D3FE4FF47A72A0FB020302FB0131C30BB4
:1017980043EA4143D4E900209B1A40F2E9324FEA78
:1017A800D13161EB0001934271F1000101D3FFF7E0
:1017B80069FFD4E9003213F57A7342F10002C4E9F3
:1017C8000032BDE8F840FFF7B7BF6B685B793BB103
:1017D80021784B0706D52B68214628461B68984771
:1017E8001035C2E72388626813F4E07FC3F38217D9
:1017F800C1F3C201EFD0002AEDD00C4B2846D21A13
:1018080042F38F02012300F0A5F9B842E8D3E2E7DA
:10181800F8BD00BF3CD70020E44E00209C2E0300FA
:10182800AC2E0300E04E0020980800202C03002076
:1018380070B50D4D297861B90120FFF79DFE0B4C5D
:101848000B4EB44206D3FFF77DFF0028FBD10123DE
:101858002B7070BD63685B791BB1236820469B6859
:1018680098471034EDE700BF3DD700209C2E0300B9
:10187800AC2E030000212DE9F0470846FFF77CFE57
:10188800044658B340F267684FF0000931F0FEF89B
:101898001B4B1C4A1B58136033B11B4B1B68092B8D
:1018A80002DD1A4820F002FB0025194FDFF85CA082
:1018B80044B12046FFF7FAFD044618B94FF0FF3847
:1018C8004FF0FF39FFF73EFF064628B9B5B9424643
:1018D8004B46504620F010FB3546E9E74FF0FF38FD
:1018E8004FF0FF39D2E72B689B691BB100222846CD
:1018F800114698471035BD42F5D3E8E7054DFAE79C
:1019080008000000DC4E0020E44E0020C803002040
:10191800AC2E03009C2E030013B5184822F036FFA6
:10192800174B1B787BB14FF02003EFF3118483F33F
:101938001288BFF36F8FFFF705FF84F31188BFF399
:101948006F8F02B010BD0F4B1B68002BF9D050B938
:10195800002200230C48CDE900234FF40042002365
:1019680020F0FAFFEDE70928EBD1074830F0EAFD4F
:10197800064802B0BDE8104020F098BAE44E0020B6
:101988003DD70020DC4E0020A0080020C80300201E
:1019980010B5064B04461B6898472146A0600448CA
:1019A80022F024FEBDE81040FFF7B6BF2400002057
:1019B800E8020020044A054B9B1AB1EBD30F34BF51
:1019C80052F8310000207047042E03009C2E0300BB
:1019D80000210B480B4B30B51B1A0B4CDB080430AD
:1019E800994200D130BD10F83120256802F0070275
:1019F80025F007052A4344F8042B0131F0E700BF1E
:101A0800042E03009C2E03002C030020F8B5064684
:101A180000240A4F0A4DED1BED08AC4203D14FF0EC
:101A2800FF342046F8BD57F8340020B13146FEF7A0
:101A380047FD0028F5D00134EFE700BF042E03006E
:101A48009C2E03002DE9F843884615461E4698B992
:101A58000446224FDFF8889009E0384633462A4684
:101A68004146FFF7EFFF844238BF044610374F4521
:101A7800F3D32046BDE8F8831A4B1B4AD21AB5EBBC
:101A8800D20F28D203EBC5031C79B44228BF3446D1
:101A980007214368154E1A7956F8253002EB4202A1
:101AA800914023EA010304F0070101FA02F213430B
:101AB8000021032223FA02F000F00700814202F11C
:101AC800030238BF01461E2AF4D123F007030B4353
:101AD80046F82530CDE70024DAE700BF9C2E030046
:101AE800AC2E0300042E03009C2E03002C030020C0
:101AF800F8B506460F460024074D084BED1AED08C9
:101B0800AC4200D3F8BD002122B23B463046013436
:101B1800FFF798FFA4B2F3E79C2E0300042E0300FE
:101B280038B50D4611460A4B4268C31A1B110446C4
:101B38000133137143689971FFF7DAFF0122636873
:101B48001D6063685A71BDE83840FFF76DBD00BF7E
:101B58009C2E03000146184663B1002A14DB4B682B
:101B68000A491B7951F8220003EB4303D84000F0DF
:101B780007007047064B0749C91AB2EBD10F04D2C8
:101B880003EBC20318797047042070472C03002028
:101B9800042E03009C2E03002DE9F04F8FB0C1F3F3
:101BA8004A2804AF0D469146B8607B600C0DB8F129
:101BB800000F67D000264FF0040B4FF00A0A07F118
:101BC8001403C7F80C80C7E907667E620193CDF855
:101BD80008B0CDF800A007F11C0332464846F96862
:101BE800FFF75CF8B0F5006F034620D32A48036876
:101BF80013F0060F17D06C468AB0D9F8041004AB5E
:101C0800264D1A46C3E9055140F2FF71D9614FF4D8
:101C180000711984224B42F8103F4FF41251334699
:101C2800FFF7BAFFA5462C37BD46BDE8F08FC0F3D5
:101C38000A0804F11700184420F0070080083B60E8
:101C4800FFF764FD68F35325044690B13B6800F143
:101C58001001C7E9083607F11403F961CDE900A3BB
:101C6800CDF808B048460F4AF96807F11C03FFF79A
:101C780015F868F353252A4620467B68B96822F090
:101C8800C3FDD0E704F1170020F007008008FFF734
:101C98003DFD0446EDE700BF48030020AB4D0300BF
:101CA80004000001E54702002DE9F04F87B0044623
:101CB800DDE9105ADDE912690F4693469846A6B346
:101CC8001021334652460020CDF80090CDF81490EC
:101CD800FEF712FE014605F117000844144B04F004
:101CE80007040BF0070BE40020F0070003EA412388
:101CF80044EA8B1480081C430391FFF707FD44EA6C
:101D08000554054640B13EB1334652460399CDF8D5
:101D180000901030FEF7F0FD43462246394628462B
:101D280007B0BDE8F04F22F06FBD3146D3E700BFE2
:101D380000FE0F000EB403B503AB53F8042B0146A5
:101D48000448019303F0D4FA02B05DF804EB03B041
:101D5800704700BF0B490200CA0605D48B064CBF6A
:101D680002490349FFF7E6BF704700BFE84F030089
:101D7800EE4A03002DE9F04F89B09B46DDE916765F
:101D88009DF84C3004460493DDE914930593049BB5
:101D98000D460692002B00F0878006F00803079393
:101DA80022F00EFD06F0020A024600284BD020461B
:101DB8008549FFF7BFFF8046BAF1000F08D016F03B
:101DC800440F42D12A4620468049FFF7B3FF80449A
:101DD80006F001035BB17E4B049A204653F822209B
:101DE8007C4B7D49002A08BF1A46FFF7A3FF06F07F
:101DF8000803002B55D0794B049A204653F822202B
:101E08007749FFF797FF0546069B2BB11A462046F0
:101E18007449FFF78FFF0544BBF1000F05D05A4600
:101E280020467149FFF786FF05444544B9F1000F84
:101E380049D1002F4FD1F30700F1C0803146204629
:101E4800FFF78AFFB4E08046B6E7684B18680028B9
:101E5800BDD0674B4FF47A7E1B684FF46162B5FBC7
:101E6800F3F5B5FBF0F300FB13550EFB05F5B3FBDB
:101E7800F2FAB5FBF0FC3C2102FB1A3200FB1C55C0
:101E8800B2FBF1F30EFB05F5B5FBF0F501FB1322F0
:101E980020460092CDE901C552465649FFF74AFF50
:101EA80095E706F00805AFE7BBF1010F06D1B9F1D8
:101EB800000F64D1002F7BD000250CE0B9F1000F92
:101EC800F8D04D485CE04D484B4622464C4921F03D
:101ED8007FFC002F68D0DFF82C91DFF82CA1102FA1
:101EE80031462046B8464FF0000B28BF4FF0100887
:101EF800FFF732FF5D4545DC059B514620461A78C1
:101F0800FFF718FF4FF0010B1BF0070F03D14946ED
:101F18002046FFF70FFFD8453BD9059B5146204681
:101F280013F80B20FFF706FF0BF1010BBBF1100FA5
:101F3800EAD14FF0000B20463449FFF7FBFE5A4622
:101F4800059B20469A5CA2F120015F2928BF2E221A
:101F58002F49FFF7EFFE0BF1010BBBF1100F1DD05E
:101F68001BF0070F03D149462046FFF7E3FED8458B
:101F78005A46E5D849462046FFF7DCFEEBE71F48FE
:101F8800049DA1E749462046FFF7D4FE0BF1010B5B
:101F9800B0E720461F49FFF7CDFEC5E7059BB7EB25
:101FA8000807434405939AD1049B002B7FF443AF61
:101FB800204609B0BDE8F04F22F096BC2046054AFD
:101FC8000549FFF7B7FE39E7EF4D0300F34D03006E
:101FD8009C2F0300EA4D030055520300B02F030065
:101FE800184E03001E4E0300224E0300F04E002040
:101FF800EC4E0020FC4D0300394902000B49020059
:10200800F95200002F4E0300274E0300314E030003
:10201800074B03002D4E03002DE9F0410F884B6854
:1020280005460C4690468E6886B0C7F382175BB1AA
:10203800144A9B1A43F38F01002920DB2078C0F350
:10204800C200FFF7B7FC0346214651F8102B608801
:10205800C2F34A22002A01EB020408BF0021002231
:10206800C0F30B10CDE90408CDE902142846314627
:1020780001970092FFF77EFE06B0BDE8F0810023CD
:10208800E2E700BF2C03002042F20F7373B58B42C6
:1020980028BF0B4605680446052168460D4A21F00D
:1020A8000BF806466368284604225B680A4922F052
:1020B8000EFC63683246694628465B6822F007FCD6
:1020C8006368172228465B68044922F000FC02B0C6
:1020D80070BD00BF6BBC03004B4E0300334E0300C2
:1020E80000210123064A904206D8064A01B9012375
:1020F8001360054B18607047012140085B00F2E748
:1021080040420F00EC4E0020F04E0020014B0360CF
:1021180000207047C42F030013B504461FF00AFEC1
:10212800C0F307230193C0F3074300930821030E6C
:10213800034A204622F05EFD002002B010BD00BF19
:10214800704E030010B5044605F096F808210346C2
:10215800074A204622F04EFD2046064A082122F072
:1021680049FD214604481FF071FC002010BD00BF46
:102178000B4F03002A4F03008521000070B58EB075
:1021880004460D46D0F89C6030F028F8024630F03E
:102198007DFC254B1958254B2846002A18BF1346A5
:1021A800234ACDE90043234B8C4218BF134608212C
:1021B800214A22F01FFDD4E90A23CDE9022394F92C
:1021C8000E3028460093237B08211C4A22F012FD7A
:1021D80006A9202220461FF081FC626E0346009269
:1021E80008212846164A22F005FD204605A930F0A8
:1021F80005F8034630B108212846124A22F0FAFCB5
:102208000EB070BD6423059A2846B11A4B43B3FB40
:10221800F6F3CDE90021CDE90263082133460A4AE5
:1022280022F0E8FCECE700BF08000000344F030090
:102238002F4E0300B2620300374F0300434F0300E1
:102248006F4F0300864F0300B34F0300F0B500251E
:10225800044693B029460AAF1C220BA830F006FCAE
:10226800134E1A222021384630F000FC214611482E
:102278001FF0ECFB09AA4FF4006130462FF0B2FFC3
:1022880064224FF400630999CDE90057C1F5006055
:102298004243D20ACDE90403CDE902312046069231
:1022A80033460821044A22F0A5FC284613B0F0BDA5
:1022B800B0E30020B5230000EA4F030010B5044640
:1022C80024F05FFA08210346024A204622F092FCD5
:1022D800002010BD335003002DE9F34117460023B9
:1022E80004460A21B86801AA019301F04FFB019D39
:1022F800C6B255B12B4601212046144A22F07AFC79
:10230800019D284602B0BDE8F081042E0AD9334663
:10231800012120460E4A22F06DFC204622F087FC5F
:102328000125EEE77868FFF771FBB0F1000805DAE0
:10233800012120467B68074A22F05CFC00213346D5
:1023480008460FFA88F2FFF77DFBDAE749500300E9
:1023580070500300875003001346002273B50446EB
:1023680001920A21586801AA01F010FB019D95B954
:1023780020EAE0744FF40046294640F2E7304FF473
:102388007A720023C4FB0601FDF732FF20F0E6F85D
:10239800284602B070BD2B4601212046024A22F091
:1023A80029FC019DF4E700BFA6500300F0B50446E0
:1023B8000D46D0F89C6089B007A92FF01FFF03468F
:1023C80030B1082128460F4A22F014FC09B0F0BDAC
:1023D80020462FF003FF6423079A0B4FB11A4B4393
:1023E800002818BF0746B3FBF6F3CDE90221CDE973
:1023F8000463082123462846CDE90076034A22F0E3
:10240800F9FBE3E7864F0300344F0300C65003008F
:102418002DE9F04387B0054668461FF045F91423B7
:10242800009E082103FB0066164A284622F0E2FBBC
:10243800154F009CDFF85480DFF85490B44203D362
:10244800002007B0BDE8F08323680BB11A7832B9D1
:1024580023463A46142101A820F02EFE01AB42463D
:102468000821284622F0C6FB20462FF057FE094BCC
:102478000821002808BF4B46074A284622F0BAFB25
:102488001434DBE7445203004E5203005352030056
:102498003B52030035520300C65803008B1E022B23
:1024A8002DE9F04107468846144637D81022002106
:1024B800606820F0A3FEB8F1020F064607D120237A
:1024C80008213846244A22F095FB336816E00A2290
:1024D8000021A06820F092FEC5B22B46082138469C
:1024E8001D4A22F087FBB8F1040F1AD0102D0DD029
:1024F800202DEAD0082D0CD13378DBB208213846DC
:10250800164A22F077FB0020BDE8F08133889BB2A1
:10251800F4E708213846124A22F06CFB6FF01500E8
:10252800F2E710220021E06820F068FE0821034647
:1025380004460C4A384622F05DFB102D06D0202DAB
:1025480007D0082DE5D1E4B23470DCE7A4B23480BA
:10255800D9E73460D7E700BF8C520300B7520300B5
:10256800A1520300C85203002DE9F04F4FF0FF3588
:10257800914601220746884620262C46544BDFF810
:1025880054A185B01A60494652464046FEF7FEF807
:10259800411C07D16A1C52D14F4A0121384622F00A
:1025A80029FB1DE0732820D0772833D0612817D164
:1025B800DFF828B110220021DBF8000020F01EFE11
:1025C80005460028DFD130F061FA454B1B58162B21
:1025D800D9D1DBF80030434A0121384622F00AFB02
:1025E8006FF0150005B0BDE8F08F0022DFF8ECB001
:1025F8001146DBF8000020F001FE04460028C2D195
:1026080030F044FA364B1B58162BBCD1DBF800309F
:10261800354AE1E70022DFF8C4B01146DBF80000D4
:1026280020F0ECFD06460028ADD130F02FFA2C4BF7
:102638001B58162BA7D1DBF800302C4ACCE7631CBB
:1026480001D12B4AA9E75FFA86F8C6F3C406002C25
:102658003CD06B4629461A46A6EB050C0CE0B8F1AF
:10266800100F1DD0B8F1200F20D0B8F1080F2AD1D3
:102678000878187031443344A64203D80CEB0100A3
:102688001028ECD9102CA14628BF4FF01009294674
:102698004B46384601F0BAF81035A4EB0904D6E7E2
:1026A800088880B21870000A5870E3E708684FEA93
:1026B800102E187083F801E04FEA104E000E83F8D0
:1026C80002E0D870D6E708210A4A67E7204689E77A
:1026D80018000020165303001D530300CC4E0020A1
:1026E8000C000000DC520300EF5203000253030009
:1026F8003A530300A152030070B5104E04460D462C
:10270800337881B12BB10121BDE870400C4A22F029
:1027180071BA01233370082120460A4A22F06AFA66
:102728000123337004E083F001033370002BF2D1EE
:1027380029462046BDE8704022F096BA3ED70020D0
:10274800545303008F53030070B504463C48037884
:10275800182B02D10B78112B31D00B46013A8D186A
:10276800AB4225D18B5C0A780370A2F13003092BA8
:10277800344C04D922F02003413B052B04D82368AC
:102788003149CA54013323602368022B34D1102203
:1027980000212D4820F032FD2C4A136803F8010B64
:1027A80013602B4A1368013313600023236023E06E
:1027B80013F8016B182ED3D11E78112ED0D1244DC9
:1027C80008212B682046234A22F014FA20460021CB
:1027D800FFF792FF204B187870B9204A2B681168D0
:1027E800042B0ADC08B111602B6013F003010BD134
:1027F800126813681BBA136070BD0868043B00BAFE
:1028080041F8040B0120EBE75B4203F0030358BFD8
:102818005942022904D1126813885BBA9BB2EAE7CD
:102828000329E9D1106802681104C2F3074301F4CF
:102838007F010B4302F47F4213430360DCE700BFD0
:102848003FD70020F44E002041D70020004F002041
:10285800F84E0020B953030040D70020FC4E00205A
:102868002DE9F84F0023064615460C462949DFF89E
:10287800A8800B602949DFF8A890DFF8A8B088F88D
:1028880000300B60012C2F4655F804AF1ED90222E8
:102898004946504630F029F880B99AF80220003AA3
:1028A80018BF01229244504602221F4930F01DF8F9
:1028B80030B9012388F80030013CE3E70022F1E752
:1028C80049465046FDF7FCFDA8B904370022786850
:1028D800114620F01DFC0022144B11461860786840
:1028E80020F016FC124B134918603046FFF704FF1E
:1028F8000020BDE8F88F9AF800202D2AE6D19AF832
:102908000120002AE2D053465A460821304622F0D8
:1029180071F9D1E7F44E002040D70020F84E00208E
:10292800D3530300D9530300D6530300004F0020AC
:10293800FC4E00205127000007B50A482FF0EEFB97
:1029480060B10423084A0093126801230549074827
:1029580000F02CFE002003B05DF804FB6FF01200BD
:10296800F9E700BF8C2B030064310300AC2E030091
:1029780010B54468A3604023C4E9001242680821E6
:10298800D364114BD162136300231049C2E90E339B
:10299800C2E91133C2E90633C2E909331468536343
:1029A8001364116153611362C2F88830A36823B1BC
:1029B8001B6C13B1204606499847A3681B6A0BB1E4
:1029C80020469847002010BDF8FA0020F0FA0020B1
:1029D800DD2900002DE9F74304460D468368DB6BCB
:1029E80003B19847A368DB6A0BBB4FF0000905F1F8
:1029F80030084046EA6C01A921F0BBFB07460028D5
:102A080036D0A36801991B693BB302462046984714
:102A1800064628B33146404621F0C8FBB7424FF07E
:102A28000109E6D00020D5E90131984703E02046A6
:102A380098470028D9D1A368DB6963BB05F1100763
:102A48003846EA6A01A921F0E5FB064650BB204654
:102A580021F094FFC5F888602FE06FF05706D9E79A
:102A68000146404621F0A2FBB9F1000FE3D0D9E7B7
:102A78001648036813F0060F03D00221144A21F008
:102A880013FFA3681B69002BEED0012220460DF12D
:102A980003019847E8E7204698470028CED103B0BD
:102AA800BDE8F083A3680199DB685BB10246204664
:102AB80098470146384621F0C9FBD5E90131012084
:102AC8009847ECE76FF05701F4E700BF6403002074
:102AD8003A55030010B504468168083101F080F9C1
:102AE800A1682046BDE81040014A083101F01EB92E
:102AF8007C55030038B583680446D3F86432DB0795
:102B08001DD4C06922F0A1FD606803685B6898471E
:102B1800054620B9E06822F043FFA3681D71A36849
:102B28005B6B13B129462046984700222FF0AEFF71
:102B3800A368C3F80C23034B185802F04FF86FF042
:102B48000F05ECE708000000014921F0ABBF00BF0A
:102B5800E84F0300F7B5044680680D46D0F86432A4
:102B68005A0705D5002121F0C1FFE06822F0EAFEEE
:102B7800E368DB6873B9002D39D0A66806F142070F
:102B8800384621F089FF002833D0394606F5A17070
:102B9800FDF7A0FCA2682946E0680DF10603423261
:102BA80022F0D3FE58B9A06800F5A1714230FDF7B4
:102BB80091FCA068423021F06FFFADF80600204676
:102BC80022F037FBA368D3F860329B0603D50A4985
:102BD800606921F067FF204600F040FFA268BDF859
:102BE80006302046D387A268938722F08EFA03B076
:102BF800F0BD86F84201CDE7282F03002DE9F04FFC
:102C0800A7B004465422002111A82FF02FFF00235B
:102C1800CDE90533A36820464233029322F00FFB27
:102C2800204622F05BFA10B96069FFF78DFF002695
:102C38004FF0FF37B246B3463546B146A068142276
:102C4800002108302FF012FF204622F0F3F9A16886
:102C5800E0688A8F423122F0AFFE204622F02EFF34
:102C68000DF144080396DDE90532012A6DD0132BD6
:102C78006ED85FBBBBF1000F0AD0204622F03EFFA2
:102C88001423A26811A942320DEB030022F052F876
:102C9800B9F1000F0CD099F81130FE2B08D1059B23
:102CA80026AA02EB830252F8542C0AB10133059389
:102CB800A068059D4369002B40F0B680CEB1C3687B
:102CC8009E422DD00D9600F1080524E002234146CE
:102CD800029A06A822F02EF8D8F80420069903468E
:102CE800029231B101290AD148B16C4A204622F03A
:102CF8004AFB6FF00705284627B0BDE8F08F059B13
:102D0800002B34D0D8F8000001F08AF898B166B1E9
:102D1800A5680D9608350CAE0FCE0FC533682B602D
:102D28002046FFF7D7FE0125E5E75D4A0121204649
:102D380022F029FBDDE7059BCBB129462046D8F8D0
:102D4800002001F01DFA022809D1059B132B91D907
:102D5800069B022B8ED10121524B534AC6E703280A
:102D680005D0059B4FF0010B013305937BE7039BCF
:102D780033B94846D8F8001007AA22F0D2F8054619
:102D880008F10408013F9DB3EB68BBF1000F08D0C0
:102D9800F3B1204622F053FA204622F0B6F9434A0E
:102DA800C4E7ABB1AE46A368DDF814A003F1080C84
:102DB800BEE80F00ACE80F00DEF80030CCF80030B9
:102DC800AB682BB96B7CFE2B04BF2F7C07F1FF3758
:102DD800D5F804C0BCF1000F08D0AE460CAEBEE872
:102DE8000F000FC6DEF8003033606646A94603E0E0
:102DF800059B53B101230393069B17B9022B7FF45C
:102E080032AF059B013305932DE7A368DB6913B146
:102E1800DB68002BEED1264B012100932046119B45
:102E2800244A22F0B0FAE5E7037EA5EB0A05B3B120
:102E38004FF6FF72417EFF2918BF0A469D4202D312
:102E480013449D420BD98368012120461A4A22F077
:102E58009AFA2046FFF73EFE6FF015054BE7012171
:102E680021F039FEA06800F53E7021F058FEA368F5
:102E780011AA294602EB8A0220465B699847054653
:102E8800A0684FF0FF324FF0FF3300F53E7021F09D
:102E980016FE0021A06821F01EFE2CE78A550300CB
:102EA8009E550300FF550300A2500300BC550300C4
:102EB800EB550300DE58030023560300022210B529
:102EC800836804461A7183689B6BBBB921F0AFFD18
:102ED8008368D3F86432DB040BD50321084B094A15
:102EE80022F051FAA0686FF4805100F5197021F0B2
:102EF800B2FD2046BDE8104000F0FABE10BD00BF8C
:102F08003E560300555203002DE9F04F04468068F1
:102F18000121B1B000F5197021F092FDA3681B7969
:102F2800022B20D100230993A36860689E6B036875
:102F38001D6909AB0EB310221BA9A847099B93B1C1
:102F48000121A06821F0C7FD2046099A1BA9B047B6
:102F58000021A06821F0BFFDA3689B6B002BE3D183
:102F68002046FFF7ABFF6FF00101A06800F519706C
:102F780031B0BDE8F04F21F06EBD01220DF1230103
:102F8800A847099B002BEED09DF923209DF823101C
:102F9800002AA368C8DB5A79032A00F28D82DFE889
:102FA80012F004007A0291028B020D297BD00A29C3
:102FB80058D0B3F8642209296FF3CA02A3F864222F
:102FC800A06800F085803DD80029ADD0082900F020
:102FD800F1810346D3F860229207A5D50139162955
:102FE800A2D801A252F821F06D350000F733000095
:102FF800FF330000EF330000613500001D3400008E
:10300800312F0000312F0000312F0000312F000038
:10301800253400002D340000312F00005734000003
:10302800312F000061340000312F0000312F0000E3
:10303800312F0000312F000065340000312F0000CF
:103048008F3400001B2940D07F2900F0BF81A1F1F7
:1030580020025E2A0346BDD8012121F047FD9DF8D4
:103068002310B1E0D3F86422C2F3C7022AB1D3F81F
:103078006422C2F3C7020A2AACD1B3F8642261F30E
:10308800CA02A3F86422A568A98FC1B9284621F00D
:103098002DFDE06822F056FC6069FFF755FD2046DB
:1030A800FFF70CFF40E7D3F86422C2F3C702002AF7
:1030B800E3D0D3F86422C2F3C7020D2ADCE7204626
:1030C800FFF79CFDC5F81003E9E7012343712BE7DF
:1030D800D0F860329B077FF527AF012121F006FD6C
:1030E800A068838FFF2B3FF41FAF0025C28F00F12C
:1030F800420100F5A1702FF092FCA3681BA9DA8F9A
:103108000BA8134483F84251A268142302F5A17254
:1031180021F010FE0B9914293FF606AF30AB03EBF4
:10312800810343F8545CA368DA8F134493F8413061
:10313800202B02D0093B042B4AD800294BD100256B
:103148000A950A9B30AA02EB830353F854AC002675
:10315800504621F0A1FCB3468146B0463746394671
:10316800284616AA00F0D8FB034600283FD1012EB6
:10317800A76864D10A9B30AA02EB830353F8540C66
:1031880021F08AFC4146064607F10802284600F06D
:10319800C3FB0568284621F07FFC864205D0821BC8
:1031A80092B22046A91922F02EF9A068C38F0344D1
:1031B80093F84230202B31D0093B042B2ED9D0F87C
:1031C8006032DF072FD42021204600F05BFDABE6FC
:1031D8000129B4D9013900200CAB009301900AAB46
:1031E8001BAA21F0C9FE05460028AAD19CE61B6847
:1031F8004A465146184603932FF077FB60B9039B64
:103208001846FDF76FF9584538BF5846002E08BFD5
:10321800B8461FFA80FB01360137A0E70121204696
:1032280021F0A5FF80E6002121F06AFC202120463C
:1032380000F028FD0121A06821F062FC74E60490EA
:103248007FF672AE0A9A30AB03EB820252F8543C16
:10325800C1461846039321F01FFC049B05903B864A
:103268000496A26849462846083200F055FB039B9D
:10327800D0F800A009F101094BB1BAF1000F06D04E
:1032880019465046059A2FF030FB0028E9D1A1686D
:10329800BAF1000F4DD1A1F830A0049B013B049373
:1032A800DFD16069FFF750FC204600F021FD0A9B42
:1032B80030AA02EB830353F8540C21F0EDFB41468E
:1032C80011AA8146284600F027FB0746A0683968FE
:1032D800FF2200F5A1702FF01AFB3B684FF6FF772D
:1032E80008F1010AB84603935146284616AA0AF17E
:1032F800010B00F011FB002850D00022A1680368E0
:1033080001F2411111F801EF985C704503D110B139
:1033180001324245F6D1B9F1000F01D04A4506DB2A
:10332800BA42A8BF3A46013E012E97B236D0DA46D5
:10333800DAE79848069121F0AFFB069900EB0B07F6
:103348004A8DBFB2121A92FBF7F2504692B2079119
:10335800069221F0A1FB07993F1A088E069A00F100
:10336800010CA1F830C0B0FBF2F102FB110080B2F1
:10337800BFB260B906212046864B874ACDF800A027
:1033880022F001F83946204600F052FB85E7534603
:1033980006212046814A21F0F6FFF3E7002F3FF48B
:1033A800C3AD0399A7EB0902204692B2494422F023
:1033B8002AF8B9E5D0F860329E077FF5B5AD01214E
:1033C80021F094FB204622F03BF8ADE5D0F86032BE
:1033D8009D077FF5A9AD012121F088FBA368D3F8EB
:1033E80060321907EED4204622F00FF89CE52046FB
:1033F80021F02CFF98E5204621F021FF204621F0FE
:103408006DFE10B96069FFF79FFB0121A06821F0EC
:103418006DFB44E6204621F021FF85E5204621F09A
:1034280026FF81E5D3F860329B0603D55C496069C5
:1034380021F038FBA368D3F860329F0603D55949B9
:10344800606921F02FFB204600F052FC6CE500215A
:103458002046FFF77FFB67E50121F9E7204621F0C9
:10346800E8FE204621F0E3FA0121A06821F03EFBA6
:10347800A368D3F860329E067FF556AD4A49606965
:1034880021F010FB50E5204600F062FB0121A06806
:1034980021F02CFB48E55B2902D102225A7143E551
:1034A800D3F860329D0706D5622907D14FF0FF3166
:1034B800204621F080FEA3680022EFE76629FAD1B2
:1034C8000121F5E700225A71A268D2F86032980704
:1034D8007FF52AADA1F131031B2B3FF625AD01A1E4
:1034E80051F823F069350000753500008935000072
:1034F8005D350000312F0000312F0000312F000012
:10350800312F0000312F0000312F0000312F000033
:10351800312F0000312F0000312F0000312F000023
:10352800312F000061340000573400001D340000C2
:10353800F7330000312F000061350000312F000003
:103548006D350000312F0000312F0000312F0000B1
:103558007935000003235371204621F070FEE3E41F
:1035680003235371204621F064FEDDE403235371E5
:10357800A068D0F8601201F0010181F001015BE65A
:1035880003235371A368D3F860329B077FF5CCAC53
:1035980029E700BF2E4E0300825603005552030050
:1035A8002D2F0300322F0300282F03002DE9F043AD
:1035B800044680688846D0F80C1315461F4689B023
:1035C800002967D14FF445722FF050FAA36822689A
:1035D8001A60E06822F058FAA06800F53E702EF0F4
:1035E80026FE4FF42A794FF41A76A06830442FF05B
:1035F8000DF9A068002283190121484410362FF0E4
:10360800DBF8B6F52A7F09F11409EED10026A36983
:1036180002211E60A06866F3820500F5197021F08A
:103628000FFA5022A3685A851822A3681A85D4F87D
:103638000890D9F8000021F02FFA89F82C00A36827
:103648004146C3F860526068144A03681D682346FF
:10365800A8470546D0B90122A3681A71D4E90A011E
:1036680000220023CDE906230E230393109B4FF479
:103678000062CDE901730495094B00941EF0E2FA4B
:10368800A368C3F80C03616A1EF018FA284609B04B
:10369800BDE8F0836FF07705F8E700BFCB4A02007A
:1036A8000137000010B5044680680379012B1DD14D
:1036B8004FF0FF324FF0FF3300F53E7021F0FFF975
:1036C8002046082100F006FA206821F0E5F918B133
:1036D8000849606921F0E6F92046FFF7EFFBA0688A
:1036E80000F53E7021F01BFA002010BD6FF0850038
:1036F800FBE700BFE74F03002DE9F04104464068AF
:103708000E46036800219B681546984700284CD14F
:1037180026B12A462146E06921F080FF2046FFF7BE
:10372800C1FF002841D1224E224FDFF88C80A068CB
:1037380000F52A704FF0FF324FF0FF3303211FF0DE
:1037480045F90546A0684FF0FF324FF0FF3300F50A
:103758003E7075B121F0B3F920462B460121174A76
:1037680021F011FEA068BDE8F04100F53E7021F09F
:10377800D6B921F0A4F932460221204621F076F983
:103788003A462946204621F071F920464246012151
:1037980021F06CF9606803685B6903B19847A06819
:1037A80000F53E7021F0BBF9C1E7BDE8F08100BF2C
:1037B800FD2A0000112F00002B4B02008856030041
:1037C80010B5044608210C4A21F014FA20460821B5
:1037D8000A4A21F00FFA20460821094A21F00AFA7C
:1037E80020460821074A21F005FA20460021064A0A
:1037F80000F09CFA002010BD9F560300DD56030020
:103808003C570300905703002A580300F8B51E469A
:1038180017460B462F4A0821044621F0EBF96EB3F0
:10382800082120463B782C4A21F0E4F901256A0753
:1038380004D108212046294A21F0DCF9AE4223D9D7
:10384800082120467B5D244A21F0D4F90135102D4A
:10385800EDD108212046224A21F0CCF9D6B9082119
:1038680020461E4A21F0C6F90125AE422B4613D840
:1038780008212046194A21F0BDF918E00821204600
:10388800184A21F0B7F9012508212046154A21F0E8
:10389800B1F9DBE700252B46FB5C0821A3F12002E8
:1038A8005F2A28BF2E2320460F4A21F0A3F90135AD
:1038B800102D07D06B07D8D108212046074A21F0E0
:1038C80099F9D2E72046BDE8F8400821074A21F0D7
:1038D80091B900BF40580300274E03002F4E030044
:1038E800314E03002D4E0300074B030047580300D9
:1038F80010B5044613460A460146064801F0F8FC8E
:1039080023691B7923B12046BDE8104021F0B2B9E4
:1039180010BD00BF954C020038B50B46154648B996
:103928001449154A521AB3EB920F05D251F8235095
:10393800284638BD84680CB90025F9E70F4A944237
:103948000AD30F4A944207D218462946226890475C
:103958002B68002BECD1EFE70A4A944202D30A4ABB
:10396800944205D3246814225343E518E358F0E73A
:103978000133F8E7DC2E0300082F03001C2F030097
:103988001C2F0300082F03001C2F03000023F7B58A
:103998001646027804462D2A019305D16FF01503C7
:1039A8000020336003B0F0BD2FF070F805460B4FD0
:1039B8000A46C35101A920461FF020FCEB59222BCF
:1039C80002D16FF02103EBE7002BE7D1019BA34263
:1039D800E4D01B78002BE5D0E0E700BF0C00000026
:1039E8008368D3F860329B0603D50249406921F009
:1039F80056BB7047382F0300014921F050BB00BF68
:103A0800E84F03000A1E0DDC0ED042238168D1F86E
:103A18006012890608D5002A04494069B8BF524295
:103A280021F03DBB4123F1E7704700BF6358030015
:103A38000A1E0DDC0ED044238168D1F86012890675
:103A480008D5002A04494069B8BF524221F027BB73
:103A58004323F1E7704700BF635803002DE9F0479F
:103A68008568044605F14200FCF73CFD00239846B2
:103A780095F82C70DFF8549086B2A268558DED1B2E
:103A8800B54209DB002E1FDD4233606910491A4434
:103A9800BDE8F04721F003BB1D442A4492F842A038
:103AA80082F84280A26842331A444946606921F08C
:103AB800F6FAA3682B4483F842A0A3685B8DDB1B4E
:103AC800F61A00272B46D8E7BDE8F087A250030076
:103AD8005552030008290A4617D8836893F82E1010
:103AE800914212D083F82E208368082AD3F86032D6
:103AF80005D0990609D50549406921F0D0BA9B0639
:103B080003D50349406921F0CABA70476A580300CF
:103B18003D2F030038B50D4609780446FFF7DAFF54
:103B28006A78072A11D8A36893F82F1091420CD00D
:103B380083F82F20A368D3F860329B0605D5606907
:103B48000249BDE8384021F0AABA38BD73580300CD
:103B5800F8B5836804469A8F002A51D0D98F002976
:103B68004ED0413103F142050B441846A84206D312
:103B7800014611F80169202E39D0A84239D286B2FF
:103B88009DB2AB1B9BB2591C471CD21A0144384644
:103B98002EF052FFA268711B938F204613FA81F30F
:103BA8009387A36809B29A8F1344002283F84220AE
:103BB80021F0DDFAA368D3F860329A0603D51149DB
:103BC800606921F06CFA3B46082120460E4A21F034
:103BD800DAFB2046FFF704FFA368D3F860329B06A0
:103BE8000ED560690949BDE8F84021F058BA084681
:103BF800BCE7014611F80169202EC0D00846BCE791
:103C0800F8BD00BF422F030055520300462F0300A2
:103C18002DE9F04104460D4617460AB1FFF7E0FECC
:103C2800A368DA8FD3F86012423213444A071FD5CB
:103C38001846FCF757FC0646DFF8408096B9A3689B
:103C48009A8FDA87A06821F037FA20B107B115B149
:103C58006069FFF7D1FE69422046BDE8F04109B22C
:103C680021F085BA4146606921F019FA013EE5E77D
:103C780008212046024A21F086FBE0E7B2620300F1
:103C88005552030013B583688DF80710D3F86022E6
:103C98000446D00722D5D98F9A8F8A421ED0481C55
:103CA8009DF80720D8870B4483F84220A368D3F8EF
:103CB8006012890710D5D3F86032606913F0040FD9
:103CC80018BF2A22094921F0EAF9204621F006FA0C
:103CD80010B16069FFF790FE02B010BD01222046C6
:103CE8000DF1070121F05CFBF6E700BF074B03006D
:103CF80010B50446836802211B68084A21F043FB7B
:103D0800A368D3F860329B0707D52046FFF7A6FEC5
:103D18002046BDE8104021F007BA10BD55520300F7
:103D2800014921F0FEBC00BFE84F03002DE9F04F28
:103D38000E460021044617460D4689B0304603AAB0
:103D480001F10108FFF7E8FDB0B995B127B13A468E
:103D58000821204621F017FB00211E4FDFF878903C
:103D6800DFF878A0304603AA01F10108FFF7D4FD77
:103D780060B909B0BDE8F08F006810B1FCF7B2FB7C
:103D880080B2854238BF05464146D7E703688BB104
:103D98001A787AB1D0F804B04A46CDE90053082120
:103DA8003B46204621F0EFFABBF1000F04D16069D1
:103DB800FFF7B6FF4146D5E7524620463B46082165
:103DC80021F0E1FA6A1D5946204692B221F0B6FC6C
:103DD800F0E700BF915803007C580300224E03000F
:103DE800F7B50F6805460E46A7B13846FCF77AFBCB
:103DF80084B2094B2846009308213B46074A21F024
:103E0800C2FA2846E21C716892B203B0BDE8F040DD
:103E180021F094BC3C46ECE78D5803008356030020
:103E280010B507490446FCF74BFB38B12046054955
:103E3800FCF746FBB0FA80F0400910BD0120FCE712
:103E4800835803008658030010B583680446D3F8E6
:103E580060329B0603D50649406921F0E6FC5022F2
:103E6800A36800205A851822A3681A8510BD00BFD0
:103E78004A2F030008B5836908211B68024A20F00D
:103E8800B9FE002008BD00BF945803002DE9F34196
:103E98000F4A0821054620F0ADFE00230D4C0E4EBA
:103EA800DFF83880B44203F1010703D3002002B0E1
:103EB800BDE8F0816A6A9BB20192A2680821126883
:103EC80028460092424620F095FE30343B46E9E70A
:103ED800A4580300AC2E0300DC2E0300BC580300DA
:103EE80008B5024920F093FE002008BDE94F030001
:103EF8007FB5044600250E4EA2680DF10E03012180
:103F0800E06802F5A17221F020FDBDF80E00A3685B
:103F180050B103F5A173009332462B460821204681
:103F280020F068FE0135E7E783F8420104B070BD70
:103F3800CD58030010B5044620F08EFE0821034634
:103F4800024A204620F056FE002010BDCF53030041
:103F5800022907B50DD15368012101930C4B009339
:103F680013680C4A20F046FE6FF0150003B05DF8A8
:103F780004FB8368084AD3F86032082113F0020F63
:103F8800064B08BF1346064A20F034FE0020EDE732
:103F9800E4580300DB580300D7580300CC51030052
:103FA800F958030010B583680446D3F860329A06BE
:103FB80003D50749406921F038FCA368D3F860327B
:103FC8009B0603D50349606921F02FFC002010BD32
:103FD800512F0300562F0300F0B50129044685B080
:103FE8000CD05368012101935F4B009313685F4A1B
:103FF80020F000FE6FF0150005B0F0BD8368D3F81F
:104008006032990603D55A49406921F00EFC002513
:104018006FF0F9012046FFF7F5FCFA212046FFF77B
:1040280007FDA0684FF48072294600F5A1708DF84D
:104038000B502EF01BFD4F49606921F0F6FB6069BB
:1040480020F018FE4FF47A766068012203680DF1BB
:104058000B011F6903ABB847039BF3B9013E4FF44B
:104068007A70B6B22EF055F8002EEDD1A368D3F8C9
:1040780060329B0603D54049606921F0D6FB502287
:10408800A36820465A851822A36803211A853B4A4B
:1040980020F0B0FD6FF00700AEE79DF80B20A36895
:1040A8001B2A53D093F842111B29CDD1522A4DD146
:1040B8005A19002382F84231A66896F843215B2AF0
:1040C8002BD1022506F2431010F8011F2A463B297E
:1040D80005F10105ADB223D1FF2AC7D002F5A172BF
:1040E80016FA82F1002211F8010F18BBFA2A28BF2C
:1040F800FA22FA2B28BFFA2386F84201A1684A85DA
:10410800A2681385A368D3F860329A0603D51A49C2
:10411800606921F08AFB00206EE786F84231A5E746
:1041280003EB8303303901EB4301B5F5807F8BB294
:10413800CAD19BE7013502EB8202ADB2303800EB01
:104148004200B5F5807F82B2CDD18FE72B4401358F
:10415800ADB2092D83F842217FF676AF0022A3681D
:1041680083F8422182E700BFE4580300DB580300CC
:104178005C2F030044590300602F03000A59030011
:104188002DE9F04F07461546894689B021B11046FA
:1041980021F080FC00285BD1032455E05C463CE01C
:1041A80029460AF5A1702EF0CEFB0646002854D009
:1041B800FCF798F982B2601C3146013230442EF087
:1041C8003BFC2246594630462EF029FC4FF020038E
:1041D8003355BAF8403008F1010801331C44AAF8F5
:1041E8004040002401994B1C484603AA0193FFF75D
:1041F80093FB0646E8B100222846316821F0FCFD11
:104208000028EFD1D6F800B0D7F808A0BBF1000F0E
:10421800C4D05846FCF766F984B2BAF84030234453
:10422800FF2BBDDD2B46032138460D4A21F0ABF8A4
:104238000124B8F1000F07D0B8682A4600F1400100
:1042480000F5A17020F046FE204609B0BDE8F08FC9
:104258004FF0000802244146C5E70224E9E700BF01
:104268000C5E030001481EF0E5BD00BFC834030022
:1042780038B5044618B90F4B0F485B689847616812
:10428800B1F5683F10D0B1F5680F0DD00B4DA942BC
:104298000AD011F46861206807D0014608482DF05B
:1042A80070FF00232360656038BD14222EF0DEFB0A
:1042B800F9E700BF740200205E5E03002C5F5CA972
:1042C8007857002008B560B34368B3F5683F0ED04F
:1042D800B3F5680F18D0144A934220D000684FF005
:1042E800FF324FF0FF331DF067FD58B115E0012292
:1042F8000368D3E8EF1F002903D1C3E8E02F0028A3
:10430800F7D10AD1002008BD0368084A1B7803F5D5
:10431800807352F82330002BF4D00548F3E70548A2
:10432800F1E76FF4E040EEE72C5F5CA90000035072
:10433800E98FFFFFEA8FFFFF08B520B34368B3F5A5
:10434800683F09D0B3F5680F13D0114A93421DD0C6
:1043580000681DF0F3FC14E000220368D3E8EF1FA7
:10436800012903D1C3E8E02F0028F7D109D0094873
:1043780008BD00210368084A1B7803F5807342F8DA
:1043880023100020F4E76FF4E040F1E70348EFE77B
:104398002C5F5CA9E98FFFFF00000350EA8FFFFF45
:1043A80010B5044618B91D4B1D485B6898476368EB
:1043B800B3F5683F2FD0B3F5680F2CD0194A934254
:1043C80019D1236803BB4FF0FF324FF0FF3321466A
:1043D80015481DF00DFB08B923681BB90F4B13488E
:1043E8005B6898471422002120682EF03FFB4FF4A9
:1043F8006863636008E0B3F5683F0DD83A2B03D0D3
:1044080040F6BA629342DED120682DF010FF63684F
:1044180043F03A03636010BD054AF3E774020020D5
:104428005E5E03002C5F5CA978570020845E030061
:104438003A00003A08B506494023142205482DF0F1
:1044480092FEBDE80840044904481EF065BD00BF5F
:104458007852002078570020D0340300E434030059
:104468002DE9F84305460C4600AF002948D0DFF88F
:10447800A090D9F80030580742D0D1E900016E4623
:104488008AB06A46A3684FF00508DFF888C0C2E919
:104498000713C2E905C042F8108F00234FF42151D9
:1044A8004846FDF779FBD9F80030B546590727D0BB
:1044B800D4E903018AB06A466369DFF85CC0C2E9DF
:1044C8000713C2E905C042F8108F00234FF42151A9
:1044D8004846FDF761FBD9F80030B5465A070FD0BA
:1044E800E369012148460D4A20F0E7F9D9F8003080
:1044F8005B0705D0A36901214846094A20F0DDF988
:10450800214628461DF0DCF8BD46BDE8F88300BF0B
:104518005C030020B15E0300E05E03000F5F030050
:104528001E5F030030BFFFF7FDBF00BF124B134AE9
:104538002DE9F041D518013DB5FBF3F5DFF84080D2
:104548005D43104B074608EB0304013CB4FBF3F44E
:1045580003FB04540E1B30460B492EF060FA701909
:1045680042460021083E2EF081FAC7F8A86004F1FF
:104578000800BDE8F08100BF010000000000000055
:1045880008000000040000001C2F0300044B996879
:104598005869884203D003494FF080520A60704737
:1045A800F8D4002004ED00E0F8B5364C0646236840
:1045B8000D465B0703D02046334921F0BDFA334B43
:1045C8009B6ADF065CD52368580703D030492D481D
:1045D80021F0B2FA11202D4B9B6A190707D52368E1
:1045E8005A0703D02B49274821F0A6FA1220274F53
:1045F800BB6A9B0719D52368580703D02649214869
:1046080021F09AFA7B6BBA6A11060DD52268520717
:1046180004D00121214A1B4820F04FF926B11B4A3A
:10462800936A23F0800393621320184B9B6ADB077D
:1046380007D523685F0703D01949124821F07CFA8F
:104648001420124B9B6A9E0607D52368580703D08F
:1046580014490C4821F070FA15200C4B9A6AD106BF
:1046680058BF9A6A9A6A920642BF5A6A22F400525E
:104678005A629A6A42F0FF029A6200232B70F8BDD0
:104688001020A8E75C0300204C5F030000ED00E069
:10469800625F0300955F0300A85F0300C05F03002B
:1046A800D65F0300F55F030010B5334C2368580745
:1046B80003D02046314921F03FFA314B9B6A9901DA
:1046C80057D523685A0703D02E492B4821F034FACE
:1046D8001E202B4B9B6ADB0107D52368580703D0A4
:1046E8002949254821F028FA1F20254B9B6AD90221
:1046F80007D523685A0703D024491F4821F01CFA1C
:1047080002201F4B9B6A1B0307D52368580703D059
:104718001F49194821F010FA2120194B9B6A5903A7
:1047280007D523685A0703D01A49134821F004FA19
:104738002220134B9B6A9B0307D52368590703D094
:1047480015490D4821F0F8F923200D4B9B6ADA032F
:1047580007D523685B0703D01049074821F0ECF917
:104768002420074A936A6FEA03436FEA134393626C
:1047780010BD1D20ADE700BF5C03002024600300CE
:1047880000ED00E03C6003004F6003006960030037
:1047980093600300B1600300D6600300F06003007B
:1047A800F8B5374C064623680D465B0703D020460C
:1047B800344921F0C1F9344B9B6ADF0451D5236891
:1047C800580703D031492E4821F0B6F917202E4B4F
:1047D8009B6A190507D523685A0703D02C4928482E
:1047E80021F0AAF91820284FBB6A9B0519D5236820
:1047F800580703D02749224821F09EF9BB6BBA6AB3
:1048080011040DD52268520704D00121224A1C4800
:1048180020F053F826B11C4A936A23F400439362AC
:104828001920194B9B6A5B0507D523685F0703D0DE
:104838001A49134821F080F91A20134B9A6AD605B1
:1048480011D52368590703D015490D4821F074F98B
:104858001B200D4A936A43F47F43936200232B7015
:10486800F8BD1620B3E79B6A9A04F2D523685B0764
:1048780003D00C49024821F05FF91C20E9E700BF8A
:104888005C0300201B61030000ED00E031610300C0
:10489800955F0300426103005B61030070610300E0
:1048A8008B610300F55F03002DE9F0418AB0734B7B
:1048B8000446D3F80480002500AFC8F3080685F342
:1048C8001188BFF36F8F02F07F43B3F17F4F0AD196
:1048D80002F00C03082B15D169480368590702D068
:1048E800684921F029F900252C460023FB71F31EA5
:1048F800092B00F29E80DFE803F00A90938C9C9CC1
:104908009C9C9C9612074CBF0C460125EDE75C4E1B
:1049180033685B0703D030465B4921F00DF900236B
:10492800FB71564BDA6A900708D53368590703D0EC
:104938005649534821F000F900233BE0DA6A002A7F
:1049480004DA33685A07F7D05149F2E7DB6A5B00AB
:10495800F2D53368580703D04E49494821F0ECF89E
:10496800464BA1695A6942F480725A61BFF34F8F6E
:10497800BFF36F8F5A6931F8021C22F480725A61B2
:10498800BFF34F8FBFF36F8F4DF60272914207D07E
:104998009A6AD2B282B30120F91DFFF705FE3AE008
:1049A8003368590705D0236801213B4A34481FF072
:1049B80084FF2368FA79DAB907F1080604F1200CB4
:1049C800324620686168083403C264451646F7D148
:1049D8007A6A002D4DD0C2F3080121B96FEA52223C
:1049E8006FEA42227A62184607F10801FFF738FD9C
:1049F8002837BD46BDE8F0819A6A12F47F4F04D08B
:104A08000120F91DFFF7CCFE05E09B6AB3F5803F56
:104A180092D3FFF749FE0346CCE70020F91DBCE717
:104A28000020F91DEEE7164803685A0784D01B4991
:104A380080E7134803685B073FF47EAF184A18F411
:104A4800F87FE8468AB0174B18BF13466A461649DE
:104A5800103EC2E905134FF400731384134BD6615B
:104A680042F8103F00234FF41151FDF795F8C54661
:104A780062E722F4FF7222F00102B3E700ED00E0E2
:104A88005C030020D1610300FC6103001362030092
:104A98003462030042620300616203007D62030026
:104AA800B8610300A3610300A162030004000001D0
:104AB800044B5A6942F010025A615A6942F4806202
:104AC8005A61704700ED00E0EFF30880EFF30981C9
:104AD80001B57246FFF7E8FE01BD00BF002080F374
:104AE8001488BFF36F8F002080F30A8880F30B8847
:104AF80000F098FD002011490860BFF34F8F10485F
:104B080080F3088800F044F8202080F311880D48CD
:104B18004FF0AA014FF400622DF00BFB09484FF447
:104B28000061401880F30988EFF3148002210843DC
:104B380080F31488BFF36F8F00F00CF994ED00E058
:104B4800F0F40020B0E30020BFF34F8F0549064B77
:104B5800CA6802F4E0621343CB60BFF34F8F00BF13
:104B6800FDE700BF00ED00E00400FA050023184649
:104B78000649D1F89020C2F30722934200DB704720
:104B8800C1F89830C1F8A0000133F6E700ED00E065
:104B980010B572B6002484F31388FFF7E7FF2346A5
:104BA8004FF0FF300C4A03F120010133102B42F87B
:104BB8002100F8D100234FF0FF30074A03F16001CC
:104BC8000133102B42F82100F8D162B6BFF34F8FA2
:104BD800BFF36F8F10BD00BF00E100E0084B9B687A
:104BE80083420BD1EFF3058343B1064B5A6842F079
:104BF80080525A605A6A22F400425A622DF035BC3B
:104C0800F8D4002000ED00E06FF00A01094A93682B
:104C1800C3F8B0100849C3F8AC004B6843F08053A0
:104C28004B60002383F31188BFF36F8F9368D3F829
:104C3800B0007047F8D4002000ED00E017498A68FA
:104C48004FF030001044EFF3098C80E8F01F20206B
:104C580080F31288BFF36F8F114F4FF000664A69D7
:104C68008A603E604FF0A804141920680D4C20603B
:104C7800D2F8AC000023C2F8AC3080F3118802F1FE
:104C8800300090E8F01F8CF3098802F1000004B5A9
:104C980020F05AFFBDE8044070470000F8D4002017
:104CA80004ED00E0945700201EF0040F0CBFEFF352
:104CB8000880EFF30980816911F8021C0229FFD0EE
:104CC80001B520F02EFF01BD40B2002807DB01230B
:104CD8004109034A00F01F00834042F82130704721
:104CE80000E100E040B200280CDB0122064943093C
:104CF80000F01F008240203341F82320BFF34F8F7C
:104D0800BFF36F8F704700BF00E100E0054B420919
:104D180053F82220012300F01F0003FA00F010408E
:104D2800704700BF00E100E040B2002801F1010136
:104D3800ACBF00F16040064B4FEA4111C9B2ABBFAE
:104D480000F5614000F00F0080F800131954704717
:104D580014ED00E00B4A08B50B4B22F07F029A6075
:104D6800BFF34F8FBFF36F8FD3F8882022F4700200
:104D7800C3F888201CF06CFD1DF022FC00F07AF8C6
:104D88001CF0B4FD0000000000ED00E042F8203CFB
:104D9800009B0B4942F81C3C019B21F0010142F8A1
:104DA800183C029B42F8081C42F8143C4FF08073F0
:104DB80042F8043C0023203A0265C0F8AC30704742
:104DC8006D1000000B4BD0F8A84098600A4B1C608F
:104DD800D0F8983083F30B88104681F309880021B6
:104DE80063B681F31188BFF36F8F00220023FCF7AD
:104DF80039F900BFF8D40020945700200149102247
:104E08000A60704710ED00E072B6404080F31188E8
:104E1800BFF36F8F01B500F0FFFA00280AD0BFF387
:104E28004F8F30BF00BF00BF00BF00BF00BF00BF33
:104E380000BF00BFBDE8014062B6BFF36F8F704787
:104E480072B6494081F3118801B500F0E5FA0028EF
:104E58000AD0BFF34F8F20BF00BF00BF00BF00BF05
:104E680000BF00BF00BF00BFBDE8014080F311884C
:104E780062B67047002320210348C2180133452B2E
:104E880082F80013F9D1704700E100E001B5EFF3B3
:104E98000580A0F110004FEAC0000449014409C987
:104EA8009847BDE80140024908470000DC2B030091
:104EB800954500001FB5094C094A234601210948B8
:104EC80000F014F900230393074B0121E41A01A809
:104ED8000193029400F014F904B010BD00000720FB
:104EE80000000020F4340300E003002010B50C7A21
:104EF8000B6804F01F0223F01F031A43CB686409F0
:104F080023F01F03054943EA440343F00103C1F8B2
:104F18009800C1F89C20C1F8A03010BD00ED00E059
:104F2800072810B504460BD9074803685B0704D067
:104F380001212346054A1FF0C0FC6FF0150010BD83
:104F4800FFF7D4FFFBE700BF58030020B862030057
:104F58002DE9F04F8946144606464FF00008544D97
:104F680085B0C8452EDAD6F804A0BAF1000F4BD0A8
:104F7800BAF11F0F1BD91AF01F0F18D1D6F800B0BD
:104F88001BF01F0F13D1584620F0E3FD07460AEB2C
:104F98000B00013820F0DDFD874217D06FF01507B0
:104FA800444803685B070BD0434A3B4605E0414849
:104FB80003685A0704D04346404A01211FF07DFC8C
:104FC8006FF01504204605B0BDE8F08F17F1160FF5
:104FD800E6D0BC42E4DDC5F89870D5F89C10C5F859
:104FE8009870D5F8A03021F01F0143F01F0BD6E9C7
:104FF80000321A44994202F1FF3A1DD1D34507D134
:105008003146F8B220F0AEFD08F101080C36A8E7E9
:105018003146C5F89870D5F89C3022F01F0203F08D
:105028001F031343C5F89C30E0B220F09BFD10F13C
:10503800160FC5D0441CE7E7C5F89870D5F8A0202E
:10504800013B23F01F0302F01F021343D3453146EF
:10505800E0B2C5F8A030E8D020F084FD10F1160FBA
:10506800AED0C5F89870D5F89C209DF808300BF1A3
:10507800FF3B62F304038DF80830D5F8A0309DF8A3
:1050880008205B0863F347128DF80820D6E9003240
:105098001344009323F01F035B44A3EB0A0301307E
:1050A80023F01F036946C0B20393FFF739FFBEE739
:1050B80000ED00E05803002001630300DE620300F6
:1050C8000522044BC3F89420BFF34F8FBFF36F8FB3
:1050D800704700BF00ED00E0BFF35F8F0022024B76
:1050E800C3F89420704700BF00ED00E010B5034CF2
:1050F8002278FFF72DFF207010BD00BF61D7002078
:105108002DE9F74F294D8A4606464FF00008AB4671
:10511800274FD0451BDAD6F80490B9F1000F3FD0DD
:1051280031680846019120F014FD0199044609EB05
:105138000100013820F00DFD84424FF014021D4B90
:1051480008D002FB08F36FF015024BF8032003B0F8
:10515800BDE8F08F14F1160F2C60F8D01978A14231
:10516800F5DD02FB08B0C7F89840C7F89840D7F8B3
:105178009C4000F10801007B64F304000871D7F833
:10518800A0000C79400860F347140C71D7F89C1004
:1051980021F01F016960D7F8A01021F01F012961D3
:1051A80008F1010814350C36B3E700BF9857002002
:1051B80000ED00E061D70020F0B53C4D87B02C68C9
:1051C800082C6FD80020FFF787FF394B394AC3F8FE
:1051D800C02084420DD1384D01A82C70FCF796FFF1
:1051E80000240646354FA6420AD1FFF769FF002082
:1051F80056E0696801EB0011FFF778FE0130E8E737
:105208000199200101EB0413DA683A40B2F5001F56
:1052180022D0B2F5800F2CD0B2F5801F36D15A6853
:105228009B680958013B22F01F0003440120844673
:1052380023F01F0340EA4C10CDE902218DF810003D
:1052480002A928780593FFF76BFE002826DB2B7848
:10525800013401332B70C6E75A689B680958013B33
:1052680022F01F0003444FF0020C012023F01F031B
:10527800E0E75A689B680958013B22F01F00034485
:105288004FF0000C062023F01F03D3E70C480368F7
:105298005B0703D001210B4A1FF006FB6FF01500D6
:1052A80007B0F0BD4FF0FF30FAE700BF003503004C
:1052B80000ED00E0AAFF440061D700200000F0FFE5
:1052C800580300202463030008B5024B1B68984765
:1052D800002008BDAC570020034B044A186093789F
:1052E80043F0020393707047AC57002088000020F9
:1052F800F0B587B007460E461446002110226846CE
:105308001D462DF0B3FB02238DF80230054B2A46CB
:1053180021466846CDE9047601931DF0D5FF07B014
:10532800F0BD00BF9F5B020008B504481EF0A8FA54
:10533800404080F311884FF0020002DF55630300FC
:1053480008B50649064821F00701C1F1005202F5E7
:10535800E0221EF099FD002008BD00BF3FFB0020A1
:10536800B057002007B50DF1070021F035FA114BB1
:1053780098421CD14FF480620F4B1049C3F8B825EE
:105388004FF40062C3F83C259DF8070021F010FA9D
:105398000B499DF8070021F006FA01209DF8073017
:1053A800984002F0CDF8002003B05DF804FB6FF0E0
:1053B8000B00F9E70000AD0B00A002502CA0025032
:1053C80028A10250054B03EB8000D0F8003223F0EF
:1053D800E04343F04053C0F8003270470025845042
:1053E800012208B50A4B0B49C3F800250223002007
:1053F800C1F8D036FFF7E6FF1046FFF7E3FFC1F824
:105408000427C1F80429C1F8002B002008BD00BFFB
:105418000010005000400050052370B5144D154E83
:105428002C780134B4FBF3F303EB8303E41A21F083
:10543800A8F9114A137823B156F82430C01A07285E
:1054480014D94FF05023D3F8141141B10021C3F8F7
:105458001411D3F814312C700CB9012313702C7863
:1054680021F08FF946F82400012070BD0020FCE7E8
:1054780063D70020BC57002062D7002048B1054BF5
:10548800054A1B68B3FBF2F35843044B43F001038E
:10549800184770474C01002040420F00802F03003E
:1054A80070B5049CC4F30726304601F0F5FCE5B25C
:1054B8000146284621F088F900220120074BA40B59
:1054C80004F0FC041A51A84002F040F8304601F0FC
:1054D80097FE2846BDE8704002F02CB980A0025023
:1054E80073B501A802F020F9284B98424AD101F07F
:1054F80069FE041E0DDA9DF8040002F01BF9244829
:1055080003685B073BD001212346224A1FF0D5F9E7
:1055180035E040F60703204D8DF80540AE68ADF83C
:1055280006307468019B14B96FF05704E7E7082147
:1055380028461A4AA047041EE1DB3369002BF3D042
:105548000122082128469847041ED8DB01209DF82F
:105558000430984001F0F4FF9DF805009DF80450D0
:105568009DF8076021F0F8F80146284621F020F957
:105578000B4BB60045F000459D51002CBFD120468D
:1055880002B070BD6FF01204B9E700BF0000AD0BA8
:105598007003002077630300A02B0300AD550000C3
:1055A80080A102502DE9F341144683681B690BB1B1
:1055B80000229847C4F30726304601F075FC0546DB
:1055C800304621F0C9F84FF00008E7B201463846E6
:1055D80021F0FEF8104B220E920043F8028030466C
:1055E80001F05AFC0D4A4FEA943C0CF0FC0C47F0D1
:1055F800004342F80C300146384621F0D4F8084BF5
:1056080005F132020093304643460194520021F0DE
:10561800ACF802B0BDE8F08180A1025080A0025031
:10562800A954000001F06EBE084B70B5C31A0D46B0
:1056380007499B10044659434022064820F0FBFBCB
:105648002B4601462046BDE870401847E457002025
:10565800B76DDBB6502B0300402373B50B4C00939A
:10566800041B0B460D460A49A41061430646094A25
:10567800094820F00CFC011E05DA30462B4602B022
:10568800BDE87040184702B070BD00BFE457002065
:10569800B76DDBB6015F0200502B03002DE9F8431C
:1056A8000022012106460520FFF73EFB114801F0C4
:1056B80053FF114B984219D101F05EFF00244FF0BF
:1056C8001C090C27DFF834803569414609FB045072
:1056D8001EF0B7FC002807DB012307FB04551C4418
:1056E800042CAB67F0D10020BDE8F8836FF004000C
:1056F800FAE700BF3D5700000000AD0B2835030056
:1057080001460C2300224B4370B50848C41878336F
:105718001844D4E91C56226720F07AFB2DB1324692
:105728002B46BDE870400248184770BDE45700207A
:10573800502B0300062812D8DFE800F0040F1111DF
:10574800110D0B00064B986F10F0070007D1FFF7FB
:10575800D7BF0220FBE70320F9E70120F7E77047EE
:10576800E457002008B54FF02003EFF3118183F3CD
:105778001288BFF36F8F124A136843F0020010605B
:10578800DA0708D481F31188BFF36F8FBDE80840AA
:10579800012001F009BF4FF05023D3F80C24D3F8AF
:1057A8000C34DB07EED5074820F032FB81F3118873
:1057B800BFF36F8FBDE808400020FFF7A1BF00BF0F
:1057C800845800205C5800207FB500220123CDE9D1
:1057D800022304ABCDE90433094A6B46CDF800D067
:1057E800CDF804D020F081FB002805DB4FF480427F
:1057F800002368461CF080FB07B05DF804FB00BF7F
:10580800375F020010B54FF02003EFF3118483F3E4
:105818001288BFF36F8F074A136823F00201DB0772
:10582800116002D4012021F08AF884F31188BFF3B3
:105838006F8F10BD845800202DE9F04101220746E2
:105848003749D1E8EF3FC1E8E02F0028F9D133B953
:10585800344935484B60CB608A601EF005FC7B1EDE
:10586800012B2BD8012F07D14FF05023D3F81C342C
:1058780003F00303022B21D02CF0AAFC0546F8B94B
:105888002A4B1B78E3B14FF0502302220646C3F897
:1058980008234FF05024DFF89880D4F81824D4F85F
:1058A8001834D20316D503F00303022B01D0012FBD
:1058B80010D175B386F31188BFF36F8FBDE8F081FF
:1058C8004FF02003EFF3118683F31288BFF36F8F35
:1058D8000125DEE7C5B13046FFF7B2FAD4F818352E
:1058E800DBB2012BD9D1D4F80421002AD5D000226B
:1058F800C4F80421D4F804210222C4F8182520226F
:10590800C8F88021A360C8E7002121201CF026FEEA
:10591800E4E74FF050230222C3F80423CEE700BF88
:10592800E0570020D057002000580020ABD80020B6
:1059380000E100E008B507482CF0F0FB38B1064854
:10594800FFF7CAFC0448FBF787FB002008BD6FF08F
:105958001200FBE78C2B0300655900000A2838B5B4
:105968000446074D04D1AB680D2128465B6898476B
:10597800AB6803485B68E1B29847204638BD00BF72
:105988008C2B030008B5054803685B0703D0012189
:10599800034A1EF089FF6FF0850008BD3C03002014
:1059A800E263030008B5054803685B0703D00121DB
:1059B800034A1EF079FF6FF0850008BD3C03002004
:1059C800FD63030008B5054803685B0703D00121A0
:1059D800034A1EF069FF002008BD00BF3C030020F9
:1059E8001C64030008B5054803685B0703D0012160
:1059F800034A1EF059FF6FF0850008BD3C030020E4
:105A08004464030008B5054803685B0703D0012117
:105A1800034A1EF049FF6FF0850008BD3C030020D3
:105A28005A64030070B54668054670682CF076FB2A
:105A380058B95F480368590703D05E4A01211EF030
:105A480033FF6FF01204204670BD306918B12CF096
:105A580065FB0028EDD0F06906F11C042CF05EFB14
:105A680028B9534803685A07EBD0534AE6E720465B
:105A78004FF4003120F05EFA041E09DA4C4803683E
:105A88005B07E0D023464D4A01211EF016FFDAE7F6
:105A9800706AB8B124362CF041FB28B94448036831
:105AA8005E07CED0464AC9E74FF4B011304620F021
:105AB80041FA041E06DA3E4803685D07C3D0414A2E
:105AC8002346E1E76C68636A83B1243401212046E8
