:1000000078F50020094D000009660200F54C00005B
:10001000F54C0000F54C0000F54C0000F54C0000DC
:10002000000000000000000000000000D54E0000AD
:10003000F54C000000000000694E0000F54C000087
:10004000B9500000B9500000B9500000B95000008C
:10005000B9500000B9500000B9500000B95000007C
:10006000B9500000B9500000B9500000B95000006C
:10007000B9500000B9500000B9500000B95000005C
:10008000B9500000B9500000B9500000B95000004C
:10009000B9500000B9500000B9500000B95000003C
:1000A000B9500000B9500000B9500000B95000002C
:1000B000B9500000B9500000B9500000B95000001C
:1000C000B9500000B9500000B9500000B95000000C
:1000D000B9500000B9500000B9500000B9500000FC
:1000E000B9500000B9500000B9500000B9500000EC
:1000F000B9500000B9500000B9500000B9500000DC
:10010000B9500000B9500000B9500000B9500000CB
:10011000B9500000B9500000B9500000B9500000BB
:10012000B9500000B9500000B9500000B9500000AB
:10013000B9500000B9500000B9500000B95000009B
:10014000B9500000B9500000B9500000B95000008B
:04015000B9500000A2
:04015400FFFFFFFFAB
:100158007BB972B90029BEBF00204FF0004106E00C
:1001680008BF00281CBF6FF000414FF0FF3000F0BF
:1001780057B8ADF1080C6DE904CE002909DB002B56
:100188001ADB00F04FF8DDF804E0DDE9022304B0E3
:100198007047404261EB4101002B1BDB00F042F845
:1001A800DDF804E0DDE9022304B0404261EB4101DF
:1001B800524263EB43037047524263EB430300F040
:1001C80031F8DDF804E0DDE9022304B0404261EBD8
:1001D80041017047524263EB430300F023F8DDF816
:1001E80004E0DDE9022304B0524263EB43037047A5
:1001F80053B94AB9002908BF00281CBF4FF0FF3186
:100208004FF0FF3000F00CB8ADF1080C6DE904CEEA
:1002180000F008F8DDF804E0DDE9022304B07047D7
:10022800704700BF2DE9F04786468C460846089E71
:10023800154674461946002B40F0C1808542B2FA33
:1002480082F245D94AB1C2F1200300FA02FC954076
:1002580094402EFA03F343EA0C0C4FEA154EA8B269
:10026800230CBCFBFEF80EFB18CC08FB00F943EA94
:100278000C43994528D9EB1808F1FF3704D2994562
:1002880002D9A8F102072B44A3EB0903A4B2B3FBDC
:10029800FEFC0EFB1C330CFB00F044EA0344A042B6
:1002A80014D92C190CF1FF3304D2A04202D9ACF1B5
:1002B80002032C44241A43EA07401EB1D440002309
:1002C80034607360BDE8F0874746DDE76346F1E7D1
:1002D80092BB431B01214FEA154EAFB2200CB3FB72
:1002E800FEFC0EFB1C330CFB07F840EA0343984561
:1002F80061D9EB180CF1FF3004D2984502D9ACF162
:1003080002002B44A3EB0803A4B2B3FBFEFC0EFBD4
:100318001C330CFB07F744EA0344A7424DD92C19B8
:100328000CF1FF3304D2A74202D9ACF102032C44EA
:10033800E41B43EA0040C0E7C2F120039540944023
:1003480020FA03F12EFA03F34FEA154E9040AFB2AC
:100358000343B1FBFEFC0EFB1C10190C0CFB07F849
:1003680041EA0041884522D969180CF1FF3004D2CE
:10037800884502D9ACF102002944A1EB08019BB2DF
:10038800B1FBFEFC0EFB1C110CFB07F743EA014313
:100398009F420ED9EB180CF1FF3104D29F4202D9CB
:1003A800ACF102012B44DB1B41EA004193E76046B4
:1003B800E3E76146F7E76046A4E76346B8E78342A8
:1003C80006D916B9002108467CE7C6E900E0F9E736
:1003D800B3FA83F78FB9834201D3724508D8BEEBCD
:1003E800020460EB030301209C461EB9002169E763
:1003F8003846FAE7C6E9004CF8E7C7F1200CBB40DD
:100408000EFA07F522FA0CF42EFA0CF1BA401C4346
:1004180020FA0CF3B8404FEA144901431FFA84FE4E
:10042800B3FBF9F809FB18300B0C08FB0EFA43EA8A
:1004380000439A4540D9E31808F1FF3004D29A45A1
:1004480002D9A8F102002344A3EB0A0389B2B3FB43
:10045800F9F809FB183308FB0EFE41EA03418E4503
:100468002CD9611808F1FF3304D28E4502D9A8F1BE
:100478000203214443EA0040A1EB0E01A0FB0298CD
:100488004145CE46434602D306D14D4504D20138F4
:10049800B9EB020E68EB0403002EA7D0B5EB0E02F1
:1004A80061EB030101FA0CFC22FA07F3F9404CEA6C
:1004B8000303C6E9003199E74046C5E74346D9E753
:1004C80010F8012B11F8013B012A28BF9A42F7D0F6
:1004D800D01A7047034611F8012B03F8012B002AA4
:1004E800F9D17047034613F8012B002AFBD1181ADB
:1004F80001387047000000002DE9F04706460F4616
:1005080090468AB032F0DAFD4FF47A73A0FB0345C7
:1005180003FB0155E40B012F44EA45444FEAD53566
:1005280008D108213046CDE90045294A25F0CDF803
:10053800002013E0D8F8047026483946FFF7C0FFBA
:1005480078B139462448FFF7BBFF50B130463B46E7
:100558000121224A25F0B9F86FF004000AB0BDE87D
:10056800F087204618A3D3E900232946FFF7F0FDBA
:1005780005460C4610461946194A0023FFF7E8FDC0
:1005880080460F46104619464EF660220023FFF7B4
:10059800DFFD82468946104619464FF47A720023D9
:1005A800FFF7D6FDCDE904A9CDE90601CDE9082379
:1005B80008213046CDE90287CDE90054094A25F0E3
:1005C80084F8B5E7AFF30080005C26050000000062
:1005D8003C5B03004D5B0300505B0300595B030069
:1005E80080EE3600705B030010B50A4C0A4823F011
:1005F800B2FE23785BB1002019F028FE01460748B7
:1006080030F06DF9237883F00103237010BD0320C7
:10061800F2E700BFE20200209A550300D44E002002
:1006280010B5017803290CD0042905D029BB03890A
:10063800134A8B421BDC10BD1248BDE8104008F07D
:1006480077BD114B0A211868421C1A6014220F4BFF
:1006580000F0010002FB003008F002F80C4B0146E4
:100668009842E8D00B48BDE8104023F074BE4468B7
:1006780034F9114001311460DBE70748F3E700BFA4
:10068800DC4E0020183B0300E04E002068D7002015
:100698000000AD0BAC550300CE550300F0B5A14BDF
:1006A80087B003AC93E8070084E8070021460022DE
:1006B8009D4808F019FD9D4B014698422BD09C4857
:1006C80023F049FE002201210E2004F03FFC012006
:1006D80007F0F6FE954B0546984228D00146954806
:1006E80023F039FE0DF10B0026F0E1FD8F4B054696
:1006F800984250D00146904823F02DFE0AF0F4FDB0
:100708008E4832F0D5FA002865D18D4823F023FEB3
:10071800002007B0F0BD3221834826F0B1FF002148
:10072800024601238048009126F0D4FFCAE700273B
:1007380084480121877007F00DFFA842064602D0C1
:1007480001468148CCE703972246022101207F4BCE
:10075800A78007F02BFFB042054602D001467C482F
:10076800BEE70A217B4807F07BFFA842064602D075
:1007780001467948B4E70A21784807F071FFB0428A
:10078800054601D00146F4E707F0B0FFA84201464C
:10079800A8D07348A4E7204626F089FDA842014660
:1007A800A9D101249DF80B006E4A6F4926F070FD0F
:1007B8006E4A6F499DF80C0026F06AFD9DF80B0003
:1007C80004FA00F006F0CEFF9DF80C0004FA00F0E1
:1007D80006F0C8FF92E7674823F0BDFD664C204647
:1007E80032F066FA002841D02569A6682B681721DF
:1007F80043F400032B6020463368604A984701465B
:1008080018B15F4823F0A7FD82E75E4823F0A3FDF7
:100818005D495E4B4B604FF400038B60F36933B165
:10082800012220469847014620B15948EAE76FF06F
:100838005701FAE7574823F08EFDB66986B12B6851
:10084800172113F4000F14BF4FF000734FF08063AB
:100858004FF0A0722046B047014620B14E48D1E77C
:100868006FF05701FAE74D4823F075FD19F0DCF9F0
:1008780008F06CFC1DF004FD494904461EF07EF9A1
:10088800002301211A46204628F0EEFA454823F0B5
:1008980062FD45482FF097FFFF21434830F028F8C4
:1008A800032019F0D3FC01463F4830F018F819F03E
:1008B800BBF908F04BFC1BF00BFD04464FF400326B
:1008C800394929F0EEFC96220A21204628F09EFAA2
:1008D80040F6B8320021204630F076FD002220464E
:1008E800114630F00DFD1E2300220921204628F074
:1008F800BBFA1AF0B5FA1148002583682B4E5B68DD
:10090800984700222046316830F0FAFC1AF0A8FA1D
:10091800652D16BF01350025EDB20021212022F0FA
:1009280089FBEEE7B03A0300183B03000000AD0B6B
:10093800E555030001560300915603005C37030098
:10094800B5560300D80200201D56030029060000F2
:100958004456030068D70020AC5503007CD700201C
:100968006D56030004E000504011015000E00050B3
:1009780004E10050D55603000C37030011000100B4
:10098800E85603000C570300C84E0020F10500008C
:1009980017570300395703004E57030073570300D6
:1009A8008157030090570300D44E0020DC4E0020EE
:1009B8002DE9F84380460F46154600F0ABF8C368AA
:1009C80004461BB943691A78002A4CD10023E36016
:1009D8006368434557F8232008DB3D4B6361204695
:1009E80000F07EF84FF0FF30BDE8F883511C6161DC
:1009F80016782D2EF1D1911C616151782D29A160B5
:100A080004D1927862B901336360E6E741B9304BAB
:100A180031462846636132F025FD0028DFD0A66004
:100A2800D4F808902846494632F01CFDB9F13A0F2F
:100A3800626900D0E0B9137813B963680133636061
:100A480023685BB12B783A2B08D0224803685A07F1
:100A580004D04B46204A012124F09AFC204600F09D
:100A68003FF83F20C0E75A1C42611B788360D7E7F4
:100A780043783A2B0BD000232361137813B96368AA
:100A880001336360204600F02BF8A068ACE71178CA
:100A980066680F4B29B90136B045666004DD57F822
:100AA8002620C4E90423EAE763612D783A2D04D1AE
:100AB800204600F015F8284696E72368002BCDD08D
:100AC800044803685B07C9D0044A4B46C3E700BF24
:100AD8009C5C030050030020A8570300BD57030087
:100AE8000268074B1A604268064B1A608268064B18
:100AF8001A60C268054B1A600269054B1A60704794
:100B08001C00002018000020EC4E0020E84E0020B9
:100B1800E44E002000487047000000202DE9F04F07
:100B280091B0009302F004030293C2F3C2030133AD
:100B3800840705460E46DDF868900392059340F059
:100B4800BB81041D30B1072909D86FF01B0011B013
:100B5800BDE8F08F01F00706341DC6F10806009BBA
:100B68004FF000084FF0040A591E4FF0FF33474674
:100B78000193C3465346CDF810800DB1009A226008
:100B88000598002800F3E8809848009A824203D329
:100B980097488242C0F0E080039AA4EB050E9207C2
:100BA8004FEA9E0000F103810F2F00F2B180002D63
:100BB80000F0058107F140020DEB020C019A0CF8D8
:100BC800200C0CF8102C049801300490E7E07A28E7
:100BD8005DD84B280ED8472859D829282DD825283C
:100BE80052D054D820287AD02338D0F1000B4BEBC0
:100BF800000B74E04C382E2849D8DFE800F0704824
:100C0800484848484848484848484B484848484859
:100C180048484859484B4B595959704B6D4870488A
:100C2800184B184848827F4B48484B487F000020A3
:100C38004FF0000B4FF0040A38E001222A38C0B206
:100C480002FA00F010EA0E0F49D110F0625C2FD1C1
:100C580010EA020B43D06046013C5444B4FBFAF45A
:100C68000AFB04F4002D61D0A3EB050CA4446645EF
:100C7800FFF46BAF002868D1042B47D159F8043B27
:100C88002360042304342AE0019A013A01924FF0C8
:100C9800000B24E011F8010C6C2834D1002011F865
:100CA800023C83466C2BC5D14FF0080A5346D3E764
:100CB80009F1070929F00709073424F00704F9E8BE
:100CC80002AB35B106982044B0423FF63EAFC4E9C6
:100CD80000AB4FF0000B08344FF0080A534611F8E8
:100CE800010F002878D0BBF1000F7FF470AF2528E2
:100CF800F5D14FF0010B019B013301934FF0040A2A
:100D0800ECE7584694E700208346A5E7082B02D075
:100D18006FF015001BE709F1070929F00709F9E841
:100D28000223C4E9002308230834D8E768B9042B50
:100D380002D109F10409A4E7082BE9D109F107094F
:100D480029F0070909F10809EDE7059A013A059222
:100D580059F8042B009210E7039A900720D54FF01A
:100D6800010CA4EB050E4FEA9E00BEF5007FCFD222
:100D78000F2FCDD8F5B107F140020DEB020E019A05
:100D8800C0B20EF8200C0EF8102CBCF1000F3FF486
:100D98001AAF60F07F000EF8200C08F10108013747
:100DA800C5F108024FF6DA7E0434069297E74FF051
:100DB800000CDAE7BCF1000F01D00136EFE702982A
:100DC80002360028EBD10098CDE90631FFF78AFBFF
:100DD800DDE906310644E2E7631BB3F5806F97D27D
:100DE80045B9A6F10804E018B1E600BF3C36030097
:100DF8007CD20300029A9B0828602B709DF8103063
:100E0800C2B1EB7085F80280B8F1000F05D000225E
:100E180008A8C5F1010C97420ED14FF0000AC5F1A0
:100E280001030DF1200901930DF1300B574512D143
:100E3800601B8CE66B70E5E710F8013B190608D5D6
:100E480004EB0C0E764503F07F03FFF47EAE04F846
:100E5800013B0132DFE7B8F1000F03D099F9002018
:100E6800002A17DB029BD3B11AF80B2004F8012BD8
:100E78000022019B981820448642FFF466AE99F838
:100E88000000009904F8010B2046039232F091FB10
:100E9800039A14440AF1010A09F10109C6E799F80D
:100EA800002055F822300093029B009845F8223024
:100EB800FFF718FB421CDCE76FF00D0047E600BFA8
:100EC8002DE9F04F95B000AFBB61BB6F0446C3F38B
:100ED800C0038A4690F802B07A623B6141B945780E
:100EE80000780BEB80002044554517D8A0EB040A86
:100EF800E3787B61BBF1000F02D0BB6FD80716D433
:100F08007B6953BB7B6A1BB151462046BA69984737
:100F1800554628465437BD46BDE8F08F461C304636
:100F2800FFF7E0FA013030440AF1010ADCE72378E0
:100F380062683B629B00FB603B6AFA6104EB8309D1
:100F48007B6A002B40F00381C8460026554609EB12
:100F58000B0AD04555D1D94413E0BB6F9907D1D5B9
:100F6800237899463B629B00FB60636804EB890920
:100F7800FB617B6A002B7ED15546BBF1000F53D134
:100F88005E46BB6F13F0050F0CBF4FF0020B4FF01E
:100F9800010B7B6909EB430ABB6F03F002037B6219
:100FA800D145B6D019F8021B19F8013C54F8238032
:100FB800AB4B984502D3AB4B98453CD33B69002BD0
:100FC80046D0F86923F0A0F9002841D0A648036864
:100FD80013F0060F13D0E8468AB06A46A34B536154
:100FE800FB69C2E906314FF400731384A04B42F841
:100FF800103F00234FF4125100F0E0FEC546023DB9
:10100800CEE718F8013B54F82300FFF76BFAFB6FA3
:1010180001303BB1D7F880309E423EBFFB6F23F8CA
:1010280016000136054494E7BB6F13F004061CBF95
:101038007E6AD944A5E73B6923B1F86923F064F9CE
:101048000028C3D1BB6FDA0705D4A5EB0B05A7E7CA
:101058007B6A002BA4D04046FFF744FAFB6F43B1EC
:10106800D7F880309E423FBFFA6F431C22F81630F3
:101078000136054494E7BBF1000F6ED0BB6F13F047
:1010880004066DD0D846002607F140005A46494666
:1010980032F08FFA7B69D9445B007B607B6909EB8E
:1010A8004303BB60BB6F03F002033B60BB684B4567
:1010B80058D1B96F6378B86F890748BF002106EB2C
:1010C800030258BF4FEA5801C507D2B200F19A800F
:1010D80010F0040F14BF40460020FB616270A0703E
:1010E800E1702046BA69F9687B6A9847051EFFF6E1
:1010F80010AF3B6A41462370FB69BA6963707B692C
:1011080084F802B0E37007F140007B6A9847B0F1B9
:101118000008C0F2AF80FB68AAEB0B01C91A7B6814
:101128004846C91ABA697B6A98470028C0F2A48061
:101138004FF0000BA84408EB000507F1300AB3454F
:1011480062D30021BA6908467B6A9847E1E65E46A1
:101158004FF0000807F1300098E75E46D84699E757
:10116800B04697E719F8021B3D4B19F8015C54F893
:101178002500984202D33B4B98421DD33B6923B1CB
:10118800F86923F0C1F8002890D13B68FBB908F151
:10119800280307F1280208F1010003EB020C07F10C
:1011A800500308F1020853FA80F00CF8101C5FFA9B
:1011B80088F800F8105C79E73B692BB1F86923F0EF
:1011C800A3F800287FF472AFBB6FDB0709D506F1DF
:1011D800280307F12802711C9E1806F8205CCEB27D
:1011E80064E7BB6F58077FF561AF08F1280307F183
:1011F800280208F1010103EB020808F8105C5FFA05
:1012080081F853E7002068E71BF80A3054F8239068
:1012180087F82F30FB6FFBB133F81B800121BA69C7
:101228007B6A07F12F009847002825DB0544B8F1B1
:10123800000F06D14846FFF755F900F101081FFADB
:1012480088F841464846BA697B6A9847002813DB04
:1012580005440BF1010B72E7D7F87C80DEE700BF8D
:101268003C3603007CD203003C030020E657030011
:101278000400000145464CE605464AE6014B186065
:10128800704700BF2000002080B505460E4617466F
:10129800984621F0E9FE034632F0C2F90446DFF829
:1012A8001890424649F8003039463046A84754F865
:1012B800090003F0A5FD00BF080000002DE9F04F6C
:1012C80089468168044685B0084623F0C4FB461C5D
:1012D8000A4633462146654823F03DF8644823F022
:1012E8003AF800254FF0010B04F10C0AB54236DB41
:1012F800B9F1000F66D05F4823F02DF80025DFF81C
:10130800789101222946204623F081FBC30757D450
:101318002946204623F092FB00F12D062946204657
:1013280023F080FB002207462946204623F06FFB66
:101338002946A5EB0008204623F07AFB3B46CDE979
:10134800008032462946484623F005F8A368AB4298
:1013580038D02946204623F06BFB0546D1E75AF8DA
:10136800043F5BB300271946B84620460393029111
:1013780023F058FB804538BF804602990322204657
:1013880023F045FB039B0146834207F10107ECD19B
:10139800A3680BFA05F2B3F5004F34BF0423082302
:1013A800013A03F10801C3EBC803CDE9008302EB5E
:1013B800D1023B462946314822F0CDFF013595E759
:1013C8002A26ABE70021204623F032FB0026D4F87A
:1013D80008800546B8F5004F2CBF4FF008094FF0BC
:1013E8000409374645451ED3B8F5004F34BF0422DB
:1013F80008224FF47A7102EBC802BB19D31A5008BD
:1014080001FB03000A21B0FBF2F0B0FBF1F201FB93
:1014180012003946CDE900203246194822F09BFFD8
:1014280005B0BDE8F08F29460122204623F0EFFAE7
:1014380010F0010F294620460BD023F0F3FAA6EB53
:10144800090606EBC0062946204623F0F1FA0546B0
:10145800C8E723F0F3FA0028F5D12946204623F0FF
:10146800E1FAA7EB090707EBC007ECE79A58030076
:10147800C75803009C590300AA5903008259030066
:10148800D85903002DE9F047058B044628079046F4
:1014980011D4022905F0070540F0CD80204623F03D
:1014A800EBFA78B10138218B042811D8DFE800F075
:1014B800C3106D85950001290CBF45F0100545F056
:1014C8002005258388F31188BFF36F8FBDE8F08767
:1014D80001F0070AAA4500F0A6800027B9463E4653
:1014E800A368002B00F0BD8041F00801218388F338
:1014F8001188BFF36F8FA168002900F0BB800D68C9
:10150800002900F0B780334652462046D1F80480BF
:10151800C047002D76D02B6829461D46F0E701F01C
:1015280007035A1F012A1BD8002221F00701062BA6
:10153800276889B2C4E9002209D13B4603E0628BDF
:10154800013262831B68002BF9D141F00201204669
:10155800218323F091FA00287BD041F0200177E025
:10156800042B0AD121F0070189B22046218323F0F8
:1015780083FA10B141F020012183218B01F0070A81
:10158800AA4550D00027B946AAE7236921F00701E8
:1015980041F00601062DD3F8009021832DD1B9F131
:1015A800000F40D041F00801218388F31188BFF370
:1015B8006F8F20463949C84729E021F00701236980
:1015C80041F0040189B2042DD3F804902183E6D0B8
:1015D80000274FF0040A3E4682E721F007012369FD
:1015E80041F0050189B2052DD3F808902183D6D0A2
:1015F80000274FF0050A3E4672E700274FF0060A1B
:101608003E466DE72B4687E7B9F1000FD1D14FF081
:101618002003EFF3118883F31288BFF36F8F238BB6
:1016280023F008032383258BEA062ED525F0100323
:10163800238305F007056669218B002EBFF66FAF7F
:1016480000232768C4E9003321F0070141F00101B4
:101658002183218B4FF0000901F0070AAA457FF486
:101668003FAF002F9BD041F00801218388F31188F8
:10167800BFF36F8F002FC7D03D68394633465246B7
:10168800204623F025FA2F46F4E7AB067FF51AAF7C
:1016980025F02003238305F00705FFE6054B02002C
:1016A800044608B54FF02002EFF3118382F3128845
:1016B800BFF36F8F05F0FCFE204603F057FB03488D
:1016C80022F049FE03F0B2FCFCE700BF205A0300F9
:1016D8002DE9F047044607464FF00109DFF850802E
:1016E80014B93846BDE8F08794FAA4F5B5FA85F53B
:1016F80009FA05F32E0108EB05156FEA030A24EA37
:1017080003042B7B002BEBD058F806301B694BB930
:101718004644736804222846196807EA0A0700F055
:1017280011FBDDE7284698470028D9D1F0E700BF2C
:10173800303A030030B5002289B00F490F4831F024
:10174800BFFC002200230024CDE906230E230C4D04
:10175800CDE903344FF440722846CDE90144094BE2
:101768000949009420F0DAFF0849284620F012FFC2
:10177800204609B030BD00BF99170000B00800200E
:10178800F0030020A11A000038D90020495A0300AC
:10179800014821F0F7B800BFD40300202DE9F04735
:1017A80080461F480F4623F05CFD0646002830D0CF
:1017B80000252846BDE8F087237B73B12368DB68E2
:1017C8000BB12046984723681B69D3B96368042284
:1017D8002046196800F0B6FA013610344C45EBD3B0
:1017E800B8F1000FE5D0002DE2D02846FFF770FFD2
:1017F8000546002FF7D000214FF4A47021F01AFC01
:10180800F1E7204698470028E0D00AFA06F31D437E
:10181800E2E705464FF0010A024CDFF80C90DDE7DD
:10182800004F0020303A0300403A030008B5034651
:1018380008462BB1044A136000F064FD002008BD7F
:101848006FF01500FBE700BF2400002010B5044C22
:10185800237813B9034821F095F80123237010BDAC
:10186800C0D70020D403002010B50446064823F052
:10187800F8FC3CB1054BD3E8EF1F0139C3E8E21F80
:10188800002AF8D110BD00BFF84E0020FC4E002001
:1018980000200146034BD3E8EF0FC3E8E21F002AFC
:1018A800F9D17047F84E002070B5FFF7F1FF0546F3
:1018B800074C084EB44200D370BD63685B792BB106
:1018C80023685B6813B12946204698471034F1E72E
:1018D800303A0300403A030010B5044C044920464E
:1018E80023F050FB034B1C6010BD00BFF402002026
:1018F800203B0300F04E002008B50023084A4FF4AF
:1019080000411370074A08481360084A1360FFF73C
:101918008DFFFFF7E1FFBDE8084000F06BB900BF9D
:10192800C1D70020F84E002067520200FC4E00206C
:10193800014600220023014823F045BBF4020020A1
:10194800014823F0DEBB00BFF4020020024B014631
:10195800186823F028BC00BFF04E0020014823F08F
:101968005EBC00BFF4020020F8B5334B187800289D
:1019780060D0FFF7E5FF044670B1304BD3E8EF1FA6
:101988000139C3E8E21F002AF8D12D4D2D4EB5428A
:101998002DD32046FFF7DAFF2B4B2C4C1B68002B6E
:1019A80019DD31F08BFB4FF47A72A0FB020302FBC6
:1019B8000131C30B43EA4143D4E900209B1A40F2AA
:1019C800E9324FEAD13161EB0001934271F1000134
:1019D80001D3FFF769FFD4E9003213F57A7342F1B6
:1019E8000002C4E90032BDE8F840FFF7B7BF6B68F2
:1019F8005B793BB121784B0706D52B6821462846F1
:101A08001B6898471035C2E72388626813F4E07FA3
:101A1800C3F38217C1F3C201EFD0002AEDD00C4BFB
:101A28002846D21A42F38F02012300F0A5F9B842E2
:101A3800E8D3E2E7F8BD00BFC0D70020FC4E002085
:101A4800303A0300403A0300F84E0020A80800206E
:101A58003803002070B50D4D297861B90120FFF7D2
:101A68009DFE0B4C0B4EB44206D3FFF77DFF0028BA
:101A7800FBD101232B7070BD63685B791BB12368B0
:101A880020469B6898471034EDE700BFC1D7002077
:101A9800303A0300403A030000212DE9F047084698
:101AA800FFF77CFE044658B340F267684FF0000920
:101AB80031F0B6FD1B4B1C4A1B58136033B11B4B4E
:101AC8001B68092B02DD1A4820F05CFF0025194F1E
:101AD800DFF85CA044B12046FFF7FAFD044618B9C8
:101AE8004FF0FF384FF0FF39FFF73EFF064628B9A1
:101AF800B5B942464B46504620F06AFF3546E9E7FD
:101B08004FF0FF384FF0FF39D2E72B689B691BB1C4
:101B180000222846114698471035BD42F5D3E8E71C
:101B2800054DFAE708000000F44E0020FC4E0020A6
:101B3800D4030020403A0300303A030013B5184894
:101B480023F08FFB174B1B787BB14FF02003EFF38B
:101B5800118483F31288BFF36F8FFFF705FF84F3B7
:101B68001188BFF36F8F02B010BD0F4B1B68002B9D
:101B7800F9D050B9002200230C48CDE900234FF4D6
:101B88000042002321F054FCEDE70928EBD1074877
:101B980031F0A2FA064802B0BDE8104020F0F2BECB
:101BA800FC4E0020C1D70020F44E0020B0080020D1
:101BB800D403002010B5064B04461B6898472146FD
:101BC800A060044823F07DFABDE81040FFF7B6BFD7
:101BD80024000020F4020020044A054B9B1AB1EBB4
:101BE800D30F34BF52F831000020704798390300F2
:101BF800303A030000210B480B4B30B51B1A0B4C35
:101C0800DB080430994200D130BD10F83120256836
:101C180002F0070225F007052A4344F8042B013196
:101C2800F0E700BF98390300303A0300380300207A
:101C3800F8B5064600240A4F0A4DED1BED08AC42E4
:101C480003D14FF0FF342046F8BD57F8340020B1D7
:101C58003146FEF735FC0028F5D00134EFE700BF28
:101C680098390300303A03002DE9F84388461546B1
:101C78001E4698B90446224FDFF8889009E0384696
:101C880033462A464146FFF7EFFF844238BF0446F1
:101C980010374F45F3D32046BDE8F8831A4B1B4A4B
:101CA800D21AB5EBD20F28D203EBC5031C79B44284
:101CB80028BF344607214368154E1A7956F825304F
:101CC80002EB4202914023EA010304F0070101FA02
:101CD80002F213430021032223FA02F000F0070066
:101CE800814202F1030238BF01461E2AF4D123F0D3
:101CF80007030B4346F82530CDE70024DAE700BF99
:101D0800303A0300403A030098390300303A0300A0
:101D180038030020F8B506460F460024074D084B47
:101D2800ED1AED08AC4200D3F8BD002122B23B46C3
:101D380030460134FFF798FFA4B2F3E7303A0300C6
:101D48009839030038B50D4611460A4B4268C31A44
:101D58001B1104460133137143689971FFF7DAFFC9
:101D6800012263681D6063685A71BDE83840FFF757
:101D78006DBD00BF303A03000146184663B1002A22
:101D880014DB4B680A491B7951F8220003EB430323
:101D9800D84000F007007047064B0749C91AB2EB54
:101DA800D10F04D203EBC20318797047042070479F
:101DB8003803002098390300303A03002DE9F04F2A
:101DC8008FB0C1F34A2804AF0D469146B8607B60D6
:101DD8000C0DB8F1000F67D000264FF0040B4FF040
:101DE8000A0A07F11403C7F80C80C7E907667E6280
:101DF8000193CDF808B0CDF800A007F11C033246D6
:101E08004846F968FFF75CF8B0F5006F034620D341
:101E18002A48036813F0060F17D06C468AB0D9F821
:101E2800041004AB264D1A46C3E9055140F2FF7170
:101E3800D9614FF400711984224B42F8103F4FF4D6
:101E480012513346FFF7BAFFA5462C37BD46BDE809
:101E5800F08FC0F30A0804F11700184420F00700B7
:101E680080083B60FFF764FD68F35325044690B192
:101E78003B6800F11001C7E9083607F11403F9615E
:101E8800CDE900A3CDF808B048460F4AF96807F134
:101E98001C03FFF715F868F353252A4620467B688C
:101EA800B96823F01CFAD0E704F1170020F0070006
:101EB8008008FFF73DFD0446EDE700BF540300200E
:101EC8005E5A030004000001BB5202002DE9F04FE6
:101ED80087B00446DDE9105ADDE912690F469346DA
:101EE8009846A6B31021334652460020CDF80090FC
:101EF800CDF81490FEF712FE014605F117000844CC
:101F0800144B04F007040BF0070BE40020F0070063
:101F180003EA412344EA8B1480081C430391FFF72A
:101F280007FD44EA0554054640B13EB133465246E2
:101F38000399CDF800901030FEF7F0FD4346224695
:101F48003946284607B0BDE8F04F23F0C8B93146F6
:101F5800D3E700BF00FE0F000EB403B503AB53F880
:101F6800042B01460448019303F0D4FA02B05DF84B
:101F780004EB03B0704700BFE1530200CA0605D462
:101F88008B064CBF02490349FFF7E6BF704700BF05
:101F98009B5C0300A95503002DE9F04F89B09B46CF
:101FA800DDE916769DF84C3004460493DDE9149378
:101FB8000593049B0D460692002B00F0878006F0DF
:101FC8000803079323F067F906F0020A024600287F
:101FD8004BD020468549FFF7BFFF8046BAF1000F76
:101FE80008D016F0440F42D12A4620468049FFF710
:101FF800B3FF804406F001035BB17E4B049A204690
:1020080053F822207C4B7D49002A08BF1A46FFF767
:10201800A3FF06F00803002B55D0794B049A2046FD
:1020280053F822207749FFF797FF0546069B2BB107
:102038001A4620467449FFF78FFF0544BBF1000F8D
:1020480005D05A4620467149FFF786FF05444544A6
:10205800B9F1000F49D1002F4FD1F30700F1C0802B
:1020680031462046FFF78AFFB4E08046B6E7684B62
:1020780018680028BDD0674B4FF47A7E1B684FF470
:102088006162B5FBF3F5B5FBF0F300FB13550EFBEE
:1020980005F5B3FBF2FAB5FBF0FC3C2102FB1A3262
:1020A80000FB1C55B2FBF1F30EFB05F5B5FBF0F593
:1020B80001FB132220460092CDE901C5524656493C
:1020C800FFF74AFF95E706F00805AFE7BBF1010FF8
:1020D80006D1B9F1000F64D1002F7BD000250CE0A8
:1020E800B9F1000FF8D04D485CE04D484B46224608
:1020F8004C4922F0D8F8002F68D0DFF82C91DFF88F
:102108002CA1102F31462046B8464FF0000B28BFAF
:102118004FF01008FFF732FF5D4545DC059B51463F
:1021280020461A78FFF718FF4FF0010B1BF0070F36
:1021380003D149462046FFF70FFFD8453BD9059BF9
:102148005146204613F80B20FFF706FF0BF1010B51
:10215800BBF1100FEAD14FF0000B20463449FFF7CE
:10216800FBFE5A46059B20469A5CA2F120015F2996
:1021780028BF2E222F49FFF7EFFE0BF1010BBBF111
:10218800100F1DD01BF0070F03D149462046FFF75B
:10219800E3FED8455A46E5D849462046FFF7DCFE17
:1021A800EBE71F48049DA1E749462046FFF7D4FE08
:1021B8000BF1010BB0E720461F49FFF7CDFEC5E73D
:1021C800059BB7EB0807434405939AD1049B002B62
:1021D8007FF443AF204609B0BDE8F04F23F0EFB8D5
:1021E8002046054A0549FFF7B7FE39E7A25A03001A
:1021F800A65A0300343B03009D5A0300085F0300FE
:10220800483B0300CB5A0300D15A0300D55A0300B8
:10221800084F0020044F0020AF5A03000F5402005B
:10222800E15302001D550000E25A0300DA5A030088
:10223800E45A0300BA570300E05A03002DE9F041BD
:102248000F884B6805460C4690468E6886B0C7F3E3
:1022580082175BB1144A9B1A43F38F01002920DBD4
:102268002078C0F3C200FFF7B7FC0346214651F8B7
:10227800102B6088C2F34A22002A01EB020408BF2F
:1022880000210022C0F30B10CDE90408CDE90214A7
:102298002846314601970092FFF77EFE06B0BDE85A
:1022A800F0810023E2E700BF3803002042F20F73F9
:1022B80073B58B4228BF0B4605680446052168465E
:1022C8000D4A21F065FC06466368284604225B68CF
:1022D8000A4923F067F863683246694628465B680E
:1022E80023F060F86368172228465B68044923F0E6
:1022F80059F802B070BD00BF1EC90300FE5A0300A2
:10230800E65A030000210123064A904206D8064AED
:1023180001B901231360054B18607047012140087B
:102328005B00F2E740420F00044F0020084F0020F6
:10233800014B0360002070475C3B030013B5044663
:1023480020F064FAC0F307230193C0F30743009316
:102358000821030E034A204623F0B7F9002002B0F3
:1023680010BD00BF235B030010B5044605F096F8C6
:1023780008210346074A204623F0A7F92046064AC3
:10238800082123F0A2F92146044820F0CBF80020C8
:1023980010BD00BFBE5B0300DD5B0300A923000086
:1023A80070B58EB004460D46D0F89C6030F0E0FC65
:1023B800024631F035F9254B1958254B2846002A95
:1023C80018BF1346234ACDE90043234B8C4218BF5C
:1023D80013460821214A23F078F9D4E90A23CDE9E4
:1023E800022394F90E3028460093237B08211C4AC7
:1023F80023F06BF906A92022204620F0DBF8626E54
:102408000346009208212846164A23F05EF9204622
:1024180005A930F0BDFC034630B108212846124A10
:1024280023F053F90EB070BD6423059A2846B11AFB
:102438004B43B3FBF6F3CDE90021CDE90263082154
:1024480033460A4A23F041F9ECE700BF08000000D0
:10245800E75B0300E25A0300656F0300EA5B0300D1
:10246800F65B0300225C0300395C0300665C030032
:10247800F0B50025044693B029460AAF1C220BA8E4
:1024880031F0BEF8134E1A222021384631F0B8F840
:102498002146114820F046F809AA4FF40061304659
:1024A80030F06AFC64224FF400630999CDE90057C3
:1024B800C1F500604243D20ACDE90403CDE90231F7
:1024C8002046069233460821044A23F0FEF828469F
:1024D80013B0F0BD38E40020D92500009D5C03004E
:1024E80010B5044624F0B8FE08210346024A2046E7
:1024F80023F0EBF8002010BDE65C03002DE9F34162
:102508001746002304460A21B86801AA019301F07E
:102518004FFB019DC6B255B12B4601212046144AF6
:1025280023F0D3F8019D284602B0BDE8F081042EBF
:102538000AD93346012120460E4A23F0C6F8204620
:1025480023F0E0F80125EEE77868FFF771FBB0F1BA
:10255800000805DA012120467B68074A23F0B5F810
:102568000021334608460FFA88F2FFF77DFBDAE7C9
:10257800FC5C0300235D03003A5D03001346002260
:1025880073B5044601920A21586801AA01F010FBAC
:10259800019D95B920EAE0744FF40046294640F2BF
:1025A800E7304FF47A720023C4FB0601FDF720FEE2
:1025B80020F040FD284602B070BD2B460121204680
:1025C800024A23F082F8019DF4E700BF595D030039
:1025D800F0B504460D46D0F89C6089B007A930F0E4
:1025E800D7FB034630B1082128460F4A23F06DF87F
:1025F80009B0F0BD204630F0BBFB6423079A0B4FAF
:10260800B11A4B43002818BF0746B3FBF6F3CDE9D0
:102618000221CDE90463082123462846CDE9007646
:10262800034A23F052F8E3E7395C0300E75B030051
:10263800795D03002DE9F04387B0054668461FF031
:102648009FFD1423009E082103FB0066164A2846B6
:1026580023F03BF8154F009CDFF85480DFF85490C6
:10266800B44203D3002007B0BDE8F08323680BB160
:102678001A7832B923463A46142101A821F088FA7B
:1026880001AB42460821284623F01FF8204630F0C7
:102698000FFB094B0821002808BF4B46074A28466C
:1026A80023F013F81434DBE7F75E0300015F03003F
:1026B800065F0300EE5E0300E85E03007965030031
:1026C8008B1E022B2DE9F04107468846144637D861
:1026D80010220021606821F0FDFAB8F1020F0646C9
:1026E80007D1202308213846244A22F0EEFF336818
:1026F80016E00A220021A06821F0ECFAC5B22B46A8
:10270800082138461D4A22F0E0FFB8F1040F1AD01C
:10271800102D0DD0202DEAD0082D0CD13378DBB246
:1027280008213846164A22F0D0FF0020BDE8F08183
:1027380033889BB2F4E708213846124A22F0C5FFD5
:102748006FF01500F2E710220021E06821F0C2FACC
:102758000821034604460C4A384622F0B6FF102DDD
:1027680006D0202D07D0082DE5D1E4B23470DCE77F
:10277800A4B23480D9E73460D7E700BF3F5F0300D5
:102788006A5F0300545F03007B5F03002DE9F04F8D
:102798004FF0FF35914601220746884620262C46F1
:1027A800544BDFF854A185B01A604946524640465A
:1027B800FEF7FEF8411C07D16A1C52D14F4A01218D
:1027C800384622F082FF1DE0732820D0772833D0C6
:1027D800612817D1DFF828B110220021DBF80000AA
:1027E80021F078FA05460028DFD130F019FF454B73
:1027F8001B58162BD9D1DBF80030434A0121384643
:1028080022F063FF6FF0150005B0BDE8F08F0022DD
:10281800DFF8ECB01146DBF8000021F05BFA044663
:102828000028C2D130F0FCFE364B1B58162BBCD109
:10283800DBF80030354AE1E70022DFF8C4B0114682
:10284800DBF8000021F046FA06460028ADD130F04A
:10285800E7FE2C4B1B58162BA7D1DBF800302C4A6F
:10286800CCE7631C01D12B4AA9E75FFA86F8C6F3C7
:10287800C406002C3CD06B4629461A46A6EB050C2C
:102888000CE0B8F1100F1DD0B8F1200F20D0B8F12E
:10289800080F2AD10878187031443344A64203D867
:1028A8000CEB01001028ECD9102CA14628BF4FF0E2
:1028B800100929464B46384601F0BAF81035A4EB02
:1028C8000904D6E7088880B21870000A5870E3E750
:1028D80008684FEA102E187083F801E04FEA104E8E
:1028E800000E83F802E0D870D6E708210A4A67E7A5
:1028F800204689E718000020C95F0300D05F030065
:10290800E44E00200C0000008F5F0300A25F03006C
:10291800B55F0300ED5F0300545F030070B5104E10
:1029280004460D46337881B12BB10121BDE87040D2
:102938000C4A22F0CABE01233370082120460A4AF5
:1029480022F0C3FE0123337004E083F001033370E7
:10295800002BF2D129462046BDE8704022F0EFBE98
:10296800C2D70020076003004260030070B5044628
:102978003C480378182B02D10B78112B31D00B4629
:10298800013A8D18AB4225D18B5C0A780370A2F10D
:102998003003092B344C04D922F02003413B052B8A
:1029A80004D823683149CA54013323602368022BB1
:1029B80034D1102200212D4821F08CF92C4A1368BB
:1029C80003F8010B13602B4A1368013313600023CB
:1029D800236023E013F8016B182ED3D11E78112E33
:1029E800D0D1244D08212B682046234A22F06DFEC1
:1029F80020460021FFF792FF204B187870B9204A33
:102A08002B681168042B0ADC08B111602B6013F0E5
:102A180003010BD1126813681BBA136070BD0868F4
:102A2800043B00BA41F8040B0120EBE75B4203F0DA
:102A3800030358BF5942022904D1126813885BBAAC
:102A48009BB2EAE70329E9D1106802681104C2F3CE
:102A5800074301F47F010B4302F47F4213430360F1
:102A6800DCE700BFC3D700200C4F0020C5D70020EB
:102A7800184F0020104F00206C600300C4D70020BE
:102A8800144F00202DE9F84F0023064615460C4642
:102A98002949DFF8A8800B602949DFF8A890DFF8FA
:102AA800A8B088F800300B60012C2F4655F804AF09
:102AB8001ED902224946504630F0E1FC80B99AF806
:102AC8000220003A18BF01229244504602221F49B0
:102AD80030F0D5FC30B9012388F80030013CE3E739
:102AE8000022F1E749465046FDF7EAFCA8B9043749
:102AF80000227868114621F077F80022144B11461D
:102B08001860786821F070F8124B13491860304645
:102B1800FFF704FF0020BDE8F88F9AF800202D2A5F
:102B2800E6D19AF80120002AE2D053465A460821F5
:102B3800304622F0CAFDD1E70C4F0020C4D7002050
:102B4800104F0020866003008C600300896003003A
:102B5800184F0020144F00207529000007B50A48B7
:102B680030F0A6F860B10423084A009312680123E4
:102B78000549074800F02CFE002003B05DF804FB6F
:102B88006FF01200F9E700BF20370300FC3C030098
:102B9800403A030010B54468A3604023C4E900121A
:102BA80042680821D364114BD16213630023104992
:102BB800C2E90E33C2E91133C2E90633C2E9093367
:102BC800146853631364116153611362C2F8883047
:102BD800A36823B11B6C13B1204606499847A36824
:102BE8001B6A0BB120469847002010BD80FB0020CF
:102BF80078FB0020012C00002DE9F74304460D4620
:102C08008368DB6B03B19847A368DB6A0BBB4FF0A3
:102C1800000905F130084046EA6C01A922F014F8D1
:102C28000746002836D0A36801991B693BB30246C2
:102C380020469847064628B33146404622F021F8F8
:102C4800B7424FF00109E6D00020D5E90131984795
:102C580003E0204698470028D9D1A368DB6963BB05
:102C680005F110073846EA6A01A922F03EF806463F
:102C780050BB204622F0EDFBC5F888602FE06FF0CE
:102C88005706D9E70146404621F0FBFFB9F1000F8E
:102C9800E3D0D9E71648036813F0060F03D00221E2
:102CA800144A22F06CFBA3681B69002BEED00122AA
:102CB80020460DF103019847E8E720469847002889
:102CC800CED103B0BDE8F083A3680199DB685BB19E
:102CD8000246204698470146384622F022F8D5E9B0
:102CE800013101209847ECE76FF05701F4E700BF86
:102CF80070030020ED61030010B5044681680831B7
:102D080001F080F9A1682046BDE81040014A083169
:102D180001F01EB92F62030038B583680446D3F862
:102D28006432DB071DD4C06923F0FAF960680368D0
:102D38005B689847054620B9E06823F09CFBA368C8
:102D48001D71A3685B6B13B1294620469847002282
:102D580030F066FCA368C3F80C23034B185802F044
:102D68004FF86FF00F05ECE708000000014922F06A
:102D780004BC00BF9B5C0300F7B5044680680D46A1
:102D8800D0F864325A0705D5002122F01AFCE06811
:102D980023F043FBE368DB6873B9002D39D0A668DC
:102DA80006F14207384622F0E2FB002833D03946C4
:102DB80006F5A170FDF78EFBA2682946E0680DF1C3
:102DC8000603423223F02CFB58B9A06800F5A17124
:102DD8004230FDF77FFBA068423022F0C8FBADF817
:102DE8000600204622F090FFA368D3F860329B06C5
:102DF80003D50A49606922F0C0FB204600F040FF75
:102E0800A268BDF806302046D387A268938722F0CF
:102E1800E7FE03B0F0BD86F84201CDE7C43A0300EF
:102E28002DE9F04FA7B004465422002111A830F034
:102E3800E7FB0023CDE90533A3682046423302931C
:102E480022F068FF204622F0B4FE10B96069FFF74F
:102E58008DFF00264FF0FF37B246B3463546B146E0
:102E6800A06814220021083030F0CAFB204622F066
:102E78004CFEA168E0688A8F423123F008FB2046A7
:102E880023F087FB0DF144080396DDE90532012A9A
:102E98006DD0132B6ED85FBBBBF1000F0AD0204654
:102EA80023F097FB1423A26811A942320DEB03000B
:102EB80022F0ABFCB9F1000F0CD099F81130FE2BC1
:102EC80008D1059B26AA02EB830252F8542C0AB1BA
:102ED80001330593A068059D4369002B40F0B68037
:102EE800CEB1C3689E422DD00D9600F1080524E0AE
:102EF80002234146029A06A822F087FCD8F804204B
:102F080006990346029231B101290AD148B16C4AA7
:102F1800204622F0A3FF6FF00705284627B0BDE83A
:102F2800F08F059B002B34D0D8F8000001F08AF808
:102F380098B166B1A5680D9608350CAE0FCE0FC5D1
:102F480033682B602046FFF7D7FE0125E5E75D4A89
:102F58000121204622F082FFDDE7059BCBB12946FF
:102F68002046D8F8002001F01DFA022809D1059B57
:102F7800132B91D9069B022B8ED10121524B534A18
:102F8800C6E7032805D0059B4FF0010B01330593D5
:102F98007BE7039B33B94846D8F8001007AA22F00C
:102FA8002BFD054608F10408013F9DB3EB68BBF112
:102FB800000F08D0F3B1204622F0ACFE204622F0E4
:102FC8000FFE434AC4E7ABB1AE46A368DDF814A0D0
:102FD80003F1080CBEE80F00ACE80F00DEF8003083
:102FE800CCF80030AB682BB96B7CFE2B04BF2F7C70
:102FF80007F1FF37D5F804C0BCF1000F08D0AE4682
:103008000CAEBEE80F000FC6DEF80030336066462F
:10301800A94603E0059B53B101230393069B17B907
:10302800022B7FF432AF059B013305932DE7A3688C
:10303800DB6913B1DB68002BEED1264B012100932D
:103048002046119B244A22F009FFE5E7037EA5EB01
:103058000A05B3B14FF6FF72417EFF2918BF0A4631
:103068009D4202D313449D420BD983680121204617
:103078001A4A22F0F3FE2046FFF73EFE6FF01505D0
:103088004BE7012122F092FAA06800F53E7022F089
:10309800B1FAA36811AA294602EB8A0220465B69A5
:1030A80098470546A0684FF0FF324FF0FF3300F510
:1030B8003E7022F06FFA0021A06822F077FA2CE720
:1030C8003D62030051620300B2620300555D0300D4
:1030D8006F6203009E62030091650300D6620300DD
:1030E800022210B5836804461A7183689B6BBBB9CA
:1030F80022F008FA8368D3F86432DB040BD5032185
:10310800084B094A22F0AAFEA0686FF4805100F526
:10311800197022F00BFA2046BDE8104000F0FABE04
:1031280010BD00BFF1620300085F03002DE9F04FF6
:10313800044680680121B1B000F5197022F0EBF95E
:10314800A3681B79022B20D100230993A368606828
:103158009E6B03681D6909AB0EB310221BA9A84713
:10316800099B93B10121A06822F020FA2046099A10
:103178001BA9B0470021A06822F018FAA3689B6B2E
:10318800002BE3D12046FFF7ABFF6FF00101A068E9
:1031980000F5197031B0BDE8F04F22F0C7B901222F
:1031A8000DF12301A847099B002BEED09DF92320A0
:1031B8009DF82310002AA368C8DB5A79032A00F275
:1031C8008D82DFE812F004007A0291028B020D2949
:1031D8007BD00A2958D0B3F8642209296FF3CA02B0
:1031E800A3F86422A06800F085803DD80029ADD0FE
:1031F800082900F0F1810346D3F860229207A5D58B
:1032080001391629A2D801A252F821F091370000FD
:103218001B360000233600001336000085370000F7
:10322800413600005531000055310000553100008D
:103238005531000049360000513600005531000074
:103248007B360000553100008536000055310000FE
:103258005531000055310000553100008936000015
:1032680055310000B33600001B2940D07F2900F0FB
:10327800BF81A1F120025E2A0346BDD8012122F0B8
:10328800A0F99DF82310B1E0D3F86422C2F3C70275
:103298002AB1D3F86422C2F3C7020A2AACD1B3F820
:1032A800642261F3CA02A3F86422A568A98FC1B990
:1032B800284622F086F9E06823F0AFF86069FFF746
:1032C80055FD2046FFF70CFF40E7D3F86422C2F310
:1032D800C702002AE3D0D3F86422C2F3C7020D2A3A
:1032E800DCE72046FFF79CFDC5F81003E9E701235A
:1032F80043712BE7D0F860329B077FF527AF012198
:1033080022F05FF9A068838FFF2B3FF41FAF0025E1
:10331800C28F00F1420100F5A17030F04AF9A368AC
:103328001BA9DA8F0BA8134483F84251A26814230F
:1033380002F5A17222F069FA0B9914293FF606AF3B
:1033480030AB03EB810343F8545CA368DA8F134472
:1033580093F84130202B02D0093B042B4AD800298E
:103368004BD100250A950A9B30AA02EB830353F838
:1033780054AC0026504622F0FAF8B3468146B046CF
:1033880037463946284616AA00F0D8FB03460028D7
:103398003FD1012EA76864D10A9B30AA02EB8303B0
:1033A80053F8540C22F0E3F84146064607F10802A8
:1033B800284600F0C3FB0568284622F0D8F8864264
:1033C80005D0821B92B22046A91922F087FDA06879
:1033D800C38F034493F84230202B31D0093B042B90
:1033E8002ED9D0F86032DF072FD42021204600F0F4
:1033F8005BFDABE60129B4D9013900200CAB009381
:1034080001900AAB1BAA22F022FB05460028AAD18C
:103418009CE61B684A4651461846039330F02FF83D
:1034280060B9039B1846FDF75DF8584538BF584604
:10343800002E08BFB8461FFA80FB01360137A0E707
:103448000121204622F0FEFB80E6002122F0C3F88D
:103458002021204600F028FD0121A06822F0BBF8B9
:1034680074E604907FF672AE0A9A30AB03EB8202E0
:1034780052F8543CC1461846039322F078F8049B4E
:1034880005903B860496A26849462846083200F013
:1034980055FB039BD0F800A009F101094BB1BAF123
:1034A800000F06D019465046059A2FF0E8FF00286D
:1034B800E9D1A168BAF1000F4DD1A1F830A0049B61
:1034C800013B0493DFD16069FFF750FC204600F010
:1034D80021FD0A9B30AA02EB830353F8540C22F017
:1034E80046F8414611AA8146284600F027FB0746C0
:1034F800A0683968FF2200F5A1702FF0D2FF3B6861
:103508004FF6FF7708F1010AB8460393514628465B
:1035180016AA0AF1010B00F011FB002850D0002276
:10352800A168036801F2411111F801EF985C704538
:1035380003D110B101324245F6D1B9F1000F01D0E3
:103548004A4506DBBA42A8BF3A46013E012E97B269
:1035580036D0DA46DAE79848069122F008F8069954
:1035680000EB0B074A8DBFB2121A92FBF7F25046D6
:1035780092B20791069221F0FAFF07993F1A088E36
:10358800069A00F1010CA1F830C0B0FBF2F102FB81
:10359800110080B2BFB260B906212046864B874A27
:1035A800CDF800A022F05AFC3946204600F052FB24
:1035B80085E7534606212046814A22F04FFCF3E76F
:1035C800002F3FF4C3AD0399A7EB0902204692B23E
:1035D800494422F083FCB9E5D0F860329E077FF5B4
:1035E800B5AD012121F0EDFF204622F094FCADE5B8
:1035F800D0F860329D077FF5A9AD012121F0E1FFE8
:10360800A368D3F860321907EED4204622F068FC8C
:103618009CE5204622F085FB98E5204622F07AFBBF
:10362800204622F0C6FA10B96069FFF79FFB012116
:10363800A06821F0C6FF44E6204622F07AFB85E523
:10364800204622F07FFB81E5D3F860329B0603D544
:103658005C49606921F091FFA368D3F860329F0646
:1036680003D55949606921F088FF204600F052FCD3
:103678006CE500212046FFF77FFB67E50121F9E7AC
:10368800204622F041FB204621F03CFF0121A068A2
:1036980021F097FFA368D3F860329E067FF556ADF8
:1036A8004A49606921F069FF50E5204600F062FB55
:1036B8000121A06821F085FF48E55B2902D102229B
:1036C8005A7143E5D3F860329D0706D5622907D1C0
:1036D8004FF0FF31204622F0D9FAA3680022EFE725
:1036E8006629FAD10121F5E700225A71A268D2F8B9
:1036F800603298077FF52AADA1F131031B2B3FF605
:1037080025AD01A151F823F08D370000993700004D
:10371800AD370000813700005531000055310000F9
:103728005531000055310000553100005531000079
:103738005531000055310000553100005531000069
:103748005531000055310000853600007B360000F9
:10375800413600001B360000553100008537000057
:1037680055310000913700005531000055310000F7
:10377800553100009D37000003235371204622F085
:10378800C9FAE3E403235371204622F0BDFADDE4CD
:1037980003235371A068D0F8601201F0010181F091
:1037A80001015BE603235371A368D3F860329B07DA
:1037B8007FF5CCAC29E700BFE15A0300356303006D
:1037C800085F0300C93A0300CE3A0300C43A030075
:1037D8002DE9F043044680688846D0F80C13154656
:1037E8001F4689B0002967D14FF445722FF008FFB2
:1037F800A36822681A60E06822F0B1FEA06800F5AC
:103808003E702FF0DEFA4FF42A794FF41A76A0684A
:1038180030442FF0C5FDA0680022831901214844D7
:1038280010362FF093FDB6F52A7F09F11409EED171
:103838000026A36902211E60A06866F3820500F5D0
:10384800197021F068FE5022A3685A851822A368CF
:103858001A85D4F80890D9F8000021F088FE89F874
:103868002C00A3684146C3F860526068144A036894
:103878001D682346A8470546D0B90122A3681A71D6
:10388800D4E90A0100220023CDE906230E2303937D
:10389800109B4FF40062CDE901730495094B009425
:1038A8001EF03CFFA368C3F80C03616A1EF072FEA9
:1038B800284609B0BDE8F0836FF07705F8E700BF48
:1038C800A15502002539000010B504468068037927
:1038D800012B1DD14FF0FF324FF0FF3300F53E7042
:1038E80021F058FE2046082100F006FA206821F051
:1038F8003EFE18B10849606921F03FFE2046FFF7F7
:10390800EFFBA06800F53E7021F074FE002010BDAA
:103918006FF08500FBE700BF9A5C03002DE9F041DA
:10392800044640680E46036800219B681546984780
:1039380000284CD126B12A462146E06922F0D9FB5D
:103948002046FFF7C1FF002841D1224E224FDFF861
:103958008C80A06800F52A704FF0FF324FF0FF33DB
:1039680003211FF09FFD0546A0684FF0FF324FF07E
:10397800FF3300F53E7075B121F00CFE20462B4652
:103988000121174A22F06AFAA068BDE8F04100F563
:103998003E7021F02FBE21F0FDFD32460221204667
:1039A80021F0CFFD3A462946204621F0CAFD20469F
:1039B8004246012121F0C5FD606803685B6903B1D7
:1039C8009847A06800F53E7021F014FEC1E7BDE8F5
:1039D800F08100BF212D00003531000001560200A2
:1039E8003B63030010B5044608210C4A21F06DFE24
:1039F800204608210A4A21F068FE20460821094A83
:103A080021F063FE20460821074A21F05EFE204689
:103A18000021064A00F09CFA002010BD5263030002
:103A280090630300EF63030043640300DD64030055
:103A3800F8B51E4617460B462F4A0821044621F0C2
:103A480044FE6EB3082120463B782C4A21F03DFE07
:103A580001256A0704D108212046294A21F035FEAC
:103A6800AE4223D9082120467B5D244A21F02DFE51
:103A78000135102DEDD108212046224A21F025FEDE
:103A8800D6B9082120461E4A21F01FFE0125AE4264
:103A98002B4613D808212046194A21F016FE18E0B3
:103AA80008212046184A21F010FE01250821204649
:103AB800154A21F00AFEDBE700252B46FB5C0821AE
:103AC800A3F120025F2A28BF2E2320460F4A21F0A7
:103AD800FCFD0135102D07D06B07D8D108212046F1
:103AE800074A21F0F2FDD2E72046BDE8F840082158
:103AF800074A21F0EABD00BFF3640300DA5A030065
:103B0800E25A0300E45A0300E05A0300BA570300DC
:103B1800FA64030010B5044613460A4601460648EF
:103B280001F0F8FC23691B7923B12046BDE8104059
:103B380021F00BBE10BD00BF6B57020038B50B4615
:103B4800154648B91449154A521AB3EB920F05D2D3
:103B580051F82350284638BD84680CB90025F9E788
:103B68000F4A94420AD30F4A944207D2184629466C
:103B7800226890472B68002BECD1EFE70A4A944261
:103B880002D30A4A944205D3246814225343E51801
:103B9800E358F0E70133F8E7703A03009C3A030072
:103BA800B03A0300B03A03009C3A0300B03A03006D
:103BB8000023F7B51646027804462D2A019305D14D
:103BC8006FF015030020336003B0F0BD2FF028FD1F
:103BD80005460B4F0A46C35101A9204620F07AF842
:103BE800EB59222B02D16FF02103EBE7002BE7D131
:103BF800019BA342E4D01B78002BE5D0E0E700BF8F
:103C08000C0000008368D3F860329B0603D5024994
:103C1800406921F0AFBF7047D43A0300014921F051
:103C2800A9BF00BF9B5C03000A1E0DDC0ED0422317
:103C38008168D1F86012890608D5002A04494069CC
:103C4800B8BF524221F096BF4123F1E7704700BF49
:103C5800166503000A1E0DDC0ED044238168D1F8D6
:103C68006012890608D5002A04494069B8BF524243
:103C780021F080BF4323F1E7704700BF16650300BA
:103C88002DE9F0478568044605F14200FCF72AFC57
:103C98000023984695F82C70DFF8549086B2A268F5
:103CA800558DED1BB54209DB002E1FDD42336069DF
:103CB80010491A44BDE8F04721F05CBF1D442A446E
:103CC80092F842A082F84280A26842331A444946D8
:103CD800606921F04FFFA3682B4483F842A0A368D2
:103CE8005B8DDB1BF61A00272B46D8E7BDE8F0876B
:103CF800555D0300085F030008290A4617D8836842
:103D080093F82E10914212D083F82E208368082A47
:103D1800D3F8603205D0990609D50549406921F0E4
:103D280029BF9B0603D50349406921F023BF70478B
:103D38001D650300D93A030038B50D4609780446D5
:103D4800FFF7DAFF6A78072A11D8A36893F82F10CB
:103D580091420CD083F82F20A368D3F860329B06D9
:103D680005D560690249BDE8384021F003BF38BD78
:103D780026650300F8B5836804469A8F002A51D057
:103D8800D98F00294ED0413103F142050B44184622
:103D9800A84206D3014611F80169202E39D0A8425D
:103DA80039D286B29DB2AB1B9BB2591C471CD21AA2
:103DB800014438462FF00AFCA268711B938F2046F5
:103DC80013FA81F39387A36809B29A8F13440022E8
:103DD80083F8422021F036FFA368D3F860329A06B0
:103DE80003D51149606921F0C5FE3B4608212046EC
:103DF8000E4A22F033F82046FFF704FFA368D3F8F1
:103E080060329B060ED560690949BDE8F84021F08B
:103E1800B1BE0846BCE7014611F80169202EC0D0A2
:103E28000846BCE7F8BD00BFDE3A0300085F0300A0
:103E3800E23A03002DE9F04104460D4617460AB15F
:103E4800FFF7E0FEA368DA8FD3F86012423213441A
:103E58004A071FD51846FCF745FB0646DFF84080A1
:103E680096B9A3689A8FDA87A06821F090FE20B1EE
:103E780007B115B16069FFF7D1FE69422046BDE878
:103E8800F04109B221F0DEBE4146606921F072FEC0
:103E9800013EE5E708212046024A21F0DFFFE0E77E
:103EA800656F0300085F030013B583688DF807107A
:103EB800D3F860220446D00722D5D98F9A8F8A4238
:103EC8001ED0481C9DF80720D8870B4483F8422051
:103ED800A368D3F86012890710D5D3F860326069F7
:103EE80013F0040F18BF2A22094921F043FE204687
:103EF80021F05FFE10B16069FFF790FE02B010BDBF
:103F0800012220460DF1070121F0B5FFF6E700BFB9
:103F1800BA57030010B50446836802211B68084A93
:103F280021F09CFFA368D3F860329B0707D5204691
:103F3800FFF7A6FE2046BDE8104021F060BE10BD88
:103F4800085F0300014922F057B900BF9B5C0300DA
:103F58002DE9F04F0E460021044617460D4689B05C
:103F6800304603AA01F10108FFF7E8FDB0B995B1A1
:103F780027B13A460821204621F070FF00211E4F44
:103F8800DFF87890DFF878A0304603AA01F101083D
:103F9800FFF7D4FD60B909B0BDE8F08F006810B133
:103FA800FCF7A0FA80B2854238BF05464146D7E7FC
:103FB80003688BB11A787AB1D0F804B04A46CDE9D3
:103FC800005308213B46204621F048FFBBF1000F73
:103FD80004D16069FFF7B6FF4146D5E7524620464F
:103FE8003B46082121F03AFF6A1D5946204692B205
:103FF80022F00FF9F0E700BF446503002F650300C6
:10400800D55A0300F7B50F6805460E46A7B13846DE
:10401800FCF768FA84B2094B2846009308213B460E
:10402800074A21F01BFF2846E21C716892B203B0D0
:10403800BDE8F04022F0EDB83C46ECE740650300EF
:104048003663030010B507490446FCF739FA38B15E
:1040580020460549FCF734FAB0FA80F0400910BD53
:104068000120FCE7366503003965030010B5836855
:104078000446D3F860329B0603D50649406922F00E
:104088003FF95022A36800205A851822A3681A8590
:1040980010BD00BFE63A030008B5836908211B6814
:1040A800024A21F012FB002008BD00BF476503004B
:1040B8002DE9F3410F4A0821054621F006FB0023AC
:1040C8000D4C0E4EDFF83880B44203F1010703D3DC
:1040D800002002B0BDE8F0816A6A9BB20192A26832
:1040E8000821126828460092424621F0EEFA303440
:1040F8003B46E9E757650300403A0300703A03007E
:104108006F65030008B5024921F0ECFA002008BDEC
:104118009C5C03007FB5044600250E4EA2680DF195
:104128000E030121E06802F5A17222F079F9BDF8C9
:104138000E00A36850B103F5A173009332462B46D5
:104148000821204621F0C1FA0135E7E783F842014A
:1041580004B070BD8065030010B5044621F0E7FA8D
:1041680008210346024A204621F0AFFA002010BD7C
:1041780082600300022907B50DD15368012101931C
:104188000C4B009313680C4A21F09FFA6FF015004E
:1041980003B05DF804FB8368084AD3F8603208214D
:1041A80013F0020F064B08BF1346064A21F08DFA9A
:1041B8000020EDE7976503008E6503008A6503001C
:1041C8007F5E0300AC65030010B583680446D3F82E
:1041D80060329A0603D50749406922F091F8A3682E
:1041E800D3F860329B0603D50349606922F088F84A
:1041F800002010BDED3A0300F23A0300F0B50129A2
:10420800044685B00CD05368012101935F4B00939D
:1042180013685F4A21F059FA6FF0150005B0F0BD38
:104228008368D3F86032990603D55A49406922F069
:1042380067F800256FF0F9012046FFF7F5FCFA2131
:104248002046FFF707FDA0684FF48072294600F565
:10425800A1708DF80B502FF0D3F94F49606922F007
:104268004FF8606921F071FA4FF47A76606801229C
:1042780003680DF10B011F6903ABB847039BF3B942
:10428800013E4FF47A70B6B22EF00DFD002EEDD13E
:10429800A368D3F860329B0603D54049606922F0D1
:1042A8002FF85022A36820465A851822A3680321B4
:1042B8001A853B4A21F009FA6FF00700AEE79DF82E
:1042C8000B20A3681B2A53D093F842111B29CDD188
:1042D800522A4DD15A19002382F84231A66896F81D
:1042E80043215B2A2BD1022506F2431010F8011F47
:1042F8002A463B2905F10105ADB223D1FF2AC7D0D3
:1043080002F5A17216FA82F1002211F8010F18BB0A
:10431800FA2A28BFFA22FA2B28BFFA2386F8420184
:10432800A1684A85A2681385A368D3F860329A0603
:1043380003D51A49606921F0E3FF00206EE786F88B
:104348004231A5E703EB8303303901EB4301B5F5AF
:10435800807F8BB2CAD19BE7013502EB8202ADB2F6
:10436800303800EB4200B5F5807F82B2CDD18FE7BF
:104378002B440135ADB2092D83F842217FF676AF83
:104388000022A36883F8422182E700BF97650300F3
:104398008E650300F83A0300F7650300FC3A030052
:1043A800BD6503002DE9F04F07461546894689B0DB
:1043B80021B1104622F0D9F800285BD1032455E03A
:1043C8005C463CE029460AF5A1702FF086F80646BF
:1043D800002854D0FCF786F882B2601C31460132BE
:1043E80030442FF0F3F82246594630462FF0E1F8D2
:1043F8004FF020033355BAF8403008F10108013373
:104408001C44AAF84040002401994B1C484603AAC2
:104418000193FFF793FB0646E8B10022284631686E
:1044280022F055FA0028EFD1D6F800B0D7F808A046
:10443800BBF1000FC4D05846FCF754F884B2BAF860
:1044480040302344FF2BBDDD2B46032138460D4A5F
:1044580021F004FD0124B8F1000F07D0B8682A46FE
:1044680000F1400100F5A17021F09FFA204609B043
:10447800BDE8F08F4FF0000802244146C5E702244A
:10448800E9E700BFBF6A030001481FF03FBA00BF59
:104498006040030038B5044618B90F4B0F485B68F5
:1044A80098476168B1F5683F10D0B1F5680F0DD035
:1044B8000B4DA9420AD011F46861206807D0014663
:1044C80008482EF028FC00232360656038BD1422BC
:1044D8002FF096F8F9E700BF74020020116B030073
:1044E8002C5F5CA99057002008B560B34368B3F50A
:1044F800683F0ED0B3F5680F18D0144A934220D005
:1045080000684FF0FF324FF0FF331EF0C1F958B189
:1045180015E001220368D3E8EF1F002903D1C3E89F
:10452800E02F0028F7D10AD1002008BD0368084A07
:104538001B7803F5807352F82330002BF4D005481C
:10454800F3E70548F1E76FF4E040EEE72C5F5CA97C
:1045580000000350E98FFFFFEA8FFFFF08B520B383
:104568004368B3F5683F09D0B3F5680F13D0114A13
:1045780093421DD000681EF04DF914E00022036834
:10458800D3E8EF1F012903D1C3E8E02F0028F7D1B2
:1045980009D0094808BD00210368084A1B7803F5BB
:1045A800807342F823100020F4E76FF4E040F1E74D
:1045B8000348EFE72C5F5CA9E98FFFFF0000035079
:1045C800EA8FFFFF10B5044618B91D4B1D485B68FC
:1045D80098476368B3F5683F2FD0B3F5680F2CD0C0
:1045E800194A934219D1236803BB4FF0FF324FF0A9
:1045F800FF33214615481DF067FF08B923681BB92A
:104608000F4B13485B6898471422002120682EF04E
:10461800F7FF4FF46863636008E0B3F5683F0DD8AF
:104628003A2B03D040F6BA629342DED120682EF0CE
:10463800C8FB636843F03A03636010BD054AF3E7BB
:1046480074020020116B03002C5F5CA990570020B6
:10465800376B03003A00003A08B506494023142294
:1046680005482EF04AFBBDE80840044904481FF0FD
:10467800BFB900BF90520020905700206840030047
:104688007C4003002DE9F84305460C4600AF00299D
:1046980048D0DFF8A090D9F80030580742D0D1E9C7
:1046A80000016E468AB06A46A3684FF00508DFF835
:1046B80088C0C2E90713C2E905C042F8108F002379
:1046C8004FF421514846FDF779FBD9F80030B5463B
:1046D800590727D0D4E903018AB06A466369DFF82D
:1046E8005CC0C2E90713C2E905C042F8108F002375
:1046F8004FF421514846FDF761FBD9F80030B54623
:104708005A070FD0E369012148460D4A20F040FEC0
:10471800D9F800305B0705D0A36901214846094A4A
:1047280020F036FE214628461DF036FDBD46BDE880
:10473800F88300BF68030020646B0300936B0300D9
:10474800C26B0300D16B030030BFFFF7FDBF00BF92
:10475800124B134A2DE9F041D518013DB5FBF3F58D
:10476800DFF840805D43104B074608EB0304013C2B
:10477800B4FBF3F403FB04540E1B30460B492EF034
:1047880018FF701942460021083E2EF039FFC7F87D
:10479800A86004F10800BDE8F08100BF0100000036
:1047A800000000000800000004000000B03A030008
:1047B800044B99685869884203D003494FF08052E6
:1047C8000A60704754D5002004ED00E0F8B5364C77
:1047D800064623680D465B0703D02046334921F07F
:1047E80016FF334B9B6ADF065CD52368580703D056
:1047F80030492D4821F00BFF11202D4B9B6A1907DA
:1048080007D523685A0703D02B49274821F0FFFE14
:104818001220274FBB6A9B0719D52368580703D076
:104828002649214821F0F3FE7B6BBA6A11060DD5A3
:104838002268520704D00121214A1B4820F0A8FD14
:1048480026B11B4A936A23F0800393621320184B06
:104858009B6ADB0707D523685F0703D0194912480D
:1048680021F0D5FE1420124B9B6A9E0607D52368BB
:10487800580703D014490C4821F0C9FE15200C4BE9
:104888009A6AD10658BF9A6A9A6A920642BF5A6AC9
:1048980022F400525A629A6A42F0FF029A62002396
:1048A8002B70F8BD1020A8E768030020FF6B0300F9
:1048B80000ED00E0156C0300486C03005B6C03001E
:1048C800736C0300896C0300A86C030010B5334CAB
:1048D8002368580703D02046314921F098FE314B10
:1048E8009B6A990157D523685A0703D02E492B484C
:1048F80021F08DFE1E202B4B9B6ADB0107D5236818
:10490800580703D02949254821F081FE1F20254B4F
:104918009B6AD90207D523685A0703D024491F4840
:1049280021F075FE02201F4B9B6A1B0307D52368E5
:10493800580703D01F49194821F069FE2120194B57
:104948009B6A590307D523685A0703D01A491348A5
:1049580021F05DFE2220134B9B6A9B0307D5236839
:10496800590703D015490D4821F051FE23200D4B5E
:104978009B6ADA0307D523685B0703D01049074809
:1049880021F045FE2420074A936A6FEA03436FEA41
:104998001343936210BD1D20ADE700BF68030020DC
:1049A800D76C030000ED00E0EF6C0300026D03001C
:1049B8001C6D0300466D0300646D0300896D0300E0
:1049C800A36D0300F8B5374C064623680D465B0710
:1049D80003D02046344921F01AFE344B9B6ADF0489
:1049E80051D52368580703D031492E4821F00FFECE
:1049F80017202E4B9B6A190507D523685A0703D041
:104A08002C49284821F003FE1820284FBB6A9B0533
:104A180019D52368580703D02749224821F0F7FD04
:104A2800BB6BBA6A11040DD52268520704D0012164
:104A3800224A1C4820F0ACFC26B11C4A936A23F495
:104A4800004393621920194B9B6A5B0507D52368BD
:104A58005F0703D01A49134821F0D9FD1A20134BD8
:104A68009A6AD60511D52368590703D015490D4808
:104A780021F0CDFD1B200D4A936A43F47F439362D6
:104A880000232B70F8BD1620B3E79B6A9A04F2D571
:104A980023685B0703D00C49024821F0B8FD1C20AD
:104AA800E9E700BF68030020CE6D030000ED00E0D9
:104AB800E46D0300486C0300F56D03000E6E0300FF
:104AC800236E03003E6E0300A86C03002DE9F0413D
:104AD8008AB0734B0446D3F80480002500AFC8F3AE
:104AE800080685F31188BFF36F8F02F07F43B3F197
:104AF8007F4F0AD102F00C03082B15D169480368CF
:104B0800590702D0684921F082FD00252C46002370
:104B1800FB71F31E092B00F29E80DFE803F00A9078
:104B2800938C9C9C9C9C9C9612074CBF0C46012520
:104B3800EDE75C4E33685B0703D030465B4921F0F4
:104B480066FD0023FB71564BDA6A900708D5336877
:104B5800590703D05649534821F059FD00233BE03B
:104B6800DA6A002A04DA33685A07F7D05149F2E7BB
:104B7800DB6A5B00F2D53368580703D04E494948D1
:104B880021F045FD464BA1695A6942F480725A6189
:104B9800BFF34F8FBFF36F8F5A6931F8021C22F4AD
:104BA80080725A61BFF34F8FBFF36F8F4DF6027259
:104BB800914207D09A6AD2B282B30120F91DFFF759
:104BC80005FE3AE03368590705D0236801213B4ABE
:104BD800344820F0DDFB2368FA79DAB907F10806D2
:104BE80004F1200C324620686168083403C2644529
:104BF8001646F7D17A6A002D4DD0C2F3080121B9C3
:104C08006FEA52226FEA42227A62184607F10801D7
:104C1800FFF738FD2837BD46BDE8F0819A6A12F4DF
:104C28007F4F04D00120F91DFFF7CCFE05E09B6AF9
:104C3800B3F5803F92D3FFF749FE0346CCE7002047
:104C4800F91DBCE70020F91DEEE7164803685A076E
:104C580084D01B4980E7134803685B073FF47EAFA5
:104C6800184A18F4F87FE8468AB0174B18BF13465D
:104C78006A461649103EC2E905134FF400731384BF
:104C8800134BD66142F8103F00234FF41151FDF742
:104C980095F8C54662E722F4FF7222F00102B3E7F5
:104CA80000ED00E068030020846E0300AF6E03008F
:104CB800C66E0300E76E0300F56E0300146F030071
:104CC800306F03006B6E0300566E0300546F0300D1
:104CD80004000001044B5A6942F010025A615A69F3
:104CE80042F480625A61704700ED00E0EFF30880FB
:104CF800EFF3098101B57246FFF7E8FE01BD00BF79
:104D0800002080F31488BFF36F8F002080F30A8897
:104D180080F30B8800F098FD002011490860BFF36C
:104D28004F8F104880F3088800F044F8202080F363
:104D380011880D484FF0AA014FF400622DF0C3FF0F
:104D480009484FF40061401880F30988EFF3148094
:104D58000221084380F31488BFF36F8F00F00CF929
:104D680094ED00E078F5002038E40020BFF34F8F81
:104D78000549064BCA6802F4E0621343CB60BFF3EF
:104D88004F8F00BFFDE700BF00ED00E00400FA050B
:104D9800002318460649D1F89020C2F3072293420F
:104DA80000DB7047C1F89830C1F8A0000133F6E77E
:104DB80000ED00E010B572B6002484F31388FFF705
:104DC800E7FF23464FF0FF300C4A03F1200101337F
:104DD800102B42F82100F8D100234FF0FF30074A8A
:104DE80003F160010133102B42F82100F8D162B6BB
:104DF800BFF34F8FBFF36F8F10BD00BF00E100E01E
:104E0800084B9B6883420BD1EFF3058343B1064BF4
:104E18005A6842F080525A605A6A22F400425A6232
:104E28002EF0EDB854D5002000ED00E06FF00A0137
:104E3800094A9368C3F8B0100849C3F8AC004B6836
:104E480043F080534B60002383F31188BFF36F8FC7
:104E58009368D3F8B000704754D5002000ED00E007
:104E680017498A684FF030001044EFF3098C80E846
:104E7800F01F202080F31288BFF36F8F114F4FF07F
:104E880000664A698A603E604FF0A80414192068D9
:104E98000D4C2060D2F8AC000023C2F8AC3080F38F
:104EA800118802F1300090E8F01F8CF3098802F1B4
:104EB800000004B521F0B3FBBDE8044070470000D2
:104EC80054D5002004ED00E0AC5700201EF0040F7C
:104ED8000CBFEFF30880EFF30980816911F8021C19
:104EE8000229FFD001B521F087FB01BD40B200289F
:104EF80007DB01234109034A00F01F00834042F801
:104F08002130704700E100E040B200280CDB0122AC
:104F18000649430900F01F008240203341F823204E
:104F2800BFF34F8FBFF36F8F704700BF00E100E002
:104F3800054B420953F82220012300F01F0003FA11
:104F480000F01040704700BF00E100E040B20028C8
:104F580001F10101ACBF00F16040064B4FEA41117D
:104F6800C9B2ABBF00F5614000F00F0080F8001334
:104F78001954704714ED00E00B4A08B50B4B22F0AA
:104F88007F029A60BFF34F8FBFF36F8FD3F88820EB
:104F980022F47002C3F888201DF0C6F91EF07CF8D0
:104FA80000F07AF81DF00EFA0000000000ED00E0B5
:104FB80042F8203C009B0B4942F81C3C019B21F025
:104FC800010142F8183C029B42F8081C42F8143CC4
:104FD8004FF0807342F8043C0023203A0265C0F881
:104FE800AC307047911200000B4BD0F8A840986085
:104FF8000A4B1C60D0F8983083F30B88104681F375
:105008000988002163B681F31188BFF36F8F0022EE
:105018000023FCF739F900BF54D50020AC57002015
:10502800014910220A60704710ED00E072B6404056
:1050380080F31188BFF36F8F01B500F0FFFA0028E5
:105048000AD0BFF34F8F30BF00BF00BF00BF00BF03
:1050580000BF00BF00BF00BFBDE8014062B6BFF39C
:105068006F8F704772B6494081F3118801B500F01F
:10507800E5FA00280AD0BFF34F8F20BF00BF00BF5A
:1050880000BF00BF00BF00BF00BF00BFBDE80140B8
:1050980080F3118862B67047002320210348C218A4
:1050A8000133452B82F80013F9D1704700E100E085
:1050B80001B5EFF30580A0F110004FEAC0000449E4
:1050C800014409C99847BDE8014002490847000062
:1050D80070370300B94700001FB5094C094A234639
:1050E8000121094800F014F900230393074B01211B
:1050F800E41A01A80193029400F014F904B010BD59
:1051080000000720000000208C400300F00300206E
:1051180010B50C7A0B6804F01F0223F01F031A4322
:10512800CB68640923F01F03054943EA440343F0AD
:105138000103C1F89800C1F89C20C1F8A03010BD47
:1051480000ED00E0072810B504460BD907480368AE
:105158005B0704D001212346054A20F019F96FF0B6
:10516800150010BDFFF7D4FFFBE700BF6403002064
:105178006B6F03002DE9F04F8946144606464FF041
:105188000008544D85B0C8452EDAD6F804A0BAF107
:10519800000F4BD0BAF11F0F1BD91AF01F0F18D1EF
:1051A800D6F800B01BF01F0F13D1584621F03CFA77
:1051B80007460AEB0B00013821F036FA874217D070
:1051C8006FF01507444803685B070BD0434A3B461A
:1051D80005E0414803685A0704D04346404A012184
:1051E80020F0D6F86FF01504204605B0BDE8F08F22
:1051F80017F1160FE6D0BC42E4DDC5F89870D5F873
:105208009C10C5F89870D5F8A03021F01F0143F024
:105218001F0BD6E900321A44994202F1FF3A1DD118
:10522800D34507D13146F8B221F007FA08F1010851
:105238000C36A8E73146C5F89870D5F89C3022F0AE
:105248001F0203F01F031343C5F89C30E0B221F09E
:10525800F4F910F1160FC5D0441CE7E7C5F89870AB
:10526800D5F8A020013B23F01F0302F01F021343CF
:10527800D3453146E0B2C5F8A030E8D021F0DDF9D9
:1052880010F1160FAED0C5F89870D5F89C209DF88F
:1052980008300BF1FF3B62F304038DF80830D5F8B2
:1052A800A0309DF808205B0863F347128DF80820AA
:1052B800D6E900321344009323F01F035B44A3EBA9
:1052C8000A03013023F01F036946C0B20393FFF7B6
:1052D80039FFBEE700ED00E064030020B46F03006F
:1052E800916F03000522044BC3F89420BFF34F8F3E
:1052F800BFF36F8F704700BF00ED00E0BFF35F8F13
:105308000022024BC3F89420704700BF00ED00E074
:1053180010B5034C2278FFF72DFF207010BD00BF99
:10532800E5D700202DE9F74F294D8A4606464FF06C
:105338000008AB46274FD0451BDAD6F80490B9F1E0
:10534800000F3FD031680846019121F06DF90199AD
:10535800044609EB0100013821F066F984424FF058
:1053680014021D4B08D002FB08F36FF015024BF82E
:10537800032003B0BDE8F08F14F1160F2C60F8D0AD
:105388001978A142F5DD02FB08B0C7F89840C7F8C4
:105398009840D7F89C4000F10801007B64F30400B2
:1053A8000871D7F8A0000C79400860F347140C7115
:1053B800D7F89C1021F01F016960D7F8A01021F0E0
:1053C8001F01296108F1010814350C36B3E700BF45
:1053D800B057002000ED00E0E5D70020F0B53C4DC7
:1053E80087B02C68082C6FD80020FFF787FF394B4F
:1053F800394AC3F8C02084420DD1384D01A82C7019
:10540800FCF796FF00240646354FA6420AD1FFF75F
:1054180069FF002056E0696801EB0011FFF778FE8C
:105428000130E8E70199200101EB0413DA683A40FA
:10543800B2F5001F22D0B2F5800F2CD0B2F5801F34
:1054480036D15A689B680958013B22F01F00034473
:105458000120844623F01F0340EA4C10CDE90221C5
:105468008DF8100002A928780593FFF76BFE002835
:1054780026DB2B78013401332B70C6E75A689B680A
:105488000958013B22F01F0003444FF0020C012091
:1054980023F01F03E0E75A689B680958013B22F094
:1054A8001F0003444FF0000C062023F01F03D3E72E
:1054B8000C4803685B0703D001210B4A1FF05FFF0C
:1054C8006FF0150007B0F0BD4FF0FF30FAE700BFEE
:1054D8009840030000ED00E0AAFF4400E5D7002053
:1054E8000000F0FF64030020D76F030008B5024BEB
:1054F8001B689847002008BDC4570020034B044A86
:105508001860937843F0020393707047C4570020E3
:1055180088000020F0B587B007460E4614460021E3
:10552800102268461D462EF06BF802238DF80230D3
:10553800054B2A4621466846CDE9047601931EF0BC
:105548002FFC07B0F0BD00BF7566020008B504481F
:105558001EF001FF404080F311884FF0020002DF87
:105568000870030008B50649064821F00701C1F193
:10557800005202F5E0221FF0F2F9002008BD00BF3A
:10558800C7FB0020C857002007B50DF1070021F020
:105598008EFE114B98421CD14FF480620F4B10497C
:1055A800C3F8B8254FF40062C3F83C259DF80700FE
:1055B80021F069FE0B499DF8070021F05FFE0120EC
:1055C8009DF80730984002F0CDF8002003B05DF850
:1055D80004FB6FF00B00F9E70000AD0B00A00250D0
:1055E8002CA0025028A10250054B03EB8000D0F8F4
:1055F800003223F0E04343F04053C0F800327047D4
:1056080000258450012208B50A4B0B49C3F8002530
:1056180002230020C1F8D036FFF7E6FF1046FFF757
:10562800E3FFC1F80427C1F80429C1F8002B0020C2
:1056380008BD00BF0010005000400050052370B5A1
:10564800144D154E2C780134B4FBF3F303EB8303AC
:10565800E41A21F001FE114A137823B156F82430D8
:10566800C01A072814D94FF05023D3F8141141B1A8
:105678000021C3F81411D3F814312C700CB901238C
:1056880013702C7821F0E8FD46F82400012070BD45
:105698000020FCE7E7D70020D4570020E6D70020F9
:1056A80048B1054B054A1B68B3FBF2F35843044B5A
:1056B80043F00103184770474C01002040420F0097
:1056C800103B030070B5049CC4F30726304601F074
:1056D800F5FCE5B20146284621F0E1FD0022012053
:1056E800074BA40B04F0FC041A51A84002F040F840
:1056F800304601F097FE2846BDE8704002F02CB90C
:1057080080A0025073B501A802F020F9284B9842F6
:105718004AD101F069FE041E0DDA9DF8040002F07A
:105728001BF9244803685B073BD001212346224A22
:105738001FF02EFE35E040F60703204D8DF805409A
:10574800AE68ADF806307468019B14B96FF0570461
:10575800E7E7082128461A4AA047041EE1DB336917
:10576800002BF3D00122082128469847041ED8DBD5
:1057780001209DF80430984001F0F4FF9DF80500E1
:105788009DF804509DF8076021F051FD0146284618
:1057980021F079FD0B4BB60045F000459D51002CDA
:1057A800BFD1204602B070BD6FF01204B9E700BF48
:1057B8000000AD0B7C0300202A700300343703007F
:1057C800D157000080A102502DE9F34114468368A7
:1057D8001B690BB100229847C4F30726304601F035
:1057E80075FC0546304621F022FD4FF00008E7B26F
:1057F8000146384621F057FD104B220E920043F81F
:105808000280304601F05AFC0D4A4FEA943C0CF0F5
:10581800FC0C47F0004342F80C300146384621F0B2
:105828002DFD084B05F132020093304643460194A2
:10583800520021F005FD02B0BDE8F08180A10250C0
:1058480080A00250CD56000001F06EBE084B70B526
:10585800C31A0D4607499B1004465943402206487F
:1058680021F054F82B4601462046BDE87040184701
:10587800FC570020B76DDBB6E4360300402373B550
:105888000B4C0093041B0B460D460A49A4106143B8
:105898000646094A094821F065F8011E05DA30462E
:1058A8002B4602B0BDE87040184702B070BD00BF7B
:1058B800FC570020B76DDBB6D7690200E436030059
:1058C8002DE9F8430022012106460520FFF73EFB9B
:1058D800114801F053FF114B984219D101F05EFFB6
:1058E80000244FF01C090C27DFF834803569414645
:1058F80009FB04501FF010F9002807DB012307FB00
:1059080004551C44042CAB67F0D10020BDE8F88393
:105918006FF00400FAE700BF615900000000AD0B0A
:10592800C040030001460C2300224B4370B50848D1
:10593800C41878331844D4E91C56226720F0D3FFE2
:105948002DB132462B46BDE870400248184770BD5D
:10595800FC570020E4360300062812D8DFE800F0E0
:10596800040F1111110D0B00064B986F10F0070072
:1059780007D1FFF7D7BF0220FBE70320F9E7012093
:10598800F7E77047FC57002008B54FF02003EFF306
:10599800118183F31288BFF36F8F124A136843F0A3
:1059A80002001060DA0708D481F31188BFF36F8F03
:1059B800BDE80840012001F009BF4FF05023D3F89B
:1059C8000C24D3F80C34DB07EED5074820F08BFF06
:1059D80081F31188BFF36F8FBDE808400020FFF7FF
:1059E800A1BF00BF9C580020745800207FB500223A
:1059F8000123CDE9022304ABCDE90433094A6B4600
:105A0800CDF800D0CDF804D020F0DAFF002805DB6F
:105A18004FF48042002368461CF0DAFF07B05DF8B7
:105A280004FB00BF0D6A020010B54FF02003EFF32E
:105A3800118483F31288BFF36F8F074A136823F02A
:105A48000201DB07116002D4012021F0E3FC84F39A
:105A58001188BFF36F8F10BD9C5800202DE9F041CD
:105A6800012207463749D1E8EF3FC1E8E02F002877
:105A7800F9D133B9344935484B60CB608A601FF09F
:105A88005EF87B1E012B2BD8012F07D14FF0502336
:105A9800D3F81C3403F00303022B21D02DF062F954
:105AA8000546F8B92A4B1B78E3B14FF05023022280
:105AB8000646C3F808234FF05024DFF89880D4F83E
:105AC8001824D4F81834D20316D503F00303022B94
